{
  "_format": "hh-sol-artifact-1",
  "contractName": "FarmSupplyChain",
  "sourceName": "contracts/FarmSupplyChain.sol",
  "abi": [
    {
      "inputs": [],
      "stateMutability": "nonpayable",
      "type": "constructor"
    },
    {
      "inputs": [],
      "name": "EnforcedPause",
      "type": "error"
    },
    {
      "inputs": [],
      "name": "ExpectedPause",
      "type": "error"
    },
    {
      "inputs": [],
      "name": "ReentrancyGuardReentrantCall",
      "type": "error"
    },
    {
      "anonymous": false,
      "inputs": [
        {
          "indexed": true,
          "internalType": "uint256",
          "name": "id",
          "type": "uint256"
        },
        {
          "indexed": true,
          "internalType": "address",
          "name": "distributor",
          "type": "address"
        }
      ],
      "name": "BatchDistributed",
      "type": "event"
    },
    {
      "anonymous": false,
      "inputs": [
        {
          "indexed": true,
          "internalType": "uint256",
          "name": "id",
          "type": "uint256"
        },
        {
          "indexed": true,
          "internalType": "uint256",
          "name": "bulkSupplyId",
          "type": "uint256"
        },
        {
          "indexed": true,
          "internalType": "address",
          "name": "processor",
          "type": "address"
        },
        {
          "indexed": false,
          "internalType": "uint256",
          "name": "quantity",
          "type": "uint256"
        }
      ],
      "name": "BatchProcessed",
      "type": "event"
    },
    {
      "anonymous": false,
      "inputs": [
        {
          "indexed": true,
          "internalType": "uint256",
          "name": "id",
          "type": "uint256"
        },
        {
          "indexed": true,
          "internalType": "address",
          "name": "inspector",
          "type": "address"
        },
        {
          "indexed": true,
          "internalType": "string",
          "name": "qualityGrade",
          "type": "string"
        }
      ],
      "name": "BatchQualityChecked",
      "type": "event"
    },
    {
      "anonymous": false,
      "inputs": [
        {
          "indexed": true,
          "internalType": "uint256",
          "name": "id",
          "type": "uint256"
        },
        {
          "indexed": false,
          "internalType": "string",
          "name": "name",
          "type": "string"
        },
        {
          "indexed": true,
          "internalType": "address",
          "name": "farmer",
          "type": "address"
        },
        {
          "indexed": false,
          "internalType": "uint256",
          "name": "quantity",
          "type": "uint256"
        },
        {
          "indexed": false,
          "internalType": "string",
          "name": "unit",
          "type": "string"
        },
        {
          "indexed": false,
          "internalType": "uint256",
          "name": "pricePerUnit",
          "type": "uint256"
        }
      ],
      "name": "BulkSupplyRegistered",
      "type": "event"
    },
    {
      "anonymous": false,
      "inputs": [
        {
          "indexed": false,
          "internalType": "address",
          "name": "account",
          "type": "address"
        }
      ],
      "name": "Paused",
      "type": "event"
    },
    {
      "anonymous": false,
      "inputs": [
        {
          "indexed": true,
          "internalType": "uint256",
          "name": "_supplyId",
          "type": "uint256"
        },
        {
          "indexed": true,
          "internalType": "address",
          "name": "processor",
          "type": "address"
        },
        {
          "indexed": false,
          "internalType": "string",
          "name": "_qualityGrade",
          "type": "string"
        }
      ],
      "name": "ReportSuplyQuality",
      "type": "event"
    },
    {
      "anonymous": false,
      "inputs": [
        {
          "indexed": true,
          "internalType": "uint256",
          "name": "id",
          "type": "uint256"
        },
        {
          "indexed": true,
          "internalType": "uint256",
          "name": "batchId",
          "type": "uint256"
        },
        {
          "indexed": true,
          "internalType": "address",
          "name": "retailer",
          "type": "address"
        },
        {
          "indexed": false,
          "internalType": "uint256",
          "name": "price",
          "type": "uint256"
        }
      ],
      "name": "UnitRetailed",
      "type": "event"
    },
    {
      "anonymous": false,
      "inputs": [
        {
          "indexed": true,
          "internalType": "uint256",
          "name": "id",
          "type": "uint256"
        },
        {
          "indexed": true,
          "internalType": "address",
          "name": "consumer",
          "type": "address"
        }
      ],
      "name": "UnitSold",
      "type": "event"
    },
    {
      "anonymous": false,
      "inputs": [
        {
          "indexed": false,
          "internalType": "address",
          "name": "account",
          "type": "address"
        }
      ],
      "name": "Unpaused",
      "type": "event"
    },
    {
      "inputs": [],
      "name": "ADMIN_ROLE",
      "outputs": [
        {
          "internalType": "bytes32",
          "name": "",
          "type": "bytes32"
        }
      ],
      "stateMutability": "view",
      "type": "function"
    },
    {
      "inputs": [],
      "name": "DISTRIBUTOR_ROLE",
      "outputs": [
        {
          "internalType": "bytes32",
          "name": "",
          "type": "bytes32"
        }
      ],
      "stateMutability": "view",
      "type": "function"
    },
    {
      "inputs": [],
      "name": "FARMER_ROLE",
      "outputs": [
        {
          "internalType": "bytes32",
          "name": "",
          "type": "bytes32"
        }
      ],
      "stateMutability": "view",
      "type": "function"
    },
    {
      "inputs": [],
      "name": "PROCESSOR_ROLE",
      "outputs": [
        {
          "internalType": "bytes32",
          "name": "",
          "type": "bytes32"
        }
      ],
      "stateMutability": "view",
      "type": "function"
    },
    {
      "inputs": [],
      "name": "QUALITY_INSPECTOR_ROLE",
      "outputs": [
        {
          "internalType": "bytes32",
          "name": "",
          "type": "bytes32"
        }
      ],
      "stateMutability": "view",
      "type": "function"
    },
    {
      "inputs": [],
      "name": "RETAILER_ROLE",
      "outputs": [
        {
          "internalType": "bytes32",
          "name": "",
          "type": "bytes32"
        }
      ],
      "stateMutability": "view",
      "type": "function"
    },
    {
      "inputs": [
        {
          "internalType": "uint256",
          "name": "",
          "type": "uint256"
        },
        {
          "internalType": "uint256",
          "name": "",
          "type": "uint256"
        }
      ],
      "name": "batchToUnits",
      "outputs": [
        {
          "internalType": "uint256",
          "name": "",
          "type": "uint256"
        }
      ],
      "stateMutability": "view",
      "type": "function"
    },
    {
      "inputs": [
        {
          "internalType": "uint256",
          "name": "",
          "type": "uint256"
        }
      ],
      "name": "bulkSupplies",
      "outputs": [
        {
          "internalType": "uint256",
          "name": "id",
          "type": "uint256"
        },
        {
          "internalType": "string",
          "name": "name",
          "type": "string"
        },
        {
          "internalType": "address",
          "name": "farmer",
          "type": "address"
        },
        {
          "internalType": "uint256",
          "name": "quantity",
          "type": "uint256"
        },
        {
          "internalType": "string",
          "name": "unit",
          "type": "string"
        },
        {
          "internalType": "uint256",
          "name": "pricePerUnit",
          "type": "uint256"
        },
        {
          "internalType": "string",
          "name": "originLocation",
          "type": "string"
        },
        {
          "internalType": "string",
          "name": "qualityGrade",
          "type": "string"
        },
        {
          "internalType": "enum IFarmSupplyChain.SupplyState",
          "name": "state",
          "type": "uint8"
        }
      ],
      "stateMutability": "view",
      "type": "function"
    },
    {
      "inputs": [
        {
          "internalType": "uint256",
          "name": "",
          "type": "uint256"
        },
        {
          "internalType": "uint256",
          "name": "",
          "type": "uint256"
        }
      ],
      "name": "bulkSupplyToBatches",
      "outputs": [
        {
          "internalType": "uint256",
          "name": "",
          "type": "uint256"
        }
      ],
      "stateMutability": "view",
      "type": "function"
    },
    {
      "inputs": [
        {
          "internalType": "uint256",
          "name": "_batchId",
          "type": "uint256"
        },
        {
          "internalType": "string",
          "name": "_qualityGrade",
          "type": "string"
        }
      ],
      "name": "checkBatchQuality",
      "outputs": [],
      "stateMutability": "nonpayable",
      "type": "function"
    },
    {
      "inputs": [
        {
          "internalType": "address",
          "name": "_farmer",
          "type": "address"
        }
      ],
      "name": "createFarmer",
      "outputs": [],
      "stateMutability": "nonpayable",
      "type": "function"
    },
    {
      "inputs": [
        {
          "internalType": "address",
          "name": "_processor",
          "type": "address"
        }
      ],
      "name": "createProcessor",
      "outputs": [],
      "stateMutability": "nonpayable",
      "type": "function"
    },
    {
      "inputs": [
        {
          "internalType": "uint256",
          "name": "_batchId",
          "type": "uint256"
        },
        {
          "internalType": "uint256",
          "name": "_quantity",
          "type": "uint256"
        },
        {
          "internalType": "uint256",
          "name": "_pricePerUnit",
          "type": "uint256"
        }
      ],
      "name": "createRetailUnits",
      "outputs": [],
      "stateMutability": "nonpayable",
      "type": "function"
    },
    {
      "inputs": [
        {
          "internalType": "address",
          "name": "_retailer",
          "type": "address"
        }
      ],
      "name": "createRetailer",
      "outputs": [],
      "stateMutability": "nonpayable",
      "type": "function"
    },
    {
      "inputs": [
        {
          "internalType": "uint256",
          "name": "_batchId",
          "type": "uint256"
        }
      ],
      "name": "distributeBatch",
      "outputs": [],
      "stateMutability": "nonpayable",
      "type": "function"
    },
    {
      "inputs": [
        {
          "internalType": "address",
          "name": "",
          "type": "address"
        },
        {
          "internalType": "uint256",
          "name": "",
          "type": "uint256"
        }
      ],
      "name": "farmerSupplies",
      "outputs": [
        {
          "internalType": "uint256",
          "name": "",
          "type": "uint256"
        }
      ],
      "stateMutability": "view",
      "type": "function"
    },
    {
      "inputs": [
        {
          "internalType": "uint256",
          "name": "_batchId",
          "type": "uint256"
        }
      ],
      "name": "getBatchUnits",
      "outputs": [
        {
          "internalType": "uint256[]",
          "name": "",
          "type": "uint256[]"
        }
      ],
      "stateMutability": "view",
      "type": "function"
    },
    {
      "inputs": [
        {
          "internalType": "uint256",
          "name": "_bulkSupplyId",
          "type": "uint256"
        }
      ],
      "name": "getBulkSupplyBatches",
      "outputs": [
        {
          "internalType": "uint256[]",
          "name": "",
          "type": "uint256[]"
        }
      ],
      "stateMutability": "view",
      "type": "function"
    },
    {
      "inputs": [
        {
          "internalType": "address",
          "name": "_farmer",
          "type": "address"
        }
      ],
      "name": "getFarmerSupplies",
      "outputs": [
        {
          "internalType": "uint256[]",
          "name": "",
          "type": "uint256[]"
        }
      ],
      "stateMutability": "view",
      "type": "function"
    },
    {
      "inputs": [
        {
          "internalType": "address",
          "name": "_processor",
          "type": "address"
        }
      ],
      "name": "getProcessorBatches",
      "outputs": [
        {
          "internalType": "uint256[]",
          "name": "",
          "type": "uint256[]"
        }
      ],
      "stateMutability": "view",
      "type": "function"
    },
    {
      "inputs": [
        {
          "internalType": "address",
          "name": "_retailer",
          "type": "address"
        }
      ],
      "name": "getRetailerUnits",
      "outputs": [
        {
          "internalType": "uint256[]",
          "name": "",
          "type": "uint256[]"
        }
      ],
      "stateMutability": "view",
      "type": "function"
    },
    {
      "inputs": [
        {
          "internalType": "uint256",
          "name": "_unitId",
          "type": "uint256"
        }
      ],
      "name": "getUnitHistory",
      "outputs": [
        {
          "internalType": "uint256",
          "name": "unitId",
          "type": "uint256"
        },
        {
          "internalType": "uint256",
          "name": "batchId",
          "type": "uint256"
        },
        {
          "internalType": "uint256",
          "name": "bulkSupplyId",
          "type": "uint256"
        },
        {
          "internalType": "address",
          "name": "farmer",
          "type": "address"
        },
        {
          "internalType": "address",
          "name": "processor",
          "type": "address"
        },
        {
          "internalType": "address",
          "name": "retailer",
          "type": "address"
        },
        {
          "internalType": "address",
          "name": "consumer",
          "type": "address"
        },
        {
          "internalType": "string",
          "name": "productName",
          "type": "string"
        },
        {
          "internalType": "string",
          "name": "originLocation",
          "type": "string"
        },
        {
          "internalType": "uint256",
          "name": "processingDate",
          "type": "uint256"
        },
        {
          "internalType": "string",
          "name": "qualityGrade",
          "type": "string"
        }
      ],
      "stateMutability": "view",
      "type": "function"
    },
    {
      "inputs": [],
      "name": "pause",
      "outputs": [],
      "stateMutability": "nonpayable",
      "type": "function"
    },
    {
      "inputs": [],
      "name": "paused",
      "outputs": [
        {
          "internalType": "bool",
          "name": "",
          "type": "bool"
        }
      ],
      "stateMutability": "view",
      "type": "function"
    },
    {
      "inputs": [
        {
          "internalType": "uint256",
          "name": "_bulkSupplyId",
          "type": "uint256"
        },
        {
          "internalType": "uint256",
          "name": "_quantity",
          "type": "uint256"
        }
      ],
      "name": "processBatch",
      "outputs": [],
      "stateMutability": "nonpayable",
      "type": "function"
    },
    {
      "inputs": [
        {
          "internalType": "uint256",
          "name": "",
          "type": "uint256"
        }
      ],
      "name": "processedBatches",
      "outputs": [
        {
          "internalType": "uint256",
          "name": "id",
          "type": "uint256"
        },
        {
          "internalType": "uint256",
          "name": "bulkSupplyId",
          "type": "uint256"
        },
        {
          "internalType": "address",
          "name": "processor",
          "type": "address"
        },
        {
          "internalType": "uint256",
          "name": "quantity",
          "type": "uint256"
        },
        {
          "internalType": "uint256",
          "name": "processingDate",
          "type": "uint256"
        },
        {
          "internalType": "string",
          "name": "qualityGrade",
          "type": "string"
        },
        {
          "internalType": "enum IFarmSupplyChain.SupplyState",
          "name": "state",
          "type": "uint8"
        }
      ],
      "stateMutability": "view",
      "type": "function"
    },
    {
      "inputs": [
        {
          "internalType": "address",
          "name": "",
          "type": "address"
        },
        {
          "internalType": "uint256",
          "name": "",
          "type": "uint256"
        }
      ],
      "name": "processorBatches",
      "outputs": [
        {
          "internalType": "uint256",
          "name": "",
          "type": "uint256"
        }
      ],
      "stateMutability": "view",
      "type": "function"
    },
    {
      "inputs": [
        {
          "internalType": "string",
          "name": "_name",
          "type": "string"
        },
        {
          "internalType": "uint256",
          "name": "_quantity",
          "type": "uint256"
        },
        {
          "internalType": "string",
          "name": "_unit",
          "type": "string"
        },
        {
          "internalType": "uint256",
          "name": "_pricePerUnit",
          "type": "uint256"
        },
        {
          "internalType": "string",
          "name": "_originLocation",
          "type": "string"
        }
      ],
      "name": "registerBulkSupply",
      "outputs": [],
      "stateMutability": "nonpayable",
      "type": "function"
    },
    {
      "inputs": [
        {
          "internalType": "address",
          "name": "_farmer",
          "type": "address"
        }
      ],
      "name": "removeFarmer",
      "outputs": [],
      "stateMutability": "nonpayable",
      "type": "function"
    },
    {
      "inputs": [
        {
          "internalType": "address",
          "name": "_processor",
          "type": "address"
        }
      ],
      "name": "removeProcessor",
      "outputs": [],
      "stateMutability": "nonpayable",
      "type": "function"
    },
    {
      "inputs": [
        {
          "internalType": "address",
          "name": "_retailer",
          "type": "address"
        }
      ],
      "name": "removeRetailer",
      "outputs": [],
      "stateMutability": "nonpayable",
      "type": "function"
    },
    {
      "inputs": [
        {
          "internalType": "uint256",
          "name": "_supplyId",
          "type": "uint256"
        },
        {
          "internalType": "string",
          "name": "_qualityGrade",
          "type": "string"
        }
      ],
      "name": "reportSupplyQuality",
      "outputs": [],
      "stateMutability": "nonpayable",
      "type": "function"
    },
    {
      "inputs": [
        {
          "internalType": "uint256",
          "name": "",
          "type": "uint256"
        }
      ],
      "name": "retailUnits",
      "outputs": [
        {
          "internalType": "uint256",
          "name": "id",
          "type": "uint256"
        },
        {
          "internalType": "uint256",
          "name": "batchId",
          "type": "uint256"
        },
        {
          "internalType": "address",
          "name": "retailer",
          "type": "address"
        },
        {
          "internalType": "address",
          "name": "consumer",
          "type": "address"
        },
        {
          "internalType": "uint256",
          "name": "price",
          "type": "uint256"
        },
        {
          "internalType": "enum IFarmSupplyChain.SupplyState",
          "name": "state",
          "type": "uint8"
        }
      ],
      "stateMutability": "view",
      "type": "function"
    },
    {
      "inputs": [
        {
          "internalType": "address",
          "name": "",
          "type": "address"
        },
        {
          "internalType": "uint256",
          "name": "",
          "type": "uint256"
        }
      ],
      "name": "retailerUnits",
      "outputs": [
        {
          "internalType": "uint256",
          "name": "",
          "type": "uint256"
        }
      ],
      "stateMutability": "view",
      "type": "function"
    },
    {
      "inputs": [
        {
          "internalType": "address",
          "name": "_account",
          "type": "address"
        }
      ],
      "name": "role",
      "outputs": [
        {
          "internalType": "string",
          "name": "",
          "type": "string"
        }
      ],
      "stateMutability": "view",
      "type": "function"
    },
    {
      "inputs": [
        {
          "internalType": "uint256",
          "name": "_unitId",
          "type": "uint256"
        }
      ],
      "name": "sellUnit",
      "outputs": [],
      "stateMutability": "payable",
      "type": "function"
    },
    {
      "inputs": [],
      "name": "unpause",
      "outputs": [],
      "stateMutability": "nonpayable",
      "type": "function"
    }
  ],
  "bytecode": "0x6080604052348015600f57600080fd5b5060016000819055506000600160006101000a81548160ff02191690831515021790555060766040518060400160405280600a81526020017f41444d494e5f524f4c450000000000000000000000000000000000000000000081525033607a60201b60201c565b607e565b5050565b614a6b8061008d6000396000f3fe60806040526004361061021a5760003560e01c806375ecd7d311610123578063c3163488116100ab578063e6bf3fdc1161006f578063e6bf3fdc1461084d578063ec0030f514610876578063f0bd87cc1461089f578063f3943970146108ca578063fdbb7964146108f55761021a565b8063c316348814610744578063d2ef4f3b14610781578063d590f8c9146107aa578063e4572019146107e7578063e581c491146108105761021a565b806386ce7509116100f257806386ce7509146106485780639560419f1461068557806395f2e02f146106c2578063b742a751146106ff578063b7449d0d1461071b5761021a565b806375ecd7d31461059a5780637ee35ef3146105c35780638222bdb2146106065780638456cb59146106315761021a565b80633f4ba83a116101a657806368a22ee01161017557806368a22ee01461049b5780636a131175146104d85780636a4e5cf71461050157806370099ec81461054657806375b238fc1461056f5761021a565b80633f4ba83a146104055780634e20c3621461041c57806355191945146104475780635c975abb146104705761021a565b806320331350116101ed57806320331350146103095780632115e7bf1461033257806325b3557f1461035d578063345b2bec146103865780633b510b1d146103c35761021a565b80630866b86b1461021f578063112ab78a1461025c578063187f0df6146102855780631cbef6ba146102cc575b600080fd5b34801561022b57600080fd5b5061024660048036038101906102419190613720565b610932565b604051610253919061380b565b60405180910390f35b34801561026857600080fd5b50610283600480360381019061027e919061388b565b61099d565b005b34801561029157600080fd5b506102ac60048036038101906102a79190613720565b610a04565b6040516102c39b9a99989796959493929190613966565b60405180910390f35b3480156102d857600080fd5b506102f360048036038101906102ee919061388b565b610ce3565b604051610300919061380b565b60405180910390f35b34801561031557600080fd5b50610330600480360381019061032b919061388b565b610d7a565b005b34801561033e57600080fd5b50610347610de1565b6040516103549190613a3f565b60405180910390f35b34801561036957600080fd5b50610384600480360381019061037f9190613b8f565b610e05565b005b34801561039257600080fd5b506103ad60048036038101906103a89190613beb565b611293565b6040516103ba9190613c2b565b60405180910390f35b3480156103cf57600080fd5b506103ea60048036038101906103e59190613720565b6112c4565b6040516103fc96959493929190613cbd565b60405180910390f35b34801561041157600080fd5b5061041a61134d565b005b34801561042857600080fd5b506104316113fa565b60405161043e9190613a3f565b60405180910390f35b34801561045357600080fd5b5061046e60048036038101906104699190613b8f565b61141e565b005b34801561047c57600080fd5b50610485611614565b6040516104929190613d39565b60405180910390f35b3480156104a757600080fd5b506104c260048036038101906104bd9190613720565b61162b565b6040516104cf919061380b565b60405180910390f35b3480156104e457600080fd5b506104ff60048036038101906104fa9190613720565b611696565b005b34801561050d57600080fd5b5061052860048036038101906105239190613720565b611851565b60405161053d99989796959493929190613d54565b60405180910390f35b34801561055257600080fd5b5061056d6004803603810190610568919061388b565b611aec565b005b34801561057b57600080fd5b50610584611b53565b6040516105919190613a3f565b60405180910390f35b3480156105a657600080fd5b506105c160048036038101906105bc9190613dfd565b611b77565b005b3480156105cf57600080fd5b506105ea60048036038101906105e59190613720565b611eaa565b6040516105fd9796959493929190613ecc565b60405180910390f35b34801561061257600080fd5b5061061b611fa1565b6040516106289190613a3f565b60405180910390f35b34801561063d57600080fd5b50610646611fc5565b005b34801561065457600080fd5b5061066f600480360381019061066a9190613f42565b612072565b60405161067c9190613c2b565b60405180910390f35b34801561069157600080fd5b506106ac60048036038101906106a7919061388b565b6120a3565b6040516106b9919061380b565b60405180910390f35b3480156106ce57600080fd5b506106e960048036038101906106e49190613beb565b61213a565b6040516106f69190613c2b565b60405180910390f35b61071960048036038101906107149190613720565b61216b565b005b34801561072757600080fd5b50610742600480360381019061073d9190613f82565b61237c565b005b34801561075057600080fd5b5061076b60048036038101906107669190613f42565b6127ec565b6040516107789190613c2b565b60405180910390f35b34801561078d57600080fd5b506107a860048036038101906107a3919061388b565b61281d565b005b3480156107b657600080fd5b506107d160048036038101906107cc919061388b565b612884565b6040516107de9190613fd5565b60405180910390f35b3480156107f357600080fd5b5061080e6004803603810190610809919061388b565b612b67565b005b34801561081c57600080fd5b5061083760048036038101906108329190613beb565b612bce565b6040516108449190613c2b565b60405180910390f35b34801561085957600080fd5b50610874600480360381019061086f919061388b565b612bff565b005b34801561088257600080fd5b5061089d60048036038101906108989190613f42565b612c66565b005b3480156108ab57600080fd5b506108b46133f4565b6040516108c19190613a3f565b60405180910390f35b3480156108d657600080fd5b506108df613418565b6040516108ec9190613a3f565b60405180910390f35b34801561090157600080fd5b5061091c6004803603810190610917919061388b565b61343c565b604051610929919061380b565b60405180910390f35b6060600a600083815260200190815260200160002080548060200260200160405190810160405280929190818152602001828054801561099157602002820191906000526020600020905b81548152602001906001019080831161097d575b50505050509050919050565b7fe61decff6e4a5c6b5a3d3cbd28f882e595173563b49353ce5f31dba2de7f05ee600e60008373ffffffffffffffffffffffffffffffffffffffff1673ffffffffffffffffffffffffffffffffffffffff1681526020019081526020016000208190555050565b6000806000806000806000606080600060606000600860008e815260200190815260200160002090506000600760008360010154815260200190815260200160002090506000600660008360010154815260200190815260200160002090508260000154836001015483600101548360020160009054906101000a900473ffffffffffffffffffffffffffffffffffffffff168560020160009054906101000a900473ffffffffffffffffffffffffffffffffffffffff168760020160009054906101000a900473ffffffffffffffffffffffffffffffffffffffff168860030160009054906101000a900473ffffffffffffffffffffffffffffffffffffffff1687600101886006018a600401548b600501838054610b2390614026565b80601f0160208091040260200160405190810160405280929190818152602001828054610b4f90614026565b8015610b9c5780601f10610b7157610100808354040283529160200191610b9c565b820191906000526020600020905b815481529060010190602001808311610b7f57829003601f168201915b50505050509350828054610baf90614026565b80601f0160208091040260200160405190810160405280929190818152602001828054610bdb90614026565b8015610c285780601f10610bfd57610100808354040283529160200191610c28565b820191906000526020600020905b815481529060010190602001808311610c0b57829003601f168201915b50505050509250808054610c3b90614026565b80601f0160208091040260200160405190810160405280929190818152602001828054610c6790614026565b8015610cb45780601f10610c8957610100808354040283529160200191610cb4565b820191906000526020600020905b815481529060010190602001808311610c9757829003601f168201915b505050505090509d509d509d509d509d509d509d509d509d509d509d5050505091939597999b90929496989a50565b6060600b60008373ffffffffffffffffffffffffffffffffffffffff1673ffffffffffffffffffffffffffffffffffffffff168152602001908152602001600020805480602002602001604051908101604052809291908181526020018280548015610d6e57602002820191906000526020600020905b815481526020019060010190808311610d5a575b50505050509050919050565b7f2a5f906c256a5d799494fcd066e1f6c077689de1cdb65052a1624de4bace99bf600e60008373ffffffffffffffffffffffffffffffffffffffff1673ffffffffffffffffffffffffffffffffffffffff1681526020019081526020016000208190555050565b7f2a5f906c256a5d799494fcd066e1f6c077689de1cdb65052a1624de4bace99bf81565b7fe61decff6e4a5c6b5a3d3cbd28f882e595173563b49353ce5f31dba2de7f05ee80600e60003373ffffffffffffffffffffffffffffffffffffffff1673ffffffffffffffffffffffffffffffffffffffff1681526020019081526020016000205414610ea7576040517f08c379a0000000000000000000000000000000000000000000000000000000008152600401610e9e906140a3565b60405180910390fd5b610eaf6134d3565b6000600660008581526020019081526020016000206040518061012001604052908160008201548152602001600182018054610eea90614026565b80601f0160208091040260200160405190810160405280929190818152602001828054610f1690614026565b8015610f635780601f10610f3857610100808354040283529160200191610f63565b820191906000526020600020905b815481529060010190602001808311610f4657829003601f168201915b505050505081526020016002820160009054906101000a900473ffffffffffffffffffffffffffffffffffffffff1673ffffffffffffffffffffffffffffffffffffffff1673ffffffffffffffffffffffffffffffffffffffff16815260200160038201548152602001600482018054610fdc90614026565b80601f016020809104026020016040519081016040528092919081815260200182805461100890614026565b80156110555780601f1061102a57610100808354040283529160200191611055565b820191906000526020600020905b81548152906001019060200180831161103857829003601f168201915b505050505081526020016005820154815260200160068201805461107890614026565b80601f01602080910402602001604051908101604052809291908181526020018280546110a490614026565b80156110f15780601f106110c6576101008083540402835291602001916110f1565b820191906000526020600020905b8154815290600101906020018083116110d457829003601f168201915b5050505050815260200160078201805461110a90614026565b80601f016020809104026020016040519081016040528092919081815260200182805461113690614026565b80156111835780601f1061115857610100808354040283529160200191611183565b820191906000526020600020905b81548152906001019060200180831161116657829003601f168201915b505050505081526020016008820160009054906101000a900460ff1660058111156111b1576111b0613c46565b5b60058111156111c3576111c2613c46565b5b815250509050600060058111156111dd576111dc613c46565b5b81610100015160058111156111f5576111f4613c46565b5b14611235576040517f08c379a000000000000000000000000000000000000000000000000000000000815260040161122c9061410f565b60405180910390fd5b828160e001819052503373ffffffffffffffffffffffffffffffffffffffff16847f5dcb18e08afb44f6a7c30f64fedf402df69f1649ca956b63cc1c065586f389af856040516112859190613fd5565b60405180910390a350505050565b600d60205281600052604060002081815481106112af57600080fd5b90600052602060002001600091509150505481565b60086020528060005260406000206000915090508060000154908060010154908060020160009054906101000a900473ffffffffffffffffffffffffffffffffffffffff16908060030160009054906101000a900473ffffffffffffffffffffffffffffffffffffffff16908060040154908060050160009054906101000a900460ff16905086565b7fa49807205ce4d355092ef5a8a18f56e8913cf4a201fbe287825b095693c2177580600e60003373ffffffffffffffffffffffffffffffffffffffff1673ffffffffffffffffffffffffffffffffffffffff16815260200190815260200160002054146113ef576040517f08c379a00000000000000000000000000000000000000000000000000000000081526004016113e6906140a3565b60405180910390fd5b6113f7613514565b50565b7f66108bb9ee7f804cb1c563794e51989792a366e4b648e4b2b9189d9587e1880d81565b7f66108bb9ee7f804cb1c563794e51989792a366e4b648e4b2b9189d9587e1880d80600e60003373ffffffffffffffffffffffffffffffffffffffff1673ffffffffffffffffffffffffffffffffffffffff16815260200190815260200160002054146114c0576040517f08c379a00000000000000000000000000000000000000000000000000000000081526004016114b7906140a3565b60405180910390fd5b6114c86134d3565b600160058111156114dc576114db613c46565b5b6007600085815260200190815260200160002060060160009054906101000a900460ff16600581111561151257611511613c46565b5b14611552576040517f08c379a00000000000000000000000000000000000000000000000000000000081526004016115499061417b565b60405180910390fd5b816007600085815260200190815260200160002060050190816115759190614347565b5060026007600085815260200190815260200160002060060160006101000a81548160ff021916908360058111156115b0576115af613c46565b5b0217905550816040516115c39190614455565b60405180910390203373ffffffffffffffffffffffffffffffffffffffff16847f9d753b365824c361cec419758c5f2b8546da1f4e90a776d5c7c0ca0a5141d34d60405160405180910390a4505050565b6000600160009054906101000a900460ff16905090565b60606009600083815260200190815260200160002080548060200260200160405190810160405280929190818152602001828054801561168a57602002820191906000526020600020905b815481526020019060010190808311611676575b50505050509050919050565b7ffbd454f36a7e1a388bd6fc3ab10d434aa4578f811acbbcf33afb1c697486313c80600e60003373ffffffffffffffffffffffffffffffffffffffff1673ffffffffffffffffffffffffffffffffffffffff1681526020019081526020016000205414611738576040517f08c379a000000000000000000000000000000000000000000000000000000000815260040161172f906140a3565b60405180910390fd5b6117406134d3565b6002600581111561175457611753613c46565b5b6007600084815260200190815260200160002060060160009054906101000a900460ff16600581111561178a57611789613c46565b5b146117ca576040517f08c379a00000000000000000000000000000000000000000000000000000000081526004016117c1906144de565b60405180910390fd5b60036007600084815260200190815260200160002060060160006101000a81548160ff0219169083600581111561180457611803613c46565b5b02179055503373ffffffffffffffffffffffffffffffffffffffff16827f1819b9d7d626ec3af4939bae99a343ea238d24bd02ab7d976f339a8fd158f37260405160405180910390a35050565b600660205280600052604060002060009150905080600001549080600101805461187a90614026565b80601f01602080910402602001604051908101604052809291908181526020018280546118a690614026565b80156118f35780601f106118c8576101008083540402835291602001916118f3565b820191906000526020600020905b8154815290600101906020018083116118d657829003601f168201915b5050505050908060020160009054906101000a900473ffffffffffffffffffffffffffffffffffffffff169080600301549080600401805461193490614026565b80601f016020809104026020016040519081016040528092919081815260200182805461196090614026565b80156119ad5780601f10611982576101008083540402835291602001916119ad565b820191906000526020600020905b81548152906001019060200180831161199057829003601f168201915b5050505050908060050154908060060180546119c890614026565b80601f01602080910402602001604051908101604052809291908181526020018280546119f490614026565b8015611a415780601f10611a1657610100808354040283529160200191611a41565b820191906000526020600020905b815481529060010190602001808311611a2457829003601f168201915b505050505090806007018054611a5690614026565b80601f0160208091040260200160405190810160405280929190818152602001828054611a8290614026565b8015611acf5780601f10611aa457610100808354040283529160200191611acf565b820191906000526020600020905b815481529060010190602001808311611ab257829003601f168201915b5050505050908060080160009054906101000a900460ff16905089565b7f46e0d1fa2be0423550e96859e7c25c6f3178358b189469f16373069e7f092a0a600e60008373ffffffffffffffffffffffffffffffffffffffff1673ffffffffffffffffffffffffffffffffffffffff1681526020019081526020016000208190555050565b7fa49807205ce4d355092ef5a8a18f56e8913cf4a201fbe287825b095693c2177581565b7f7c6181838a71a779e445600d4c6ecbe16bacf2b3c5bda69c29fada66d1b645d180600e60003373ffffffffffffffffffffffffffffffffffffffff1673ffffffffffffffffffffffffffffffffffffffff1681526020019081526020016000205414611c19576040517f08c379a0000000000000000000000000000000000000000000000000000000008152600401611c10906140a3565b60405180910390fd5b611c216134d3565b60008511611c64576040517f08c379a0000000000000000000000000000000000000000000000000000000008152600401611c5b90614570565b60405180910390fd5b60008311611ca7576040517f08c379a0000000000000000000000000000000000000000000000000000000008152600401611c9e90614602565b60405180910390fd5b60036000815480929190611cba90614651565b919050555060006003549050600060066000838152602001908152602001600020905081816000018190555087816001019081611cf79190614347565b50338160020160006101000a81548173ffffffffffffffffffffffffffffffffffffffff021916908373ffffffffffffffffffffffffffffffffffffffff16021790555086816003018190555085816004019081611d559190614347565b5084816005018190555083816006019081611d709190614347565b506040518060400160405280600481526020017f4e756c6c00000000000000000000000000000000000000000000000000000000815250816007019081611db79190614347565b5060008160080160006101000a81548160ff02191690836005811115611de057611ddf613c46565b5b0217905550600b60003373ffffffffffffffffffffffffffffffffffffffff1673ffffffffffffffffffffffffffffffffffffffff1681526020019081526020016000208290806001815401808255809150506001900390600052602060002001600090919091909150553373ffffffffffffffffffffffffffffffffffffffff16827f18eed3a83f740cd248edb7cb90d062bcba987e3a6296453dcb0e174c03ffe5a68a8a8a8a604051611e989493929190614699565b60405180910390a35050505050505050565b60076020528060005260406000206000915090508060000154908060010154908060020160009054906101000a900473ffffffffffffffffffffffffffffffffffffffff1690806003015490806004015490806005018054611f0b90614026565b80601f0160208091040260200160405190810160405280929190818152602001828054611f3790614026565b8015611f845780601f10611f5957610100808354040283529160200191611f84565b820191906000526020600020905b815481529060010190602001808311611f6757829003601f168201915b5050505050908060060160009054906101000a900460ff16905087565b7fe61decff6e4a5c6b5a3d3cbd28f882e595173563b49353ce5f31dba2de7f05ee81565b7fa49807205ce4d355092ef5a8a18f56e8913cf4a201fbe287825b095693c2177580600e60003373ffffffffffffffffffffffffffffffffffffffff1673ffffffffffffffffffffffffffffffffffffffff1681526020019081526020016000205414612067576040517f08c379a000000000000000000000000000000000000000000000000000000000815260040161205e906140a3565b60405180910390fd5b61206f613577565b50565b6009602052816000526040600020818154811061208e57600080fd5b90600052602060002001600091509150505481565b6060600c60008373ffffffffffffffffffffffffffffffffffffffff1673ffffffffffffffffffffffffffffffffffffffff16815260200190815260200160002080548060200260200160405190810160405280929190818152602001828054801561212e57602002820191906000526020600020905b81548152602001906001019080831161211a575b50505050509050919050565b600b602052816000526040600020818154811061215657600080fd5b90600052602060002001600091509150505481565b6121736135d9565b61217b6134d3565b6000600860008381526020019081526020016000209050600460058111156121a6576121a5613c46565b5b8160050160009054906101000a900460ff1660058111156121ca576121c9613c46565b5b1461220a576040517f08c379a000000000000000000000000000000000000000000000000000000000815260040161220190614738565b60405180910390fd5b8060040154341015612251576040517f08c379a0000000000000000000000000000000000000000000000000000000008152600401612248906147a4565b60405180910390fd5b338160030160006101000a81548173ffffffffffffffffffffffffffffffffffffffff021916908373ffffffffffffffffffffffffffffffffffffffff16021790555060058160050160006101000a81548160ff021916908360058111156122bc576122bb613c46565b5b02179055508060020160009054906101000a900473ffffffffffffffffffffffffffffffffffffffff1673ffffffffffffffffffffffffffffffffffffffff166108fc349081150290604051600060405180830381858888f1935050505015801561232b573d6000803e3d6000fd5b503373ffffffffffffffffffffffffffffffffffffffff16827fb8daedd8d8dd0484ed87158d972b26f7c77587ae180a436fd120692cf409d5c160405160405180910390a35061237961361f565b50565b7f2a5f906c256a5d799494fcd066e1f6c077689de1cdb65052a1624de4bace99bf80600e60003373ffffffffffffffffffffffffffffffffffffffff1673ffffffffffffffffffffffffffffffffffffffff168152602001908152602001600020541461241e576040517f08c379a0000000000000000000000000000000000000000000000000000000008152600401612415906140a3565b60405180910390fd5b6124266134d3565b6003600581111561243a57612439613c46565b5b6007600086815260200190815260200160002060060160009054906101000a900460ff1660058111156124705761246f613c46565b5b146124b0576040517f08c379a00000000000000000000000000000000000000000000000000000000081526004016124a790614836565b60405180910390fd5b8260076000868152602001908152602001600020600301541015612509576040517f08c379a0000000000000000000000000000000000000000000000000000000008152600401612500906148a2565b60405180910390fd5b6000831161254c576040517f08c379a000000000000000000000000000000000000000000000000000000000815260040161254390614570565b60405180910390fd5b6000821161258f576040517f08c379a000000000000000000000000000000000000000000000000000000000815260040161258690614602565b60405180910390fd5b60005b8381101561275a57600560008154809291906125ad90614651565b9190505550600060055490506000600860008381526020019081526020016000209050818160000181905550868160010181905550338160020160006101000a81548173ffffffffffffffffffffffffffffffffffffffff021916908373ffffffffffffffffffffffffffffffffffffffff16021790555084816004018190555060048160050160006101000a81548160ff0219169083600581111561265657612655613c46565b5b0217905550600a6000888152602001908152602001600020829080600181540180825580915050600190039060005260206000200160009091909190915055600d60003373ffffffffffffffffffffffffffffffffffffffff1673ffffffffffffffffffffffffffffffffffffffff1681526020019081526020016000208290806001815401808255809150506001900390600052602060002001600090919091909150553373ffffffffffffffffffffffffffffffffffffffff1687837f09d8d0427eee16da63ed3bdac07fab84ec34ee2daec6f697a705a2d57b430db5886040516127439190613c2b565b60405180910390a450508080600101915050612592565b508260076000868152602001908152602001600020600301600082825461278191906148c2565b9250508190555060006007600086815260200190815260200160002060030154036127e65760046007600086815260200190815260200160002060060160006101000a81548160ff021916908360058111156127e0576127df613c46565b5b02179055505b50505050565b600a602052816000526040600020818154811061280857600080fd5b90600052602060002001600091509150505481565b7f46e0d1fa2be0423550e96859e7c25c6f3178358b189469f16373069e7f092a0a600e60008373ffffffffffffffffffffffffffffffffffffffff1673ffffffffffffffffffffffffffffffffffffffff1681526020019081526020016000208190555050565b60606000600e60008473ffffffffffffffffffffffffffffffffffffffff1673ffffffffffffffffffffffffffffffffffffffff1681526020019081526020016000205490507f7c6181838a71a779e445600d4c6ecbe16bacf2b3c5bda69c29fada66d1b645d1810361292f576040518060400160405280600681526020017f4641524d45520000000000000000000000000000000000000000000000000000815250915050612b62565b7ffbd454f36a7e1a388bd6fc3ab10d434aa4578f811acbbcf33afb1c697486313c8103612994576040518060400160405280600b81526020017f4449535452494255544f52000000000000000000000000000000000000000000815250915050612b62565b7f7c6181838a71a779e445600d4c6ecbe16bacf2b3c5bda69c29fada66d1b645d181036129f9576040518060400160405280600681526020017f4641524d45520000000000000000000000000000000000000000000000000000815250915050612b62565b7fe61decff6e4a5c6b5a3d3cbd28f882e595173563b49353ce5f31dba2de7f05ee8103612a5e576040518060400160405280600981526020017f50524f434553534f520000000000000000000000000000000000000000000000815250915050612b62565b7f66108bb9ee7f804cb1c563794e51989792a366e4b648e4b2b9189d9587e1880d8103612ac3576040518060400160405280601181526020017f5155414c49545920494e53504543544f52000000000000000000000000000000815250915050612b62565b7fa49807205ce4d355092ef5a8a18f56e8913cf4a201fbe287825b095693c217758103612b28576040518060400160405280600581526020017f41444d494e000000000000000000000000000000000000000000000000000000815250915050612b62565b6040518060400160405280600881526020017f435553544f4d45520000000000000000000000000000000000000000000000008152509150505b919050565b7f7c6181838a71a779e445600d4c6ecbe16bacf2b3c5bda69c29fada66d1b645d1600e60008373ffffffffffffffffffffffffffffffffffffffff1673ffffffffffffffffffffffffffffffffffffffff1681526020019081526020016000208190555050565b600c6020528160005260406000208181548110612bea57600080fd5b90600052602060002001600091509150505481565b7f46e0d1fa2be0423550e96859e7c25c6f3178358b189469f16373069e7f092a0a600e60008373ffffffffffffffffffffffffffffffffffffffff1673ffffffffffffffffffffffffffffffffffffffff1681526020019081526020016000208190555050565b7fe61decff6e4a5c6b5a3d3cbd28f882e595173563b49353ce5f31dba2de7f05ee80600e60003373ffffffffffffffffffffffffffffffffffffffff1673ffffffffffffffffffffffffffffffffffffffff1681526020019081526020016000205414612d08576040517f08c379a0000000000000000000000000000000000000000000000000000000008152600401612cff906140a3565b60405180910390fd5b612d106134d3565b6000600660008581526020019081526020016000206040518061012001604052908160008201548152602001600182018054612d4b90614026565b80601f0160208091040260200160405190810160405280929190818152602001828054612d7790614026565b8015612dc45780601f10612d9957610100808354040283529160200191612dc4565b820191906000526020600020905b815481529060010190602001808311612da757829003601f168201915b505050505081526020016002820160009054906101000a900473ffffffffffffffffffffffffffffffffffffffff1673ffffffffffffffffffffffffffffffffffffffff1673ffffffffffffffffffffffffffffffffffffffff16815260200160038201548152602001600482018054612e3d90614026565b80601f0160208091040260200160405190810160405280929190818152602001828054612e6990614026565b8015612eb65780601f10612e8b57610100808354040283529160200191612eb6565b820191906000526020600020905b815481529060010190602001808311612e9957829003601f168201915b5050505050815260200160058201548152602001600682018054612ed990614026565b80601f0160208091040260200160405190810160405280929190818152602001828054612f0590614026565b8015612f525780601f10612f2757610100808354040283529160200191612f52565b820191906000526020600020905b815481529060010190602001808311612f3557829003601f168201915b50505050508152602001600782018054612f6b90614026565b80601f0160208091040260200160405190810160405280929190818152602001828054612f9790614026565b8015612fe45780601f10612fb957610100808354040283529160200191612fe4565b820191906000526020600020905b815481529060010190602001808311612fc757829003601f168201915b505050505081526020016008820160009054906101000a900460ff16600581111561301257613011613c46565b5b600581111561302457613023613c46565b5b8152505090506000600581111561303e5761303d613c46565b5b816101000151600581111561305657613055613c46565b5b14613096576040517f08c379a000000000000000000000000000000000000000000000000000000000815260040161308d90614968565b60405180910390fd5b82816060015110156130dd576040517f08c379a00000000000000000000000000000000000000000000000000000000081526004016130d4906149fa565b60405180910390fd5b60008311613120576040517f08c379a000000000000000000000000000000000000000000000000000000000815260040161311790614570565b60405180910390fd5b6004600081548092919061313390614651565b919050555060006004549050613147613671565b818160000181815250508581602001818152505033816040019073ffffffffffffffffffffffffffffffffffffffff16908173ffffffffffffffffffffffffffffffffffffffff1681525050848160600181815250504281608001818152505060018160c0019060058111156131c0576131bf613c46565b5b908160058111156131d4576131d3613c46565b5b8152505084836060018181516131ea91906148c2565b915081815250506000836060015103613230576001836101000190600581111561321757613216613c46565b5b9081600581111561322b5761322a613c46565b5b815250505b60096000878152602001908152602001600020829080600181540180825580915050600190039060005260206000200160009091909190915055600c60003373ffffffffffffffffffffffffffffffffffffffff1673ffffffffffffffffffffffffffffffffffffffff1681526020019081526020016000208290806001815401808255809150506001900390600052602060002001600090919091909150558060076000848152602001908152602001600020600082015181600001556020820151816001015560408201518160020160006101000a81548173ffffffffffffffffffffffffffffffffffffffff021916908373ffffffffffffffffffffffffffffffffffffffff160217905550606082015181600301556080820151816004015560a08201518160050190816133689190614347565b5060c08201518160060160006101000a81548160ff0219169083600581111561339457613393613c46565b5b02179055509050503373ffffffffffffffffffffffffffffffffffffffff1686837f92c981022a3bd4ed54ac117f382b68f33b33d9ed49bb71d7d33607fe7dc9f385886040516133e49190613c2b565b60405180910390a4505050505050565b7ffbd454f36a7e1a388bd6fc3ab10d434aa4578f811acbbcf33afb1c697486313c81565b7f7c6181838a71a779e445600d4c6ecbe16bacf2b3c5bda69c29fada66d1b645d181565b6060600d60008373ffffffffffffffffffffffffffffffffffffffff1673ffffffffffffffffffffffffffffffffffffffff1681526020019081526020016000208054806020026020016040519081016040528092919081815260200182805480156134c757602002820191906000526020600020905b8154815260200190600101908083116134b3575b50505050509050919050565b6134db611614565b15613512576040517fd93c066500000000000000000000000000000000000000000000000000000000815260040160405180910390fd5b565b61351c613629565b6000600160006101000a81548160ff0219169083151502179055507f5db9ee0a495bf2e6ff9c91a7834c1ba4fdd244a5e8aa4e537bd38aeae4b073aa613560613669565b60405161356d9190614a1a565b60405180910390a1565b61357f6134d3565b60018060006101000a81548160ff0219169083151502179055507f62e78cea01bee320cd4e420270b5ea74000d11b0c9f74754ebdbfc544b05a2586135c2613669565b6040516135cf9190614a1a565b60405180910390a1565b600260005403613615576040517f3ee5aeb500000000000000000000000000000000000000000000000000000000815260040160405180910390fd5b6002600081905550565b6001600081905550565b613631611614565b613667576040517f8dfc202b00000000000000000000000000000000000000000000000000000000815260040160405180910390fd5b565b600033905090565b6040518060e001604052806000815260200160008152602001600073ffffffffffffffffffffffffffffffffffffffff168152602001600081526020016000815260200160608152602001600060058111156136d0576136cf613c46565b5b81525090565b6000604051905090565b600080fd5b600080fd5b6000819050919050565b6136fd816136ea565b811461370857600080fd5b50565b60008135905061371a816136f4565b92915050565b600060208284031215613736576137356136e0565b5b60006137448482850161370b565b91505092915050565b600081519050919050565b600082825260208201905092915050565b6000819050602082019050919050565b613782816136ea565b82525050565b60006137948383613779565b60208301905092915050565b6000602082019050919050565b60006137b88261374d565b6137c28185613758565b93506137cd83613769565b8060005b838110156137fe5781516137e58882613788565b97506137f0836137a0565b9250506001810190506137d1565b5085935050505092915050565b6000602082019050818103600083015261382581846137ad565b905092915050565b600073ffffffffffffffffffffffffffffffffffffffff82169050919050565b60006138588261382d565b9050919050565b6138688161384d565b811461387357600080fd5b50565b6000813590506138858161385f565b92915050565b6000602082840312156138a1576138a06136e0565b5b60006138af84828501613876565b91505092915050565b6138c1816136ea565b82525050565b6138d08161384d565b82525050565b600081519050919050565b600082825260208201905092915050565b60005b838110156139105780820151818401526020810190506138f5565b60008484015250505050565b6000601f19601f8301169050919050565b6000613938826138d6565b61394281856138e1565b93506139528185602086016138f2565b61395b8161391c565b840191505092915050565b60006101608201905061397c600083018e6138b8565b613989602083018d6138b8565b613996604083018c6138b8565b6139a3606083018b6138c7565b6139b0608083018a6138c7565b6139bd60a08301896138c7565b6139ca60c08301886138c7565b81810360e08301526139dc818761392d565b90508181036101008301526139f1818661392d565b9050613a016101208301856138b8565b818103610140830152613a14818461392d565b90509c9b505050505050505050505050565b6000819050919050565b613a3981613a26565b82525050565b6000602082019050613a546000830184613a30565b92915050565b600080fd5b600080fd5b7f4e487b7100000000000000000000000000000000000000000000000000000000600052604160045260246000fd5b613a9c8261391c565b810181811067ffffffffffffffff82111715613abb57613aba613a64565b5b80604052505050565b6000613ace6136d6565b9050613ada8282613a93565b919050565b600067ffffffffffffffff821115613afa57613af9613a64565b5b613b038261391c565b9050602081019050919050565b82818337600083830152505050565b6000613b32613b2d84613adf565b613ac4565b905082815260208101848484011115613b4e57613b4d613a5f565b5b613b59848285613b10565b509392505050565b600082601f830112613b7657613b75613a5a565b5b8135613b86848260208601613b1f565b91505092915050565b60008060408385031215613ba657613ba56136e0565b5b6000613bb48582860161370b565b925050602083013567ffffffffffffffff811115613bd557613bd46136e5565b5b613be185828601613b61565b9150509250929050565b60008060408385031215613c0257613c016136e0565b5b6000613c1085828601613876565b9250506020613c218582860161370b565b9150509250929050565b6000602082019050613c4060008301846138b8565b92915050565b7f4e487b7100000000000000000000000000000000000000000000000000000000600052602160045260246000fd5b60068110613c8657613c85613c46565b5b50565b6000819050613c9782613c75565b919050565b6000613ca782613c89565b9050919050565b613cb781613c9c565b82525050565b600060c082019050613cd260008301896138b8565b613cdf60208301886138b8565b613cec60408301876138c7565b613cf960608301866138c7565b613d0660808301856138b8565b613d1360a0830184613cae565b979650505050505050565b60008115159050919050565b613d3381613d1e565b82525050565b6000602082019050613d4e6000830184613d2a565b92915050565b600061012082019050613d6a600083018c6138b8565b8181036020830152613d7c818b61392d565b9050613d8b604083018a6138c7565b613d9860608301896138b8565b8181036080830152613daa818861392d565b9050613db960a08301876138b8565b81810360c0830152613dcb818661392d565b905081810360e0830152613ddf818561392d565b9050613def610100830184613cae565b9a9950505050505050505050565b600080600080600060a08688031215613e1957613e186136e0565b5b600086013567ffffffffffffffff811115613e3757613e366136e5565b5b613e4388828901613b61565b9550506020613e548882890161370b565b945050604086013567ffffffffffffffff811115613e7557613e746136e5565b5b613e8188828901613b61565b9350506060613e928882890161370b565b925050608086013567ffffffffffffffff811115613eb357613eb26136e5565b5b613ebf88828901613b61565b9150509295509295909350565b600060e082019050613ee1600083018a6138b8565b613eee60208301896138b8565b613efb60408301886138c7565b613f0860608301876138b8565b613f1560808301866138b8565b81810360a0830152613f27818561392d565b9050613f3660c0830184613cae565b98975050505050505050565b60008060408385031215613f5957613f586136e0565b5b6000613f678582860161370b565b9250506020613f788582860161370b565b9150509250929050565b600080600060608486031215613f9b57613f9a6136e0565b5b6000613fa98682870161370b565b9350506020613fba8682870161370b565b9250506040613fcb8682870161370b565b9150509250925092565b60006020820190508181036000830152613fef818461392d565b905092915050565b7f4e487b7100000000000000000000000000000000000000000000000000000000600052602260045260246000fd5b6000600282049050600182168061403e57607f821691505b60208210810361405157614050613ff7565b5b50919050565b7f756e617574686f72697a65642063616c6c657200000000000000000000000000600082015250565b600061408d6013836138e1565b915061409882614057565b602082019050919050565b600060208201905081810360008301526140bc81614080565b9050919050565b7f535570706c696573206d75737420626520726567697374657265640000000000600082015250565b60006140f9601b836138e1565b9150614104826140c3565b602082019050919050565b60006020820190508181036000830152614128816140ec565b9050919050565b7f4261746368206d75737420626520696e2050726f636573736564207374617465600082015250565b60006141656020836138e1565b91506141708261412f565b602082019050919050565b6000602082019050818103600083015261419481614158565b9050919050565b60008190508160005260206000209050919050565b60006020601f8301049050919050565b600082821b905092915050565b6000600883026141fd7fffffffffffffffffffffffffffffffffffffffffffffffffffffffffffffffff826141c0565b61420786836141c0565b95508019841693508086168417925050509392505050565b6000819050919050565b600061424461423f61423a846136ea565b61421f565b6136ea565b9050919050565b6000819050919050565b61425e83614229565b61427261426a8261424b565b8484546141cd565b825550505050565b600090565b61428761427a565b614292818484614255565b505050565b5b818110156142b6576142ab60008261427f565b600181019050614298565b5050565b601f8211156142fb576142cc8161419b565b6142d5846141b0565b810160208510156142e4578190505b6142f86142f0856141b0565b830182614297565b50505b505050565b600082821c905092915050565b600061431e60001984600802614300565b1980831691505092915050565b6000614337838361430d565b9150826002028217905092915050565b614350826138d6565b67ffffffffffffffff81111561436957614368613a64565b5b6143738254614026565b61437e8282856142ba565b600060209050601f8311600181146143b1576000841561439f578287015190505b6143a9858261432b565b865550614411565b601f1984166143bf8661419b565b60005b828110156143e7578489015182556001820191506020850194506020810190506143c2565b868310156144045784890151614400601f89168261430d565b8355505b6001600288020188555050505b505050505050565b600081905092915050565b600061442f826138d6565b6144398185614419565b93506144498185602086016138f2565b80840191505092915050565b60006144618284614424565b915081905092915050565b7f4261746368206d75737420626520696e205175616c697479436865636b65642060008201527f7374617465000000000000000000000000000000000000000000000000000000602082015250565b60006144c86025836138e1565b91506144d38261446c565b604082019050919050565b600060208201905081810360008301526144f7816144bb565b9050919050565b7f5175616e74697479206d7573742062652067726561746572207468616e207a6560008201527f726f000000000000000000000000000000000000000000000000000000000000602082015250565b600061455a6022836138e1565b9150614565826144fe565b604082019050919050565b600060208201905081810360008301526145898161454d565b9050919050565b7f50726963652070657220756e6974206d7573742062652067726561746572207460008201527f68616e207a65726f000000000000000000000000000000000000000000000000602082015250565b60006145ec6028836138e1565b91506145f782614590565b604082019050919050565b6000602082019050818103600083015261461b816145df565b9050919050565b7f4e487b7100000000000000000000000000000000000000000000000000000000600052601160045260246000fd5b600061465c826136ea565b91507fffffffffffffffffffffffffffffffffffffffffffffffffffffffffffffffff820361468e5761468d614622565b5b600182019050919050565b600060808201905081810360008301526146b3818761392d565b90506146c260208301866138b8565b81810360408301526146d4818561392d565b90506146e360608301846138b8565b95945050505050565b7f556e6974206d75737420626520696e2052657461696c65642073746174650000600082015250565b6000614722601e836138e1565b915061472d826146ec565b602082019050919050565b6000602082019050818103600083015261475181614715565b9050919050565b7f496e73756666696369656e74207061796d656e74000000000000000000000000600082015250565b600061478e6014836138e1565b915061479982614758565b602082019050919050565b600060208201905081810360008301526147bd81614781565b9050919050565b7f4261746368206d75737420626520696e2044697374726962757465642073746160008201527f7465000000000000000000000000000000000000000000000000000000000000602082015250565b60006148206022836138e1565b915061482b826147c4565b604082019050919050565b6000602082019050818103600083015261484f81614813565b9050919050565b7f496e73756666696369656e74207175616e7469747920696e2062617463680000600082015250565b600061488c601e836138e1565b915061489782614856565b602082019050919050565b600060208201905081810360008301526148bb8161487f565b9050919050565b60006148cd826136ea565b91506148d8836136ea565b92508282039050818111156148f0576148ef614622565b5b92915050565b7f42756c6b20737570706c79206d75737420626520696e2052656769737465726560008201527f6420737461746500000000000000000000000000000000000000000000000000602082015250565b60006149526027836138e1565b915061495d826148f6565b604082019050919050565b6000602082019050818103600083015261498181614945565b9050919050565b7f496e73756666696369656e74207175616e7469747920696e2062756c6b20737560008201527f70706c7900000000000000000000000000000000000000000000000000000000602082015250565b60006149e46024836138e1565b91506149ef82614988565b604082019050919050565b60006020820190508181036000830152614a13816149d7565b9050919050565b6000602082019050614a2f60008301846138c7565b9291505056fea26469706673582212207d1cb648f0b7c372eede37da3084eef2167a8cdfc8166fc8bb0808db9519a7ad64736f6c634300081b0033",
  "linkReferences": {},
  "deployedLinkReferences": {}
}