{
  "_format": "hh-sol-artifact-1",
  "contractName": "FarmSupplyChain",
  "sourceName": "contracts/FarmSupplyChain.sol",
  "abi": [
    {
      "inputs": [],
      "stateMutability": "nonpayable",
      "type": "constructor"
    },
    {
      "inputs": [],
      "name": "EnforcedPause",
      "type": "error"
    },
    {
      "inputs": [],
      "name": "ExpectedPause",
      "type": "error"
    },
    {
      "inputs": [],
      "name": "ReentrancyGuardReentrantCall",
      "type": "error"
    },
    {
      "anonymous": false,
      "inputs": [
        {
          "indexed": false,
          "internalType": "uint256",
          "name": "id",
          "type": "uint256"
        },
        {
          "indexed": false,
          "internalType": "address",
          "name": "distributor",
          "type": "address"
        }
      ],
      "name": "BatchDistributed",
      "type": "event"
    },
    {
      "anonymous": false,
      "inputs": [
        {
          "indexed": false,
          "internalType": "uint256",
          "name": "id",
          "type": "uint256"
        },
        {
          "indexed": false,
          "internalType": "uint256",
          "name": "bulkSupplyId",
          "type": "uint256"
        },
        {
          "indexed": false,
          "internalType": "address",
          "name": "processor",
          "type": "address"
        },
        {
          "indexed": false,
          "internalType": "uint256",
          "name": "quantity",
          "type": "uint256"
        }
      ],
      "name": "BatchProcessed",
      "type": "event"
    },
    {
      "anonymous": false,
      "inputs": [
        {
          "indexed": false,
          "internalType": "uint256",
          "name": "id",
          "type": "uint256"
        },
        {
          "indexed": false,
          "internalType": "address",
          "name": "inspector",
          "type": "address"
        },
        {
          "indexed": false,
          "internalType": "string",
          "name": "qualityGrade",
          "type": "string"
        }
      ],
      "name": "BatchQualityChecked",
      "type": "event"
    },
    {
      "anonymous": false,
      "inputs": [
        {
          "indexed": false,
          "internalType": "uint256",
          "name": "id",
          "type": "uint256"
        },
        {
          "indexed": false,
          "internalType": "string",
          "name": "name",
          "type": "string"
        },
        {
          "indexed": false,
          "internalType": "address",
          "name": "farmer",
          "type": "address"
        },
        {
          "indexed": false,
          "internalType": "uint256",
          "name": "quantity",
          "type": "uint256"
        },
        {
          "indexed": false,
          "internalType": "string",
          "name": "unit",
          "type": "string"
        },
        {
          "indexed": false,
          "internalType": "uint256",
          "name": "pricePerUnit",
          "type": "uint256"
        }
      ],
      "name": "BulkSupplyRegistered",
      "type": "event"
    },
    {
      "anonymous": false,
      "inputs": [
        {
          "indexed": false,
          "internalType": "address",
          "name": "account",
          "type": "address"
        }
      ],
      "name": "Paused",
      "type": "event"
    },
    {
      "anonymous": false,
      "inputs": [
        {
          "indexed": false,
          "internalType": "uint256",
          "name": "id",
          "type": "uint256"
        },
        {
          "indexed": false,
          "internalType": "uint256",
          "name": "batchId",
          "type": "uint256"
        },
        {
          "indexed": false,
          "internalType": "address",
          "name": "retailer",
          "type": "address"
        },
        {
          "indexed": false,
          "internalType": "uint256",
          "name": "price",
          "type": "uint256"
        }
      ],
      "name": "UnitRetailed",
      "type": "event"
    },
    {
      "anonymous": false,
      "inputs": [
        {
          "indexed": false,
          "internalType": "uint256",
          "name": "id",
          "type": "uint256"
        },
        {
          "indexed": false,
          "internalType": "address",
          "name": "consumer",
          "type": "address"
        }
      ],
      "name": "UnitSold",
      "type": "event"
    },
    {
      "anonymous": false,
      "inputs": [
        {
          "indexed": false,
          "internalType": "address",
          "name": "account",
          "type": "address"
        }
      ],
      "name": "Unpaused",
      "type": "event"
    },
    {
      "inputs": [],
      "name": "ADMIN_ROLE",
      "outputs": [
        {
          "internalType": "bytes32",
          "name": "",
          "type": "bytes32"
        }
      ],
      "stateMutability": "view",
      "type": "function"
    },
    {
      "inputs": [],
      "name": "DISTRIBUTOR_ROLE",
      "outputs": [
        {
          "internalType": "bytes32",
          "name": "",
          "type": "bytes32"
        }
      ],
      "stateMutability": "view",
      "type": "function"
    },
    {
      "inputs": [],
      "name": "FARMER_ROLE",
      "outputs": [
        {
          "internalType": "bytes32",
          "name": "",
          "type": "bytes32"
        }
      ],
      "stateMutability": "view",
      "type": "function"
    },
    {
      "inputs": [],
      "name": "PROCESSOR_ROLE",
      "outputs": [
        {
          "internalType": "bytes32",
          "name": "",
          "type": "bytes32"
        }
      ],
      "stateMutability": "view",
      "type": "function"
    },
    {
      "inputs": [],
      "name": "QUALITY_INSPECTOR_ROLE",
      "outputs": [
        {
          "internalType": "bytes32",
          "name": "",
          "type": "bytes32"
        }
      ],
      "stateMutability": "view",
      "type": "function"
    },
    {
      "inputs": [],
      "name": "RETAILER_ROLE",
      "outputs": [
        {
          "internalType": "bytes32",
          "name": "",
          "type": "bytes32"
        }
      ],
      "stateMutability": "view",
      "type": "function"
    },
    {
      "inputs": [
        {
          "internalType": "uint256",
          "name": "",
          "type": "uint256"
        },
        {
          "internalType": "uint256",
          "name": "",
          "type": "uint256"
        }
      ],
      "name": "batchToUnits",
      "outputs": [
        {
          "internalType": "uint256",
          "name": "",
          "type": "uint256"
        }
      ],
      "stateMutability": "view",
      "type": "function"
    },
    {
      "inputs": [
        {
          "internalType": "uint256",
          "name": "",
          "type": "uint256"
        }
      ],
      "name": "bulkSupplies",
      "outputs": [
        {
          "internalType": "uint256",
          "name": "id",
          "type": "uint256"
        },
        {
          "internalType": "string",
          "name": "name",
          "type": "string"
        },
        {
          "internalType": "address",
          "name": "farmer",
          "type": "address"
        },
        {
          "internalType": "uint256",
          "name": "quantity",
          "type": "uint256"
        },
        {
          "internalType": "string",
          "name": "unit",
          "type": "string"
        },
        {
          "internalType": "uint256",
          "name": "pricePerUnit",
          "type": "uint256"
        },
        {
          "internalType": "string",
          "name": "originLocation",
          "type": "string"
        },
        {
          "internalType": "uint256",
          "name": "harvestDate",
          "type": "uint256"
        },
        {
          "internalType": "enum IFarmSupplyChain.SupplyState",
          "name": "state",
          "type": "uint8"
        }
      ],
      "stateMutability": "view",
      "type": "function"
    },
    {
      "inputs": [
        {
          "internalType": "uint256",
          "name": "",
          "type": "uint256"
        },
        {
          "internalType": "uint256",
          "name": "",
          "type": "uint256"
        }
      ],
      "name": "bulkSupplyToBatches",
      "outputs": [
        {
          "internalType": "uint256",
          "name": "",
          "type": "uint256"
        }
      ],
      "stateMutability": "view",
      "type": "function"
    },
    {
      "inputs": [
        {
          "internalType": "uint256",
          "name": "_batchId",
          "type": "uint256"
        },
        {
          "internalType": "string",
          "name": "_qualityGrade",
          "type": "string"
        }
      ],
      "name": "checkBatchQuality",
      "outputs": [],
      "stateMutability": "nonpayable",
      "type": "function"
    },
    {
      "inputs": [
        {
          "internalType": "address",
          "name": "_farmer",
          "type": "address"
        }
      ],
      "name": "createFarmer",
      "outputs": [],
      "stateMutability": "nonpayable",
      "type": "function"
    },
    {
      "inputs": [
        {
          "internalType": "address",
          "name": "_processor",
          "type": "address"
        }
      ],
      "name": "createProcessor",
      "outputs": [],
      "stateMutability": "nonpayable",
      "type": "function"
    },
    {
      "inputs": [
        {
          "internalType": "uint256",
          "name": "_batchId",
          "type": "uint256"
        },
        {
          "internalType": "uint256",
          "name": "_quantity",
          "type": "uint256"
        },
        {
          "internalType": "uint256",
          "name": "_pricePerUnit",
          "type": "uint256"
        }
      ],
      "name": "createRetailUnits",
      "outputs": [],
      "stateMutability": "nonpayable",
      "type": "function"
    },
    {
      "inputs": [
        {
          "internalType": "address",
          "name": "_retailer",
          "type": "address"
        }
      ],
      "name": "createRetailer",
      "outputs": [],
      "stateMutability": "nonpayable",
      "type": "function"
    },
    {
      "inputs": [
        {
          "internalType": "uint256",
          "name": "_batchId",
          "type": "uint256"
        }
      ],
      "name": "distributeBatch",
      "outputs": [],
      "stateMutability": "nonpayable",
      "type": "function"
    },
    {
      "inputs": [
        {
          "internalType": "address",
          "name": "",
          "type": "address"
        },
        {
          "internalType": "uint256",
          "name": "",
          "type": "uint256"
        }
      ],
      "name": "farmerSupplies",
      "outputs": [
        {
          "internalType": "uint256",
          "name": "",
          "type": "uint256"
        }
      ],
      "stateMutability": "view",
      "type": "function"
    },
    {
      "inputs": [
        {
          "internalType": "uint256",
          "name": "_batchId",
          "type": "uint256"
        }
      ],
      "name": "getBatchUnits",
      "outputs": [
        {
          "internalType": "uint256[]",
          "name": "",
          "type": "uint256[]"
        }
      ],
      "stateMutability": "view",
      "type": "function"
    },
    {
      "inputs": [
        {
          "internalType": "uint256",
          "name": "_bulkSupplyId",
          "type": "uint256"
        }
      ],
      "name": "getBulkSupplyBatches",
      "outputs": [
        {
          "internalType": "uint256[]",
          "name": "",
          "type": "uint256[]"
        }
      ],
      "stateMutability": "view",
      "type": "function"
    },
    {
      "inputs": [
        {
          "internalType": "address",
          "name": "_farmer",
          "type": "address"
        }
      ],
      "name": "getFarmerSupplies",
      "outputs": [
        {
          "internalType": "uint256[]",
          "name": "",
          "type": "uint256[]"
        }
      ],
      "stateMutability": "view",
      "type": "function"
    },
    {
      "inputs": [
        {
          "internalType": "address",
          "name": "_processor",
          "type": "address"
        }
      ],
      "name": "getProcessorBatches",
      "outputs": [
        {
          "internalType": "uint256[]",
          "name": "",
          "type": "uint256[]"
        }
      ],
      "stateMutability": "view",
      "type": "function"
    },
    {
      "inputs": [
        {
          "internalType": "address",
          "name": "_retailer",
          "type": "address"
        }
      ],
      "name": "getRetailerUnits",
      "outputs": [
        {
          "internalType": "uint256[]",
          "name": "",
          "type": "uint256[]"
        }
      ],
      "stateMutability": "view",
      "type": "function"
    },
    {
      "inputs": [
        {
          "internalType": "uint256",
          "name": "_unitId",
          "type": "uint256"
        }
      ],
      "name": "getUnitHistory",
      "outputs": [
        {
          "internalType": "uint256",
          "name": "unitId",
          "type": "uint256"
        },
        {
          "internalType": "uint256",
          "name": "batchId",
          "type": "uint256"
        },
        {
          "internalType": "uint256",
          "name": "bulkSupplyId",
          "type": "uint256"
        },
        {
          "internalType": "address",
          "name": "farmer",
          "type": "address"
        },
        {
          "internalType": "address",
          "name": "processor",
          "type": "address"
        },
        {
          "internalType": "address",
          "name": "retailer",
          "type": "address"
        },
        {
          "internalType": "address",
          "name": "consumer",
          "type": "address"
        },
        {
          "internalType": "string",
          "name": "productName",
          "type": "string"
        },
        {
          "internalType": "string",
          "name": "originLocation",
          "type": "string"
        },
        {
          "internalType": "uint256",
          "name": "harvestDate",
          "type": "uint256"
        },
        {
          "internalType": "uint256",
          "name": "processingDate",
          "type": "uint256"
        },
        {
          "internalType": "string",
          "name": "qualityGrade",
          "type": "string"
        }
      ],
      "stateMutability": "view",
      "type": "function"
    },
    {
      "inputs": [],
      "name": "pause",
      "outputs": [],
      "stateMutability": "nonpayable",
      "type": "function"
    },
    {
      "inputs": [],
      "name": "paused",
      "outputs": [
        {
          "internalType": "bool",
          "name": "",
          "type": "bool"
        }
      ],
      "stateMutability": "view",
      "type": "function"
    },
    {
      "inputs": [
        {
          "internalType": "uint256",
          "name": "_bulkSupplyId",
          "type": "uint256"
        },
        {
          "internalType": "uint256",
          "name": "_quantity",
          "type": "uint256"
        }
      ],
      "name": "processBatch",
      "outputs": [],
      "stateMutability": "nonpayable",
      "type": "function"
    },
    {
      "inputs": [
        {
          "internalType": "uint256",
          "name": "",
          "type": "uint256"
        }
      ],
      "name": "processedBatches",
      "outputs": [
        {
          "internalType": "uint256",
          "name": "id",
          "type": "uint256"
        },
        {
          "internalType": "uint256",
          "name": "bulkSupplyId",
          "type": "uint256"
        },
        {
          "internalType": "address",
          "name": "processor",
          "type": "address"
        },
        {
          "internalType": "uint256",
          "name": "quantity",
          "type": "uint256"
        },
        {
          "internalType": "uint256",
          "name": "processingDate",
          "type": "uint256"
        },
        {
          "internalType": "string",
          "name": "qualityGrade",
          "type": "string"
        },
        {
          "internalType": "enum IFarmSupplyChain.SupplyState",
          "name": "state",
          "type": "uint8"
        }
      ],
      "stateMutability": "view",
      "type": "function"
    },
    {
      "inputs": [
        {
          "internalType": "address",
          "name": "",
          "type": "address"
        },
        {
          "internalType": "uint256",
          "name": "",
          "type": "uint256"
        }
      ],
      "name": "processorBatches",
      "outputs": [
        {
          "internalType": "uint256",
          "name": "",
          "type": "uint256"
        }
      ],
      "stateMutability": "view",
      "type": "function"
    },
    {
      "inputs": [
        {
          "internalType": "string",
          "name": "_name",
          "type": "string"
        },
        {
          "internalType": "uint256",
          "name": "_quantity",
          "type": "uint256"
        },
        {
          "internalType": "string",
          "name": "_unit",
          "type": "string"
        },
        {
          "internalType": "uint256",
          "name": "_pricePerUnit",
          "type": "uint256"
        },
        {
          "internalType": "string",
          "name": "_originLocation",
          "type": "string"
        },
        {
          "internalType": "uint256",
          "name": "_harvestDate",
          "type": "uint256"
        }
      ],
      "name": "registerBulkSupply",
      "outputs": [],
      "stateMutability": "nonpayable",
      "type": "function"
    },
    {
      "inputs": [
        {
          "internalType": "address",
          "name": "_farmer",
          "type": "address"
        }
      ],
      "name": "removeFarmer",
      "outputs": [],
      "stateMutability": "nonpayable",
      "type": "function"
    },
    {
      "inputs": [
        {
          "internalType": "address",
          "name": "_processor",
          "type": "address"
        }
      ],
      "name": "removeProcessor",
      "outputs": [],
      "stateMutability": "nonpayable",
      "type": "function"
    },
    {
      "inputs": [
        {
          "internalType": "address",
          "name": "_retailer",
          "type": "address"
        }
      ],
      "name": "removeRetailer",
      "outputs": [],
      "stateMutability": "nonpayable",
      "type": "function"
    },
    {
      "inputs": [
        {
          "internalType": "uint256",
          "name": "",
          "type": "uint256"
        }
      ],
      "name": "retailUnits",
      "outputs": [
        {
          "internalType": "uint256",
          "name": "id",
          "type": "uint256"
        },
        {
          "internalType": "uint256",
          "name": "batchId",
          "type": "uint256"
        },
        {
          "internalType": "address",
          "name": "retailer",
          "type": "address"
        },
        {
          "internalType": "address",
          "name": "consumer",
          "type": "address"
        },
        {
          "internalType": "uint256",
          "name": "price",
          "type": "uint256"
        },
        {
          "internalType": "enum IFarmSupplyChain.SupplyState",
          "name": "state",
          "type": "uint8"
        }
      ],
      "stateMutability": "view",
      "type": "function"
    },
    {
      "inputs": [
        {
          "internalType": "address",
          "name": "",
          "type": "address"
        },
        {
          "internalType": "uint256",
          "name": "",
          "type": "uint256"
        }
      ],
      "name": "retailerUnits",
      "outputs": [
        {
          "internalType": "uint256",
          "name": "",
          "type": "uint256"
        }
      ],
      "stateMutability": "view",
      "type": "function"
    },
    {
      "inputs": [
        {
          "internalType": "address",
          "name": "_account",
          "type": "address"
        }
      ],
      "name": "role",
      "outputs": [
        {
          "internalType": "string",
          "name": "",
          "type": "string"
        }
      ],
      "stateMutability": "view",
      "type": "function"
    },
    {
      "inputs": [
        {
          "internalType": "uint256",
          "name": "_unitId",
          "type": "uint256"
        }
      ],
      "name": "sellUnit",
      "outputs": [],
      "stateMutability": "payable",
      "type": "function"
    },
    {
      "inputs": [],
      "name": "unpause",
      "outputs": [],
      "stateMutability": "nonpayable",
      "type": "function"
    }
  ],
  "bytecode": "0x6080604052348015600f57600080fd5b5060016000819055506000600160006101000a81548160ff02191690831515021790555060766040518060400160405280600a81526020017f41444d494e5f524f4c450000000000000000000000000000000000000000000081525033607a60201b60201c565b607e565b5050565b61419f8061008d6000396000f3fe60806040526004361061020f5760003560e01c80637ee35ef311610118578063d2ef4f3b116100a0578063e6bf3fdc1161006f578063e6bf3fdc1461081a578063ec0030f514610843578063f0bd87cc1461086c578063f394397014610897578063fdbb7964146108c25761020f565b8063d2ef4f3b1461074e578063d590f8c914610777578063e4572019146107b4578063e581c491146107dd5761020f565b80639560419f116100e75780639560419f1461065257806395f2e02f1461068f578063b742a751146106cc578063b7449d0d146106e8578063c3163488146107115761020f565b80637ee35ef3146105905780638222bdb2146105d35780638456cb59146105fe57806386ce7509146106155761020f565b80633f4ba83a1161019b57806368a22ee01161016a57806368a22ee0146104915780636a131175146104ce5780636a4e5cf7146104f757806370099ec81461053c57806375b238fc146105655761020f565b80633f4ba83a146103fb5780634e20c36214610412578063551919451461043d5780635c975abb146104665761020f565b80631cbef6ba116101e25780631cbef6ba146102eb57806320331350146103285780632115e7bf14610351578063345b2bec1461037c5780633b510b1d146103b95761020f565b80630866b86b14610214578063112ab78a1461025157806314278d061461027a578063187f0df6146102a3575b600080fd5b34801561022057600080fd5b5061023b60048036038101906102369190612d9f565b6108ff565b6040516102489190612e8a565b60405180910390f35b34801561025d57600080fd5b5061027860048036038101906102739190612f0a565b61096a565b005b34801561028657600080fd5b506102a1600480360381019061029c919061307d565b6109d1565b005b3480156102af57600080fd5b506102ca60048036038101906102c59190612d9f565b610cf6565b6040516102e29c9b9a999897969594939291906131fb565b60405180910390f35b3480156102f757600080fd5b50610312600480360381019061030d9190612f0a565b610fdd565b60405161031f9190612e8a565b60405180910390f35b34801561033457600080fd5b5061034f600480360381019061034a9190612f0a565b611074565b005b34801561035d57600080fd5b506103666110db565b60405161037391906132e3565b60405180910390f35b34801561038857600080fd5b506103a3600480360381019061039e91906132fe565b6110ff565b6040516103b0919061333e565b60405180910390f35b3480156103c557600080fd5b506103e060048036038101906103db9190612d9f565b611130565b6040516103f2969594939291906133d0565b60405180910390f35b34801561040757600080fd5b506104106111b9565b005b34801561041e57600080fd5b50610427611266565b60405161043491906132e3565b60405180910390f35b34801561044957600080fd5b50610464600480360381019061045f9190613431565b61128a565b005b34801561047257600080fd5b5061047b611461565b60405161048891906134a8565b60405180910390f35b34801561049d57600080fd5b506104b860048036038101906104b39190612d9f565b611478565b6040516104c59190612e8a565b60405180910390f35b3480156104da57600080fd5b506104f560048036038101906104f09190612d9f565b6114e3565b005b34801561050357600080fd5b5061051e60048036038101906105199190612d9f565b611693565b604051610533999897969594939291906134c3565b60405180910390f35b34801561054857600080fd5b50610563600480360381019061055e9190612f0a565b6118a6565b005b34801561057157600080fd5b5061057a61190d565b60405161058791906132e3565b60405180910390f35b34801561059c57600080fd5b506105b760048036038101906105b29190612d9f565b611931565b6040516105ca9796959493929190613565565b60405180910390f35b3480156105df57600080fd5b506105e8611a28565b6040516105f591906132e3565b60405180910390f35b34801561060a57600080fd5b50610613611a4c565b005b34801561062157600080fd5b5061063c600480360381019061063791906135db565b611af9565b604051610649919061333e565b60405180910390f35b34801561065e57600080fd5b5061067960048036038101906106749190612f0a565b611b2a565b6040516106869190612e8a565b60405180910390f35b34801561069b57600080fd5b506106b660048036038101906106b191906132fe565b611bc1565b6040516106c3919061333e565b60405180910390f35b6106e660048036038101906106e19190612d9f565b611bf2565b005b3480156106f457600080fd5b5061070f600480360381019061070a919061361b565b611df8565b005b34801561071d57600080fd5b50610738600480360381019061073391906135db565b612255565b604051610745919061333e565b60405180910390f35b34801561075a57600080fd5b5061077560048036038101906107709190612f0a565b612286565b005b34801561078357600080fd5b5061079e60048036038101906107999190612f0a565b6122ed565b6040516107ab919061366e565b60405180910390f35b3480156107c057600080fd5b506107db60048036038101906107d69190612f0a565b6125d0565b005b3480156107e957600080fd5b5061080460048036038101906107ff91906132fe565b612637565b604051610811919061333e565b60405180910390f35b34801561082657600080fd5b50610841600480360381019061083c9190612f0a565b612668565b005b34801561084f57600080fd5b5061086a600480360381019061086591906135db565b6126cf565b005b34801561087857600080fd5b50610881612ad8565b60405161088e91906132e3565b60405180910390f35b3480156108a357600080fd5b506108ac612afc565b6040516108b991906132e3565b60405180910390f35b3480156108ce57600080fd5b506108e960048036038101906108e49190612f0a565b612b20565b6040516108f69190612e8a565b60405180910390f35b6060600a600083815260200190815260200160002080548060200260200160405190810160405280929190818152602001828054801561095e57602002820191906000526020600020905b81548152602001906001019080831161094a575b50505050509050919050565b7fe61decff6e4a5c6b5a3d3cbd28f882e595173563b49353ce5f31dba2de7f05ee600e60008373ffffffffffffffffffffffffffffffffffffffff1673ffffffffffffffffffffffffffffffffffffffff1681526020019081526020016000208190555050565b7f7c6181838a71a779e445600d4c6ecbe16bacf2b3c5bda69c29fada66d1b645d180600e60003373ffffffffffffffffffffffffffffffffffffffff1673ffffffffffffffffffffffffffffffffffffffff1681526020019081526020016000205414610a73576040517f08c379a0000000000000000000000000000000000000000000000000000000008152600401610a6a906136dc565b60405180910390fd5b610a7b612bb7565b60008611610abe576040517f08c379a0000000000000000000000000000000000000000000000000000000008152600401610ab59061376e565b60405180910390fd5b60008411610b01576040517f08c379a0000000000000000000000000000000000000000000000000000000008152600401610af890613800565b60405180910390fd5b42821115610b44576040517f08c379a0000000000000000000000000000000000000000000000000000000008152600401610b3b90613892565b60405180910390fd5b60036000815480929190610b57906138e1565b919050555060006003549050600060066000838152602001908152602001600020905081816000018190555088816001019081610b949190613b35565b50338160020160006101000a81548173ffffffffffffffffffffffffffffffffffffffff021916908373ffffffffffffffffffffffffffffffffffffffff16021790555087816003018190555086816004019081610bf29190613b35565b5085816005018190555084816006019081610c0d9190613b35565b5083816007018190555060008160080160006101000a81548160ff02191690836005811115610c3f57610c3e613359565b5b0217905550600b60003373ffffffffffffffffffffffffffffffffffffffff1673ffffffffffffffffffffffffffffffffffffffff1681526020019081526020016000208290806001815401808255809150506001900390600052602060002001600090919091909150557f18eed3a83f740cd248edb7cb90d062bcba987e3a6296453dcb0e174c03ffe5a6828a338b8b8b604051610ce396959493929190613c07565b60405180910390a1505050505050505050565b600080600080600080600060608060008060606000600860008f815260200190815260200160002090506000600760008360010154815260200190815260200160002090506000600660008360010154815260200190815260200160002090508260000154836001015483600101548360020160009054906101000a900473ffffffffffffffffffffffffffffffffffffffff168560020160009054906101000a900473ffffffffffffffffffffffffffffffffffffffff168760020160009054906101000a900473ffffffffffffffffffffffffffffffffffffffff168860030160009054906101000a900473ffffffffffffffffffffffffffffffffffffffff16876001018860060189600701548b600401548c600501848054610e1b90613958565b80601f0160208091040260200160405190810160405280929190818152602001828054610e4790613958565b8015610e945780601f10610e6957610100808354040283529160200191610e94565b820191906000526020600020905b815481529060010190602001808311610e7757829003601f168201915b50505050509450838054610ea790613958565b80601f0160208091040260200160405190810160405280929190818152602001828054610ed390613958565b8015610f205780601f10610ef557610100808354040283529160200191610f20565b820191906000526020600020905b815481529060010190602001808311610f0357829003601f168201915b50505050509350808054610f3390613958565b80601f0160208091040260200160405190810160405280929190818152602001828054610f5f90613958565b8015610fac5780601f10610f8157610100808354040283529160200191610fac565b820191906000526020600020905b815481529060010190602001808311610f8f57829003601f168201915b505050505090509e509e509e509e509e509e509e509e509e509e509e509e5050505091939597999b5091939597999b565b6060600b60008373ffffffffffffffffffffffffffffffffffffffff1673ffffffffffffffffffffffffffffffffffffffff16815260200190815260200160002080548060200260200160405190810160405280929190818152602001828054801561106857602002820191906000526020600020905b815481526020019060010190808311611054575b50505050509050919050565b7f2a5f906c256a5d799494fcd066e1f6c077689de1cdb65052a1624de4bace99bf600e60008373ffffffffffffffffffffffffffffffffffffffff1673ffffffffffffffffffffffffffffffffffffffff1681526020019081526020016000208190555050565b7f2a5f906c256a5d799494fcd066e1f6c077689de1cdb65052a1624de4bace99bf81565b600d602052816000526040600020818154811061111b57600080fd5b90600052602060002001600091509150505481565b60086020528060005260406000206000915090508060000154908060010154908060020160009054906101000a900473ffffffffffffffffffffffffffffffffffffffff16908060030160009054906101000a900473ffffffffffffffffffffffffffffffffffffffff16908060040154908060050160009054906101000a900460ff16905086565b7fa49807205ce4d355092ef5a8a18f56e8913cf4a201fbe287825b095693c2177580600e60003373ffffffffffffffffffffffffffffffffffffffff1673ffffffffffffffffffffffffffffffffffffffff168152602001908152602001600020541461125b576040517f08c379a0000000000000000000000000000000000000000000000000000000008152600401611252906136dc565b60405180910390fd5b611263612bf8565b50565b7f66108bb9ee7f804cb1c563794e51989792a366e4b648e4b2b9189d9587e1880d81565b7f66108bb9ee7f804cb1c563794e51989792a366e4b648e4b2b9189d9587e1880d80600e60003373ffffffffffffffffffffffffffffffffffffffff1673ffffffffffffffffffffffffffffffffffffffff168152602001908152602001600020541461132c576040517f08c379a0000000000000000000000000000000000000000000000000000000008152600401611323906136dc565b60405180910390fd5b611334612bb7565b6001600581111561134857611347613359565b5b6007600085815260200190815260200160002060060160009054906101000a900460ff16600581111561137e5761137d613359565b5b146113be576040517f08c379a00000000000000000000000000000000000000000000000000000000081526004016113b590613cc2565b60405180910390fd5b816007600085815260200190815260200160002060050190816113e19190613b35565b5060026007600085815260200190815260200160002060060160006101000a81548160ff0219169083600581111561141c5761141b613359565b5b02179055507f9d753b365824c361cec419758c5f2b8546da1f4e90a776d5c7c0ca0a5141d34d83338460405161145493929190613ce2565b60405180910390a1505050565b6000600160009054906101000a900460ff16905090565b6060600960008381526020019081526020016000208054806020026020016040519081016040528092919081815260200182805480156114d757602002820191906000526020600020905b8154815260200190600101908083116114c3575b50505050509050919050565b7ffbd454f36a7e1a388bd6fc3ab10d434aa4578f811acbbcf33afb1c697486313c80600e60003373ffffffffffffffffffffffffffffffffffffffff1673ffffffffffffffffffffffffffffffffffffffff1681526020019081526020016000205414611585576040517f08c379a000000000000000000000000000000000000000000000000000000000815260040161157c906136dc565b60405180910390fd5b61158d612bb7565b600260058111156115a1576115a0613359565b5b6007600084815260200190815260200160002060060160009054906101000a900460ff1660058111156115d7576115d6613359565b5b14611617576040517f08c379a000000000000000000000000000000000000000000000000000000000815260040161160e90613d92565b60405180910390fd5b60036007600084815260200190815260200160002060060160006101000a81548160ff0219169083600581111561165157611650613359565b5b02179055507f1819b9d7d626ec3af4939bae99a343ea238d24bd02ab7d976f339a8fd158f3728233604051611687929190613db2565b60405180910390a15050565b60066020528060005260406000206000915090508060000154908060010180546116bc90613958565b80601f01602080910402602001604051908101604052809291908181526020018280546116e890613958565b80156117355780601f1061170a57610100808354040283529160200191611735565b820191906000526020600020905b81548152906001019060200180831161171857829003601f168201915b5050505050908060020160009054906101000a900473ffffffffffffffffffffffffffffffffffffffff169080600301549080600401805461177690613958565b80601f01602080910402602001604051908101604052809291908181526020018280546117a290613958565b80156117ef5780601f106117c4576101008083540402835291602001916117ef565b820191906000526020600020905b8154815290600101906020018083116117d257829003601f168201915b50505050509080600501549080600601805461180a90613958565b80601f016020809104026020016040519081016040528092919081815260200182805461183690613958565b80156118835780601f1061185857610100808354040283529160200191611883565b820191906000526020600020905b81548152906001019060200180831161186657829003601f168201915b5050505050908060070154908060080160009054906101000a900460ff16905089565b7f46e0d1fa2be0423550e96859e7c25c6f3178358b189469f16373069e7f092a0a600e60008373ffffffffffffffffffffffffffffffffffffffff1673ffffffffffffffffffffffffffffffffffffffff1681526020019081526020016000208190555050565b7fa49807205ce4d355092ef5a8a18f56e8913cf4a201fbe287825b095693c2177581565b60076020528060005260406000206000915090508060000154908060010154908060020160009054906101000a900473ffffffffffffffffffffffffffffffffffffffff169080600301549080600401549080600501805461199290613958565b80601f01602080910402602001604051908101604052809291908181526020018280546119be90613958565b8015611a0b5780601f106119e057610100808354040283529160200191611a0b565b820191906000526020600020905b8154815290600101906020018083116119ee57829003601f168201915b5050505050908060060160009054906101000a900460ff16905087565b7fe61decff6e4a5c6b5a3d3cbd28f882e595173563b49353ce5f31dba2de7f05ee81565b7fa49807205ce4d355092ef5a8a18f56e8913cf4a201fbe287825b095693c2177580600e60003373ffffffffffffffffffffffffffffffffffffffff1673ffffffffffffffffffffffffffffffffffffffff1681526020019081526020016000205414611aee576040517f08c379a0000000000000000000000000000000000000000000000000000000008152600401611ae5906136dc565b60405180910390fd5b611af6612c5b565b50565b60096020528160005260406000208181548110611b1557600080fd5b90600052602060002001600091509150505481565b6060600c60008373ffffffffffffffffffffffffffffffffffffffff1673ffffffffffffffffffffffffffffffffffffffff168152602001908152602001600020805480602002602001604051908101604052809291908181526020018280548015611bb557602002820191906000526020600020905b815481526020019060010190808311611ba1575b50505050509050919050565b600b6020528160005260406000208181548110611bdd57600080fd5b90600052602060002001600091509150505481565b611bfa612cbd565b611c02612bb7565b600060086000838152602001908152602001600020905060046005811115611c2d57611c2c613359565b5b8160050160009054906101000a900460ff166005811115611c5157611c50613359565b5b14611c91576040517f08c379a0000000000000000000000000000000000000000000000000000000008152600401611c8890613e27565b60405180910390fd5b8060040154341015611cd8576040517f08c379a0000000000000000000000000000000000000000000000000000000008152600401611ccf90613e93565b60405180910390fd5b338160030160006101000a81548173ffffffffffffffffffffffffffffffffffffffff021916908373ffffffffffffffffffffffffffffffffffffffff16021790555060058160050160006101000a81548160ff02191690836005811115611d4357611d42613359565b5b02179055508060020160009054906101000a900473ffffffffffffffffffffffffffffffffffffffff1673ffffffffffffffffffffffffffffffffffffffff166108fc349081150290604051600060405180830381858888f19350505050158015611db2573d6000803e3d6000fd5b507fb8daedd8d8dd0484ed87158d972b26f7c77587ae180a436fd120692cf409d5c18233604051611de4929190613db2565b60405180910390a150611df5612d03565b50565b7f2a5f906c256a5d799494fcd066e1f6c077689de1cdb65052a1624de4bace99bf80600e60003373ffffffffffffffffffffffffffffffffffffffff1673ffffffffffffffffffffffffffffffffffffffff1681526020019081526020016000205414611e9a576040517f08c379a0000000000000000000000000000000000000000000000000000000008152600401611e91906136dc565b60405180910390fd5b611ea2612bb7565b60036005811115611eb657611eb5613359565b5b6007600086815260200190815260200160002060060160009054906101000a900460ff166005811115611eec57611eeb613359565b5b14611f2c576040517f08c379a0000000000000000000000000000000000000000000000000000000008152600401611f2390613f25565b60405180910390fd5b8260076000868152602001908152602001600020600301541015611f85576040517f08c379a0000000000000000000000000000000000000000000000000000000008152600401611f7c90613f91565b60405180910390fd5b60008311611fc8576040517f08c379a0000000000000000000000000000000000000000000000000000000008152600401611fbf9061376e565b60405180910390fd5b6000821161200b576040517f08c379a000000000000000000000000000000000000000000000000000000000815260040161200290613800565b60405180910390fd5b60005b838110156121c35760056000815480929190612029906138e1565b9190505550600060055490506000600860008381526020019081526020016000209050818160000181905550868160010181905550338160020160006101000a81548173ffffffffffffffffffffffffffffffffffffffff021916908373ffffffffffffffffffffffffffffffffffffffff16021790555084816004018190555060048160050160006101000a81548160ff021916908360058111156120d2576120d1613359565b5b0217905550600a6000888152602001908152602001600020829080600181540180825580915050600190039060005260206000200160009091909190915055600d60003373ffffffffffffffffffffffffffffffffffffffff1673ffffffffffffffffffffffffffffffffffffffff1681526020019081526020016000208290806001815401808255809150506001900390600052602060002001600090919091909150557f09d8d0427eee16da63ed3bdac07fab84ec34ee2daec6f697a705a2d57b430db5828833886040516121ac9493929190613fb1565b60405180910390a15050808060010191505061200e565b50826007600086815260200190815260200160002060030160008282546121ea9190613ff6565b92505081905550600060076000868152602001908152602001600020600301540361224f5760046007600086815260200190815260200160002060060160006101000a81548160ff0219169083600581111561224957612248613359565b5b02179055505b50505050565b600a602052816000526040600020818154811061227157600080fd5b90600052602060002001600091509150505481565b7f46e0d1fa2be0423550e96859e7c25c6f3178358b189469f16373069e7f092a0a600e60008373ffffffffffffffffffffffffffffffffffffffff1673ffffffffffffffffffffffffffffffffffffffff1681526020019081526020016000208190555050565b60606000600e60008473ffffffffffffffffffffffffffffffffffffffff1673ffffffffffffffffffffffffffffffffffffffff1681526020019081526020016000205490507f7c6181838a71a779e445600d4c6ecbe16bacf2b3c5bda69c29fada66d1b645d18103612398576040518060400160405280600681526020017f4641524d455200000000000000000000000000000000000000000000000000008152509150506125cb565b7ffbd454f36a7e1a388bd6fc3ab10d434aa4578f811acbbcf33afb1c697486313c81036123fd576040518060400160405280600b81526020017f4449535452494255544f520000000000000000000000000000000000000000008152509150506125cb565b7f7c6181838a71a779e445600d4c6ecbe16bacf2b3c5bda69c29fada66d1b645d18103612462576040518060400160405280600681526020017f4641524d455200000000000000000000000000000000000000000000000000008152509150506125cb565b7fe61decff6e4a5c6b5a3d3cbd28f882e595173563b49353ce5f31dba2de7f05ee81036124c7576040518060400160405280600981526020017f50524f434553534f5200000000000000000000000000000000000000000000008152509150506125cb565b7f66108bb9ee7f804cb1c563794e51989792a366e4b648e4b2b9189d9587e1880d810361252c576040518060400160405280601181526020017f5155414c49545920494e53504543544f520000000000000000000000000000008152509150506125cb565b7fa49807205ce4d355092ef5a8a18f56e8913cf4a201fbe287825b095693c217758103612591576040518060400160405280600581526020017f41444d494e0000000000000000000000000000000000000000000000000000008152509150506125cb565b6040518060400160405280600881526020017f435553544f4d45520000000000000000000000000000000000000000000000008152509150505b919050565b7f7c6181838a71a779e445600d4c6ecbe16bacf2b3c5bda69c29fada66d1b645d1600e60008373ffffffffffffffffffffffffffffffffffffffff1673ffffffffffffffffffffffffffffffffffffffff1681526020019081526020016000208190555050565b600c602052816000526040600020818154811061265357600080fd5b90600052602060002001600091509150505481565b7f46e0d1fa2be0423550e96859e7c25c6f3178358b189469f16373069e7f092a0a600e60008373ffffffffffffffffffffffffffffffffffffffff1673ffffffffffffffffffffffffffffffffffffffff1681526020019081526020016000208190555050565b7fe61decff6e4a5c6b5a3d3cbd28f882e595173563b49353ce5f31dba2de7f05ee80600e60003373ffffffffffffffffffffffffffffffffffffffff1673ffffffffffffffffffffffffffffffffffffffff1681526020019081526020016000205414612771576040517f08c379a0000000000000000000000000000000000000000000000000000000008152600401612768906136dc565b60405180910390fd5b612779612bb7565b6000600581111561278d5761278c613359565b5b6006600085815260200190815260200160002060080160009054906101000a900460ff1660058111156127c3576127c2613359565b5b14612803576040517f08c379a00000000000000000000000000000000000000000000000000000000081526004016127fa9061409c565b60405180910390fd5b816006600085815260200190815260200160002060030154101561285c576040517f08c379a00000000000000000000000000000000000000000000000000000000081526004016128539061412e565b60405180910390fd5b6000821161289f576040517f08c379a00000000000000000000000000000000000000000000000000000000081526004016128969061376e565b60405180910390fd5b600460008154809291906128b2906138e1565b9190505550600060045490506000600760008381526020019081526020016000209050818160000181905550848160010181905550338160020160006101000a81548173ffffffffffffffffffffffffffffffffffffffff021916908373ffffffffffffffffffffffffffffffffffffffff16021790555083816003018190555042816004018190555060018160060160006101000a81548160ff0219169083600581111561296457612963613359565b5b02179055508360066000878152602001908152602001600020600301600082825461298f9190613ff6565b9250508190555060006006600087815260200190815260200160002060030154036129f45760016006600087815260200190815260200160002060080160006101000a81548160ff021916908360058111156129ee576129ed613359565b5b02179055505b60096000868152602001908152602001600020829080600181540180825580915050600190039060005260206000200160009091909190915055600c60003373ffffffffffffffffffffffffffffffffffffffff1673ffffffffffffffffffffffffffffffffffffffff1681526020019081526020016000208290806001815401808255809150506001900390600052602060002001600090919091909150557f92c981022a3bd4ed54ac117f382b68f33b33d9ed49bb71d7d33607fe7dc9f38582863387604051612ac99493929190613fb1565b60405180910390a15050505050565b7ffbd454f36a7e1a388bd6fc3ab10d434aa4578f811acbbcf33afb1c697486313c81565b7f7c6181838a71a779e445600d4c6ecbe16bacf2b3c5bda69c29fada66d1b645d181565b6060600d60008373ffffffffffffffffffffffffffffffffffffffff1673ffffffffffffffffffffffffffffffffffffffff168152602001908152602001600020805480602002602001604051908101604052809291908181526020018280548015612bab57602002820191906000526020600020905b815481526020019060010190808311612b97575b50505050509050919050565b612bbf611461565b15612bf6576040517fd93c066500000000000000000000000000000000000000000000000000000000815260040160405180910390fd5b565b612c00612d0d565b6000600160006101000a81548160ff0219169083151502179055507f5db9ee0a495bf2e6ff9c91a7834c1ba4fdd244a5e8aa4e537bd38aeae4b073aa612c44612d4d565b604051612c51919061414e565b60405180910390a1565b612c63612bb7565b60018060006101000a81548160ff0219169083151502179055507f62e78cea01bee320cd4e420270b5ea74000d11b0c9f74754ebdbfc544b05a258612ca6612d4d565b604051612cb3919061414e565b60405180910390a1565b600260005403612cf9576040517f3ee5aeb500000000000000000000000000000000000000000000000000000000815260040160405180910390fd5b6002600081905550565b6001600081905550565b612d15611461565b612d4b576040517f8dfc202b00000000000000000000000000000000000000000000000000000000815260040160405180910390fd5b565b600033905090565b6000604051905090565b600080fd5b600080fd5b6000819050919050565b612d7c81612d69565b8114612d8757600080fd5b50565b600081359050612d9981612d73565b92915050565b600060208284031215612db557612db4612d5f565b5b6000612dc384828501612d8a565b91505092915050565b600081519050919050565b600082825260208201905092915050565b6000819050602082019050919050565b612e0181612d69565b82525050565b6000612e138383612df8565b60208301905092915050565b6000602082019050919050565b6000612e3782612dcc565b612e418185612dd7565b9350612e4c83612de8565b8060005b83811015612e7d578151612e648882612e07565b9750612e6f83612e1f565b925050600181019050612e50565b5085935050505092915050565b60006020820190508181036000830152612ea48184612e2c565b905092915050565b600073ffffffffffffffffffffffffffffffffffffffff82169050919050565b6000612ed782612eac565b9050919050565b612ee781612ecc565b8114612ef257600080fd5b50565b600081359050612f0481612ede565b92915050565b600060208284031215612f2057612f1f612d5f565b5b6000612f2e84828501612ef5565b91505092915050565b600080fd5b600080fd5b6000601f19601f8301169050919050565b7f4e487b7100000000000000000000000000000000000000000000000000000000600052604160045260246000fd5b612f8a82612f41565b810181811067ffffffffffffffff82111715612fa957612fa8612f52565b5b80604052505050565b6000612fbc612d55565b9050612fc88282612f81565b919050565b600067ffffffffffffffff821115612fe857612fe7612f52565b5b612ff182612f41565b9050602081019050919050565b82818337600083830152505050565b600061302061301b84612fcd565b612fb2565b90508281526020810184848401111561303c5761303b612f3c565b5b613047848285612ffe565b509392505050565b600082601f83011261306457613063612f37565b5b813561307484826020860161300d565b91505092915050565b60008060008060008060c0878903121561309a57613099612d5f565b5b600087013567ffffffffffffffff8111156130b8576130b7612d64565b5b6130c489828a0161304f565b96505060206130d589828a01612d8a565b955050604087013567ffffffffffffffff8111156130f6576130f5612d64565b5b61310289828a0161304f565b945050606061311389828a01612d8a565b935050608087013567ffffffffffffffff81111561313457613133612d64565b5b61314089828a0161304f565b92505060a061315189828a01612d8a565b9150509295509295509295565b61316781612d69565b82525050565b61317681612ecc565b82525050565b600081519050919050565b600082825260208201905092915050565b60005b838110156131b657808201518184015260208101905061319b565b60008484015250505050565b60006131cd8261317c565b6131d78185613187565b93506131e7818560208601613198565b6131f081612f41565b840191505092915050565b600061018082019050613211600083018f61315e565b61321e602083018e61315e565b61322b604083018d61315e565b613238606083018c61316d565b613245608083018b61316d565b61325260a083018a61316d565b61325f60c083018961316d565b81810360e083015261327181886131c2565b905081810361010083015261328681876131c2565b905061329661012083018661315e565b6132a461014083018561315e565b8181036101608301526132b781846131c2565b90509d9c50505050505050505050505050565b6000819050919050565b6132dd816132ca565b82525050565b60006020820190506132f860008301846132d4565b92915050565b6000806040838503121561331557613314612d5f565b5b600061332385828601612ef5565b925050602061333485828601612d8a565b9150509250929050565b6000602082019050613353600083018461315e565b92915050565b7f4e487b7100000000000000000000000000000000000000000000000000000000600052602160045260246000fd5b6006811061339957613398613359565b5b50565b60008190506133aa82613388565b919050565b60006133ba8261339c565b9050919050565b6133ca816133af565b82525050565b600060c0820190506133e5600083018961315e565b6133f2602083018861315e565b6133ff604083018761316d565b61340c606083018661316d565b613419608083018561315e565b61342660a08301846133c1565b979650505050505050565b6000806040838503121561344857613447612d5f565b5b600061345685828601612d8a565b925050602083013567ffffffffffffffff81111561347757613476612d64565b5b6134838582860161304f565b9150509250929050565b60008115159050919050565b6134a28161348d565b82525050565b60006020820190506134bd6000830184613499565b92915050565b6000610120820190506134d9600083018c61315e565b81810360208301526134eb818b6131c2565b90506134fa604083018a61316d565b613507606083018961315e565b818103608083015261351981886131c2565b905061352860a083018761315e565b81810360c083015261353a81866131c2565b905061354960e083018561315e565b6135576101008301846133c1565b9a9950505050505050505050565b600060e08201905061357a600083018a61315e565b613587602083018961315e565b613594604083018861316d565b6135a1606083018761315e565b6135ae608083018661315e565b81810360a08301526135c081856131c2565b90506135cf60c08301846133c1565b98975050505050505050565b600080604083850312156135f2576135f1612d5f565b5b600061360085828601612d8a565b925050602061361185828601612d8a565b9150509250929050565b60008060006060848603121561363457613633612d5f565b5b600061364286828701612d8a565b935050602061365386828701612d8a565b925050604061366486828701612d8a565b9150509250925092565b6000602082019050818103600083015261368881846131c2565b905092915050565b7f756e617574686f72697a65642063616c6c657200000000000000000000000000600082015250565b60006136c6601383613187565b91506136d182613690565b602082019050919050565b600060208201905081810360008301526136f5816136b9565b9050919050565b7f5175616e74697479206d7573742062652067726561746572207468616e207a6560008201527f726f000000000000000000000000000000000000000000000000000000000000602082015250565b6000613758602283613187565b9150613763826136fc565b604082019050919050565b600060208201905081810360008301526137878161374b565b9050919050565b7f50726963652070657220756e6974206d7573742062652067726561746572207460008201527f68616e207a65726f000000000000000000000000000000000000000000000000602082015250565b60006137ea602883613187565b91506137f58261378e565b604082019050919050565b60006020820190508181036000830152613819816137dd565b9050919050565b7f4861727665737420646174652063616e6e6f7420626520696e2074686520667560008201527f7475726500000000000000000000000000000000000000000000000000000000602082015250565b600061387c602483613187565b915061388782613820565b604082019050919050565b600060208201905081810360008301526138ab8161386f565b9050919050565b7f4e487b7100000000000000000000000000000000000000000000000000000000600052601160045260246000fd5b60006138ec82612d69565b91507fffffffffffffffffffffffffffffffffffffffffffffffffffffffffffffffff820361391e5761391d6138b2565b5b600182019050919050565b7f4e487b7100000000000000000000000000000000000000000000000000000000600052602260045260246000fd5b6000600282049050600182168061397057607f821691505b60208210810361398357613982613929565b5b50919050565b60008190508160005260206000209050919050565b60006020601f8301049050919050565b600082821b905092915050565b6000600883026139eb7fffffffffffffffffffffffffffffffffffffffffffffffffffffffffffffffff826139ae565b6139f586836139ae565b95508019841693508086168417925050509392505050565b6000819050919050565b6000613a32613a2d613a2884612d69565b613a0d565b612d69565b9050919050565b6000819050919050565b613a4c83613a17565b613a60613a5882613a39565b8484546139bb565b825550505050565b600090565b613a75613a68565b613a80818484613a43565b505050565b5b81811015613aa457613a99600082613a6d565b600181019050613a86565b5050565b601f821115613ae957613aba81613989565b613ac38461399e565b81016020851015613ad2578190505b613ae6613ade8561399e565b830182613a85565b50505b505050565b600082821c905092915050565b6000613b0c60001984600802613aee565b1980831691505092915050565b6000613b258383613afb565b9150826002028217905092915050565b613b3e8261317c565b67ffffffffffffffff811115613b5757613b56612f52565b5b613b618254613958565b613b6c828285613aa8565b600060209050601f831160018114613b9f5760008415613b8d578287015190505b613b978582613b19565b865550613bff565b601f198416613bad86613989565b60005b82811015613bd557848901518255600182019150602085019450602081019050613bb0565b86831015613bf25784890151613bee601f891682613afb565b8355505b6001600288020188555050505b505050505050565b600060c082019050613c1c600083018961315e565b8181036020830152613c2e81886131c2565b9050613c3d604083018761316d565b613c4a606083018661315e565b8181036080830152613c5c81856131c2565b9050613c6b60a083018461315e565b979650505050505050565b7f4261746368206d75737420626520696e2050726f636573736564207374617465600082015250565b6000613cac602083613187565b9150613cb782613c76565b602082019050919050565b60006020820190508181036000830152613cdb81613c9f565b9050919050565b6000606082019050613cf7600083018661315e565b613d04602083018561316d565b8181036040830152613d1681846131c2565b9050949350505050565b7f4261746368206d75737420626520696e205175616c697479436865636b65642060008201527f7374617465000000000000000000000000000000000000000000000000000000602082015250565b6000613d7c602583613187565b9150613d8782613d20565b604082019050919050565b60006020820190508181036000830152613dab81613d6f565b9050919050565b6000604082019050613dc7600083018561315e565b613dd4602083018461316d565b9392505050565b7f556e6974206d75737420626520696e2052657461696c65642073746174650000600082015250565b6000613e11601e83613187565b9150613e1c82613ddb565b602082019050919050565b60006020820190508181036000830152613e4081613e04565b9050919050565b7f496e73756666696369656e74207061796d656e74000000000000000000000000600082015250565b6000613e7d601483613187565b9150613e8882613e47565b602082019050919050565b60006020820190508181036000830152613eac81613e70565b9050919050565b7f4261746368206d75737420626520696e2044697374726962757465642073746160008201527f7465000000000000000000000000000000000000000000000000000000000000602082015250565b6000613f0f602283613187565b9150613f1a82613eb3565b604082019050919050565b60006020820190508181036000830152613f3e81613f02565b9050919050565b7f496e73756666696369656e74207175616e7469747920696e2062617463680000600082015250565b6000613f7b601e83613187565b9150613f8682613f45565b602082019050919050565b60006020820190508181036000830152613faa81613f6e565b9050919050565b6000608082019050613fc6600083018761315e565b613fd3602083018661315e565b613fe0604083018561316d565b613fed606083018461315e565b95945050505050565b600061400182612d69565b915061400c83612d69565b9250828203905081811115614024576140236138b2565b5b92915050565b7f42756c6b20737570706c79206d75737420626520696e2052656769737465726560008201527f6420737461746500000000000000000000000000000000000000000000000000602082015250565b6000614086602783613187565b91506140918261402a565b604082019050919050565b600060208201905081810360008301526140b581614079565b9050919050565b7f496e73756666696369656e74207175616e7469747920696e2062756c6b20737560008201527f70706c7900000000000000000000000000000000000000000000000000000000602082015250565b6000614118602483613187565b9150614123826140bc565b604082019050919050565b600060208201905081810360008301526141478161410b565b9050919050565b6000602082019050614163600083018461316d565b9291505056fea2646970667358221220f3592a959f6a8d8dc0fb81991658e02eba060cc21de27f6abb746d89fb02c64664736f6c634300081b0033",
  "linkReferences": {},
  "deployedLinkReferences": {}
}