{
  "_format": "hh-sol-artifact-1",
  "contractName": "FarmSupplyChain",
  "sourceName": "contracts/FarmSupplyChain.sol",
  "abi": [
    {
      "inputs": [],
      "stateMutability": "nonpayable",
      "type": "constructor"
    },
    {
      "inputs": [],
      "name": "EnforcedPause",
      "type": "error"
    },
    {
      "inputs": [],
      "name": "ExpectedPause",
      "type": "error"
    },
    {
      "inputs": [],
      "name": "ReentrancyGuardReentrantCall",
      "type": "error"
    },
    {
      "anonymous": false,
      "inputs": [
        {
          "indexed": false,
          "internalType": "uint256",
          "name": "id",
          "type": "uint256"
        },
        {
          "indexed": false,
          "internalType": "address",
          "name": "distributor",
          "type": "address"
        }
      ],
      "name": "BatchDistributed",
      "type": "event"
    },
    {
      "anonymous": false,
      "inputs": [
        {
          "indexed": false,
          "internalType": "uint256",
          "name": "id",
          "type": "uint256"
        },
        {
          "indexed": false,
          "internalType": "uint256",
          "name": "bulkSupplyId",
          "type": "uint256"
        },
        {
          "indexed": false,
          "internalType": "address",
          "name": "processor",
          "type": "address"
        },
        {
          "indexed": false,
          "internalType": "uint256",
          "name": "quantity",
          "type": "uint256"
        },
        {
          "indexed": false,
          "internalType": "string",
          "name": "batchNumber",
          "type": "string"
        }
      ],
      "name": "BatchProcessed",
      "type": "event"
    },
    {
      "anonymous": false,
      "inputs": [
        {
          "indexed": false,
          "internalType": "uint256",
          "name": "id",
          "type": "uint256"
        },
        {
          "indexed": false,
          "internalType": "address",
          "name": "inspector",
          "type": "address"
        },
        {
          "indexed": false,
          "internalType": "string",
          "name": "qualityGrade",
          "type": "string"
        }
      ],
      "name": "BatchQualityChecked",
      "type": "event"
    },
    {
      "anonymous": false,
      "inputs": [
        {
          "indexed": false,
          "internalType": "uint256",
          "name": "id",
          "type": "uint256"
        },
        {
          "indexed": false,
          "internalType": "string",
          "name": "name",
          "type": "string"
        },
        {
          "indexed": false,
          "internalType": "address",
          "name": "farmer",
          "type": "address"
        },
        {
          "indexed": false,
          "internalType": "uint256",
          "name": "quantity",
          "type": "uint256"
        },
        {
          "indexed": false,
          "internalType": "string",
          "name": "unit",
          "type": "string"
        },
        {
          "indexed": false,
          "internalType": "uint256",
          "name": "pricePerUnit",
          "type": "uint256"
        }
      ],
      "name": "BulkSupplyRegistered",
      "type": "event"
    },
    {
      "anonymous": false,
      "inputs": [
        {
          "indexed": false,
          "internalType": "address",
          "name": "account",
          "type": "address"
        }
      ],
      "name": "Paused",
      "type": "event"
    },
    {
      "anonymous": false,
      "inputs": [
        {
          "indexed": false,
          "internalType": "uint256",
          "name": "id",
          "type": "uint256"
        },
        {
          "indexed": false,
          "internalType": "uint256",
          "name": "batchId",
          "type": "uint256"
        },
        {
          "indexed": false,
          "internalType": "address",
          "name": "retailer",
          "type": "address"
        },
        {
          "indexed": false,
          "internalType": "uint256",
          "name": "price",
          "type": "uint256"
        }
      ],
      "name": "UnitRetailed",
      "type": "event"
    },
    {
      "anonymous": false,
      "inputs": [
        {
          "indexed": false,
          "internalType": "uint256",
          "name": "id",
          "type": "uint256"
        },
        {
          "indexed": false,
          "internalType": "address",
          "name": "consumer",
          "type": "address"
        }
      ],
      "name": "UnitSold",
      "type": "event"
    },
    {
      "anonymous": false,
      "inputs": [
        {
          "indexed": false,
          "internalType": "address",
          "name": "account",
          "type": "address"
        }
      ],
      "name": "Unpaused",
      "type": "event"
    },
    {
      "inputs": [],
      "name": "ADMIN_ROLE",
      "outputs": [
        {
          "internalType": "bytes32",
          "name": "",
          "type": "bytes32"
        }
      ],
      "stateMutability": "view",
      "type": "function"
    },
    {
      "inputs": [],
      "name": "DISTRIBUTOR_ROLE",
      "outputs": [
        {
          "internalType": "bytes32",
          "name": "",
          "type": "bytes32"
        }
      ],
      "stateMutability": "view",
      "type": "function"
    },
    {
      "inputs": [],
      "name": "FARMER_ROLE",
      "outputs": [
        {
          "internalType": "bytes32",
          "name": "",
          "type": "bytes32"
        }
      ],
      "stateMutability": "view",
      "type": "function"
    },
    {
      "inputs": [],
      "name": "PROCESSOR_ROLE",
      "outputs": [
        {
          "internalType": "bytes32",
          "name": "",
          "type": "bytes32"
        }
      ],
      "stateMutability": "view",
      "type": "function"
    },
    {
      "inputs": [],
      "name": "QUALITY_INSPECTOR_ROLE",
      "outputs": [
        {
          "internalType": "bytes32",
          "name": "",
          "type": "bytes32"
        }
      ],
      "stateMutability": "view",
      "type": "function"
    },
    {
      "inputs": [],
      "name": "RETAILER_ROLE",
      "outputs": [
        {
          "internalType": "bytes32",
          "name": "",
          "type": "bytes32"
        }
      ],
      "stateMutability": "view",
      "type": "function"
    },
    {
      "inputs": [
        {
          "internalType": "uint256",
          "name": "",
          "type": "uint256"
        },
        {
          "internalType": "uint256",
          "name": "",
          "type": "uint256"
        }
      ],
      "name": "batchToUnits",
      "outputs": [
        {
          "internalType": "uint256",
          "name": "",
          "type": "uint256"
        }
      ],
      "stateMutability": "view",
      "type": "function"
    },
    {
      "inputs": [
        {
          "internalType": "uint256",
          "name": "",
          "type": "uint256"
        }
      ],
      "name": "bulkSupplies",
      "outputs": [
        {
          "internalType": "uint256",
          "name": "id",
          "type": "uint256"
        },
        {
          "internalType": "string",
          "name": "name",
          "type": "string"
        },
        {
          "internalType": "address",
          "name": "farmer",
          "type": "address"
        },
        {
          "internalType": "uint256",
          "name": "quantity",
          "type": "uint256"
        },
        {
          "internalType": "string",
          "name": "unit",
          "type": "string"
        },
        {
          "internalType": "uint256",
          "name": "pricePerUnit",
          "type": "uint256"
        },
        {
          "internalType": "string",
          "name": "originLocation",
          "type": "string"
        },
        {
          "internalType": "uint256",
          "name": "harvestDate",
          "type": "uint256"
        },
        {
          "internalType": "enum IFarmSupplyChain.SupplyState",
          "name": "state",
          "type": "uint8"
        }
      ],
      "stateMutability": "view",
      "type": "function"
    },
    {
      "inputs": [
        {
          "internalType": "uint256",
          "name": "",
          "type": "uint256"
        },
        {
          "internalType": "uint256",
          "name": "",
          "type": "uint256"
        }
      ],
      "name": "bulkSupplyToBatches",
      "outputs": [
        {
          "internalType": "uint256",
          "name": "",
          "type": "uint256"
        }
      ],
      "stateMutability": "view",
      "type": "function"
    },
    {
      "inputs": [
        {
          "internalType": "uint256",
          "name": "_batchId",
          "type": "uint256"
        },
        {
          "internalType": "string",
          "name": "_qualityGrade",
          "type": "string"
        }
      ],
      "name": "checkBatchQuality",
      "outputs": [],
      "stateMutability": "nonpayable",
      "type": "function"
    },
    {
      "inputs": [
        {
          "internalType": "address",
          "name": "_farmer",
          "type": "address"
        }
      ],
      "name": "createFarmer",
      "outputs": [],
      "stateMutability": "nonpayable",
      "type": "function"
    },
    {
      "inputs": [
        {
          "internalType": "address",
          "name": "_processor",
          "type": "address"
        }
      ],
      "name": "createProcessor",
      "outputs": [],
      "stateMutability": "nonpayable",
      "type": "function"
    },
    {
      "inputs": [
        {
          "internalType": "uint256",
          "name": "_batchId",
          "type": "uint256"
        },
        {
          "internalType": "uint256",
          "name": "_quantity",
          "type": "uint256"
        },
        {
          "internalType": "uint256",
          "name": "_pricePerUnit",
          "type": "uint256"
        }
      ],
      "name": "createRetailUnits",
      "outputs": [],
      "stateMutability": "nonpayable",
      "type": "function"
    },
    {
      "inputs": [
        {
          "internalType": "address",
          "name": "_retailer",
          "type": "address"
        }
      ],
      "name": "createRetailer",
      "outputs": [],
      "stateMutability": "nonpayable",
      "type": "function"
    },
    {
      "inputs": [
        {
          "internalType": "uint256",
          "name": "_batchId",
          "type": "uint256"
        }
      ],
      "name": "distributeBatch",
      "outputs": [],
      "stateMutability": "nonpayable",
      "type": "function"
    },
    {
      "inputs": [
        {
          "internalType": "address",
          "name": "",
          "type": "address"
        },
        {
          "internalType": "uint256",
          "name": "",
          "type": "uint256"
        }
      ],
      "name": "farmerSupplies",
      "outputs": [
        {
          "internalType": "uint256",
          "name": "",
          "type": "uint256"
        }
      ],
      "stateMutability": "view",
      "type": "function"
    },
    {
      "inputs": [
        {
          "internalType": "uint256",
          "name": "_batchId",
          "type": "uint256"
        }
      ],
      "name": "getBatchUnits",
      "outputs": [
        {
          "internalType": "uint256[]",
          "name": "",
          "type": "uint256[]"
        }
      ],
      "stateMutability": "view",
      "type": "function"
    },
    {
      "inputs": [
        {
          "internalType": "uint256",
          "name": "_bulkSupplyId",
          "type": "uint256"
        }
      ],
      "name": "getBulkSupplyBatches",
      "outputs": [
        {
          "internalType": "uint256[]",
          "name": "",
          "type": "uint256[]"
        }
      ],
      "stateMutability": "view",
      "type": "function"
    },
    {
      "inputs": [
        {
          "internalType": "address",
          "name": "_farmer",
          "type": "address"
        }
      ],
      "name": "getFarmerSupplies",
      "outputs": [
        {
          "internalType": "uint256[]",
          "name": "",
          "type": "uint256[]"
        }
      ],
      "stateMutability": "view",
      "type": "function"
    },
    {
      "inputs": [
        {
          "internalType": "address",
          "name": "_processor",
          "type": "address"
        }
      ],
      "name": "getProcessorBatches",
      "outputs": [
        {
          "internalType": "uint256[]",
          "name": "",
          "type": "uint256[]"
        }
      ],
      "stateMutability": "view",
      "type": "function"
    },
    {
      "inputs": [
        {
          "internalType": "address",
          "name": "_retailer",
          "type": "address"
        }
      ],
      "name": "getRetailerUnits",
      "outputs": [
        {
          "internalType": "uint256[]",
          "name": "",
          "type": "uint256[]"
        }
      ],
      "stateMutability": "view",
      "type": "function"
    },
    {
      "inputs": [
        {
          "internalType": "uint256",
          "name": "_unitId",
          "type": "uint256"
        }
      ],
      "name": "getUnitHistory",
      "outputs": [
        {
          "internalType": "uint256",
          "name": "unitId",
          "type": "uint256"
        },
        {
          "internalType": "uint256",
          "name": "batchId",
          "type": "uint256"
        },
        {
          "internalType": "uint256",
          "name": "bulkSupplyId",
          "type": "uint256"
        },
        {
          "internalType": "address",
          "name": "farmer",
          "type": "address"
        },
        {
          "internalType": "address",
          "name": "processor",
          "type": "address"
        },
        {
          "internalType": "address",
          "name": "retailer",
          "type": "address"
        },
        {
          "internalType": "address",
          "name": "consumer",
          "type": "address"
        },
        {
          "internalType": "string",
          "name": "productName",
          "type": "string"
        },
        {
          "internalType": "string",
          "name": "originLocation",
          "type": "string"
        },
        {
          "internalType": "uint256",
          "name": "harvestDate",
          "type": "uint256"
        },
        {
          "internalType": "uint256",
          "name": "processingDate",
          "type": "uint256"
        },
        {
          "internalType": "string",
          "name": "qualityGrade",
          "type": "string"
        }
      ],
      "stateMutability": "view",
      "type": "function"
    },
    {
      "inputs": [],
      "name": "pause",
      "outputs": [],
      "stateMutability": "nonpayable",
      "type": "function"
    },
    {
      "inputs": [],
      "name": "paused",
      "outputs": [
        {
          "internalType": "bool",
          "name": "",
          "type": "bool"
        }
      ],
      "stateMutability": "view",
      "type": "function"
    },
    {
      "inputs": [
        {
          "internalType": "uint256",
          "name": "_bulkSupplyId",
          "type": "uint256"
        },
        {
          "internalType": "uint256",
          "name": "_quantity",
          "type": "uint256"
        },
        {
          "internalType": "string",
          "name": "_batchNumber",
          "type": "string"
        }
      ],
      "name": "processBatch",
      "outputs": [],
      "stateMutability": "nonpayable",
      "type": "function"
    },
    {
      "inputs": [
        {
          "internalType": "uint256",
          "name": "",
          "type": "uint256"
        }
      ],
      "name": "processedBatches",
      "outputs": [
        {
          "internalType": "uint256",
          "name": "id",
          "type": "uint256"
        },
        {
          "internalType": "uint256",
          "name": "bulkSupplyId",
          "type": "uint256"
        },
        {
          "internalType": "address",
          "name": "processor",
          "type": "address"
        },
        {
          "internalType": "uint256",
          "name": "quantity",
          "type": "uint256"
        },
        {
          "internalType": "string",
          "name": "batchNumber",
          "type": "string"
        },
        {
          "internalType": "uint256",
          "name": "processingDate",
          "type": "uint256"
        },
        {
          "internalType": "string",
          "name": "qualityGrade",
          "type": "string"
        },
        {
          "internalType": "enum IFarmSupplyChain.SupplyState",
          "name": "state",
          "type": "uint8"
        }
      ],
      "stateMutability": "view",
      "type": "function"
    },
    {
      "inputs": [
        {
          "internalType": "address",
          "name": "",
          "type": "address"
        },
        {
          "internalType": "uint256",
          "name": "",
          "type": "uint256"
        }
      ],
      "name": "processorBatches",
      "outputs": [
        {
          "internalType": "uint256",
          "name": "",
          "type": "uint256"
        }
      ],
      "stateMutability": "view",
      "type": "function"
    },
    {
      "inputs": [
        {
          "internalType": "string",
          "name": "_name",
          "type": "string"
        },
        {
          "internalType": "uint256",
          "name": "_quantity",
          "type": "uint256"
        },
        {
          "internalType": "string",
          "name": "_unit",
          "type": "string"
        },
        {
          "internalType": "uint256",
          "name": "_pricePerUnit",
          "type": "uint256"
        },
        {
          "internalType": "string",
          "name": "_originLocation",
          "type": "string"
        },
        {
          "internalType": "uint256",
          "name": "_harvestDate",
          "type": "uint256"
        }
      ],
      "name": "registerBulkSupply",
      "outputs": [],
      "stateMutability": "nonpayable",
      "type": "function"
    },
    {
      "inputs": [
        {
          "internalType": "address",
          "name": "_farmer",
          "type": "address"
        }
      ],
      "name": "removeFarmer",
      "outputs": [],
      "stateMutability": "nonpayable",
      "type": "function"
    },
    {
      "inputs": [
        {
          "internalType": "address",
          "name": "_processor",
          "type": "address"
        }
      ],
      "name": "removeProcessor",
      "outputs": [],
      "stateMutability": "nonpayable",
      "type": "function"
    },
    {
      "inputs": [
        {
          "internalType": "address",
          "name": "_retailer",
          "type": "address"
        }
      ],
      "name": "removeRetailer",
      "outputs": [],
      "stateMutability": "nonpayable",
      "type": "function"
    },
    {
      "inputs": [
        {
          "internalType": "uint256",
          "name": "",
          "type": "uint256"
        }
      ],
      "name": "retailUnits",
      "outputs": [
        {
          "internalType": "uint256",
          "name": "id",
          "type": "uint256"
        },
        {
          "internalType": "uint256",
          "name": "batchId",
          "type": "uint256"
        },
        {
          "internalType": "address",
          "name": "retailer",
          "type": "address"
        },
        {
          "internalType": "address",
          "name": "consumer",
          "type": "address"
        },
        {
          "internalType": "uint256",
          "name": "price",
          "type": "uint256"
        },
        {
          "internalType": "enum IFarmSupplyChain.SupplyState",
          "name": "state",
          "type": "uint8"
        }
      ],
      "stateMutability": "view",
      "type": "function"
    },
    {
      "inputs": [
        {
          "internalType": "address",
          "name": "",
          "type": "address"
        },
        {
          "internalType": "uint256",
          "name": "",
          "type": "uint256"
        }
      ],
      "name": "retailerUnits",
      "outputs": [
        {
          "internalType": "uint256",
          "name": "",
          "type": "uint256"
        }
      ],
      "stateMutability": "view",
      "type": "function"
    },
    {
      "inputs": [
        {
          "internalType": "address",
          "name": "_account",
          "type": "address"
        }
      ],
      "name": "role",
      "outputs": [
        {
          "internalType": "string",
          "name": "",
          "type": "string"
        }
      ],
      "stateMutability": "view",
      "type": "function"
    },
    {
      "inputs": [
        {
          "internalType": "uint256",
          "name": "_unitId",
          "type": "uint256"
        }
      ],
      "name": "sellUnit",
      "outputs": [],
      "stateMutability": "payable",
      "type": "function"
    },
    {
      "inputs": [],
      "name": "unpause",
      "outputs": [],
      "stateMutability": "nonpayable",
      "type": "function"
    }
  ],
  "bytecode": "0x6080604052348015600f57600080fd5b5060016000819055506000600160006101000a81548160ff02191690831515021790555060766040518060400160405280600a81526020017f41444d494e5f524f4c450000000000000000000000000000000000000000000081525033607a60201b60201c565b607e565b5050565b6143228061008d6000396000f3fe60806040526004361061020f5760003560e01c80637ee35ef311610118578063c3163488116100a0578063e581c4911161006f578063e581c49114610807578063e6bf3fdc14610844578063f0bd87cc1461086d578063f394397014610898578063fdbb7964146108c35761020f565b8063c31634881461073b578063d2ef4f3b14610778578063d590f8c9146107a1578063e4572019146107de5761020f565b80639560419f116100e75780639560419f1461065357806395f2e02f14610690578063b742a751146106cd578063b7449d0d146106e9578063c140ac4b146107125761020f565b80637ee35ef3146105905780638222bdb2146105d45780638456cb59146105ff57806386ce7509146106165761020f565b80633f4ba83a1161019b57806368a22ee01161016a57806368a22ee0146104915780636a131175146104ce5780636a4e5cf7146104f757806370099ec81461053c57806375b238fc146105655761020f565b80633f4ba83a146103fb5780634e20c36214610412578063551919451461043d5780635c975abb146104665761020f565b80631cbef6ba116101e25780631cbef6ba146102eb57806320331350146103285780632115e7bf14610351578063345b2bec1461037c5780633b510b1d146103b95761020f565b80630866b86b14610214578063112ab78a1461025157806314278d061461027a578063187f0df6146102a3575b600080fd5b34801561022057600080fd5b5061023b60048036038101906102369190612e43565b610900565b6040516102489190612f2e565b60405180910390f35b34801561025d57600080fd5b5061027860048036038101906102739190612fae565b61096b565b005b34801561028657600080fd5b506102a1600480360381019061029c9190613121565b6109d2565b005b3480156102af57600080fd5b506102ca60048036038101906102c59190612e43565b610cf7565b6040516102e29c9b9a9998979695949392919061329f565b60405180910390f35b3480156102f757600080fd5b50610312600480360381019061030d9190612fae565b610fde565b60405161031f9190612f2e565b60405180910390f35b34801561033457600080fd5b5061034f600480360381019061034a9190612fae565b611075565b005b34801561035d57600080fd5b506103666110dc565b6040516103739190613387565b60405180910390f35b34801561038857600080fd5b506103a3600480360381019061039e91906133a2565b611100565b6040516103b091906133e2565b60405180910390f35b3480156103c557600080fd5b506103e060048036038101906103db9190612e43565b611131565b6040516103f296959493929190613474565b60405180910390f35b34801561040757600080fd5b506104106111ba565b005b34801561041e57600080fd5b50610427611267565b6040516104349190613387565b60405180910390f35b34801561044957600080fd5b50610464600480360381019061045f91906134d5565b61128b565b005b34801561047257600080fd5b5061047b611462565b604051610488919061354c565b60405180910390f35b34801561049d57600080fd5b506104b860048036038101906104b39190612e43565b611479565b6040516104c59190612f2e565b60405180910390f35b3480156104da57600080fd5b506104f560048036038101906104f09190612e43565b6114e4565b005b34801561050357600080fd5b5061051e60048036038101906105199190612e43565b611694565b60405161053399989796959493929190613567565b60405180910390f35b34801561054857600080fd5b50610563600480360381019061055e9190612fae565b6118a7565b005b34801561057157600080fd5b5061057a61190e565b6040516105879190613387565b60405180910390f35b34801561059c57600080fd5b506105b760048036038101906105b29190612e43565b611932565b6040516105cb989796959493929190613609565b60405180910390f35b3480156105e057600080fd5b506105e9611ab7565b6040516105f69190613387565b60405180910390f35b34801561060b57600080fd5b50610614611adb565b005b34801561062257600080fd5b5061063d60048036038101906106389190613695565b611b88565b60405161064a91906133e2565b60405180910390f35b34801561065f57600080fd5b5061067a60048036038101906106759190612fae565b611bb9565b6040516106879190612f2e565b60405180910390f35b34801561069c57600080fd5b506106b760048036038101906106b291906133a2565b611c50565b6040516106c491906133e2565b60405180910390f35b6106e760048036038101906106e29190612e43565b611c81565b005b3480156106f557600080fd5b50610710600480360381019061070b91906136d5565b611e87565b005b34801561071e57600080fd5b5061073960048036038101906107349190613728565b6122e4565b005b34801561074757600080fd5b50610762600480360381019061075d9190613695565b612702565b60405161076f91906133e2565b60405180910390f35b34801561078457600080fd5b5061079f600480360381019061079a9190612fae565b612733565b005b3480156107ad57600080fd5b506107c860048036038101906107c39190612fae565b61279a565b6040516107d59190613797565b60405180910390f35b3480156107ea57600080fd5b5061080560048036038101906108009190612fae565b612a7d565b005b34801561081357600080fd5b5061082e600480360381019061082991906133a2565b612ae4565b60405161083b91906133e2565b60405180910390f35b34801561085057600080fd5b5061086b60048036038101906108669190612fae565b612b15565b005b34801561087957600080fd5b50610882612b7c565b60405161088f9190613387565b60405180910390f35b3480156108a457600080fd5b506108ad612ba0565b6040516108ba9190613387565b60405180910390f35b3480156108cf57600080fd5b506108ea60048036038101906108e59190612fae565b612bc4565b6040516108f79190612f2e565b60405180910390f35b6060600a600083815260200190815260200160002080548060200260200160405190810160405280929190818152602001828054801561095f57602002820191906000526020600020905b81548152602001906001019080831161094b575b50505050509050919050565b7fe61decff6e4a5c6b5a3d3cbd28f882e595173563b49353ce5f31dba2de7f05ee600e60008373ffffffffffffffffffffffffffffffffffffffff1673ffffffffffffffffffffffffffffffffffffffff1681526020019081526020016000208190555050565b7f7c6181838a71a779e445600d4c6ecbe16bacf2b3c5bda69c29fada66d1b645d180600e60003373ffffffffffffffffffffffffffffffffffffffff1673ffffffffffffffffffffffffffffffffffffffff1681526020019081526020016000205414610a74576040517f08c379a0000000000000000000000000000000000000000000000000000000008152600401610a6b90613805565b60405180910390fd5b610a7c612c5b565b60008611610abf576040517f08c379a0000000000000000000000000000000000000000000000000000000008152600401610ab690613897565b60405180910390fd5b60008411610b02576040517f08c379a0000000000000000000000000000000000000000000000000000000008152600401610af990613929565b60405180910390fd5b42821115610b45576040517f08c379a0000000000000000000000000000000000000000000000000000000008152600401610b3c906139bb565b60405180910390fd5b60036000815480929190610b5890613a0a565b919050555060006003549050600060066000838152602001908152602001600020905081816000018190555088816001019081610b959190613c5e565b50338160020160006101000a81548173ffffffffffffffffffffffffffffffffffffffff021916908373ffffffffffffffffffffffffffffffffffffffff16021790555087816003018190555086816004019081610bf39190613c5e565b5085816005018190555084816006019081610c0e9190613c5e565b5083816007018190555060008160080160006101000a81548160ff02191690836005811115610c4057610c3f6133fd565b5b0217905550600b60003373ffffffffffffffffffffffffffffffffffffffff1673ffffffffffffffffffffffffffffffffffffffff1681526020019081526020016000208290806001815401808255809150506001900390600052602060002001600090919091909150557f18eed3a83f740cd248edb7cb90d062bcba987e3a6296453dcb0e174c03ffe5a6828a338b8b8b604051610ce496959493929190613d30565b60405180910390a1505050505050505050565b600080600080600080600060608060008060606000600860008f815260200190815260200160002090506000600760008360010154815260200190815260200160002090506000600660008360010154815260200190815260200160002090508260000154836001015483600101548360020160009054906101000a900473ffffffffffffffffffffffffffffffffffffffff168560020160009054906101000a900473ffffffffffffffffffffffffffffffffffffffff168760020160009054906101000a900473ffffffffffffffffffffffffffffffffffffffff168860030160009054906101000a900473ffffffffffffffffffffffffffffffffffffffff16876001018860060189600701548b600501548c600601848054610e1c90613a81565b80601f0160208091040260200160405190810160405280929190818152602001828054610e4890613a81565b8015610e955780601f10610e6a57610100808354040283529160200191610e95565b820191906000526020600020905b815481529060010190602001808311610e7857829003601f168201915b50505050509450838054610ea890613a81565b80601f0160208091040260200160405190810160405280929190818152602001828054610ed490613a81565b8015610f215780601f10610ef657610100808354040283529160200191610f21565b820191906000526020600020905b815481529060010190602001808311610f0457829003601f168201915b50505050509350808054610f3490613a81565b80601f0160208091040260200160405190810160405280929190818152602001828054610f6090613a81565b8015610fad5780601f10610f8257610100808354040283529160200191610fad565b820191906000526020600020905b815481529060010190602001808311610f9057829003601f168201915b505050505090509e509e509e509e509e509e509e509e509e509e509e509e5050505091939597999b5091939597999b565b6060600b60008373ffffffffffffffffffffffffffffffffffffffff1673ffffffffffffffffffffffffffffffffffffffff16815260200190815260200160002080548060200260200160405190810160405280929190818152602001828054801561106957602002820191906000526020600020905b815481526020019060010190808311611055575b50505050509050919050565b7f2a5f906c256a5d799494fcd066e1f6c077689de1cdb65052a1624de4bace99bf600e60008373ffffffffffffffffffffffffffffffffffffffff1673ffffffffffffffffffffffffffffffffffffffff1681526020019081526020016000208190555050565b7f2a5f906c256a5d799494fcd066e1f6c077689de1cdb65052a1624de4bace99bf81565b600d602052816000526040600020818154811061111c57600080fd5b90600052602060002001600091509150505481565b60086020528060005260406000206000915090508060000154908060010154908060020160009054906101000a900473ffffffffffffffffffffffffffffffffffffffff16908060030160009054906101000a900473ffffffffffffffffffffffffffffffffffffffff16908060040154908060050160009054906101000a900460ff16905086565b7fa49807205ce4d355092ef5a8a18f56e8913cf4a201fbe287825b095693c2177580600e60003373ffffffffffffffffffffffffffffffffffffffff1673ffffffffffffffffffffffffffffffffffffffff168152602001908152602001600020541461125c576040517f08c379a000000000000000000000000000000000000000000000000000000000815260040161125390613805565b60405180910390fd5b611264612c9c565b50565b7f66108bb9ee7f804cb1c563794e51989792a366e4b648e4b2b9189d9587e1880d81565b7f66108bb9ee7f804cb1c563794e51989792a366e4b648e4b2b9189d9587e1880d80600e60003373ffffffffffffffffffffffffffffffffffffffff1673ffffffffffffffffffffffffffffffffffffffff168152602001908152602001600020541461132d576040517f08c379a000000000000000000000000000000000000000000000000000000000815260040161132490613805565b60405180910390fd5b611335612c5b565b60016005811115611349576113486133fd565b5b6007600085815260200190815260200160002060070160009054906101000a900460ff16600581111561137f5761137e6133fd565b5b146113bf576040517f08c379a00000000000000000000000000000000000000000000000000000000081526004016113b690613deb565b60405180910390fd5b816007600085815260200190815260200160002060060190816113e29190613c5e565b5060026007600085815260200190815260200160002060070160006101000a81548160ff0219169083600581111561141d5761141c6133fd565b5b02179055507f9d753b365824c361cec419758c5f2b8546da1f4e90a776d5c7c0ca0a5141d34d83338460405161145593929190613e0b565b60405180910390a1505050565b6000600160009054906101000a900460ff16905090565b6060600960008381526020019081526020016000208054806020026020016040519081016040528092919081815260200182805480156114d857602002820191906000526020600020905b8154815260200190600101908083116114c4575b50505050509050919050565b7ffbd454f36a7e1a388bd6fc3ab10d434aa4578f811acbbcf33afb1c697486313c80600e60003373ffffffffffffffffffffffffffffffffffffffff1673ffffffffffffffffffffffffffffffffffffffff1681526020019081526020016000205414611586576040517f08c379a000000000000000000000000000000000000000000000000000000000815260040161157d90613805565b60405180910390fd5b61158e612c5b565b600260058111156115a2576115a16133fd565b5b6007600084815260200190815260200160002060070160009054906101000a900460ff1660058111156115d8576115d76133fd565b5b14611618576040517f08c379a000000000000000000000000000000000000000000000000000000000815260040161160f90613ebb565b60405180910390fd5b60036007600084815260200190815260200160002060070160006101000a81548160ff02191690836005811115611652576116516133fd565b5b02179055507f1819b9d7d626ec3af4939bae99a343ea238d24bd02ab7d976f339a8fd158f3728233604051611688929190613edb565b60405180910390a15050565b60066020528060005260406000206000915090508060000154908060010180546116bd90613a81565b80601f01602080910402602001604051908101604052809291908181526020018280546116e990613a81565b80156117365780601f1061170b57610100808354040283529160200191611736565b820191906000526020600020905b81548152906001019060200180831161171957829003601f168201915b5050505050908060020160009054906101000a900473ffffffffffffffffffffffffffffffffffffffff169080600301549080600401805461177790613a81565b80601f01602080910402602001604051908101604052809291908181526020018280546117a390613a81565b80156117f05780601f106117c5576101008083540402835291602001916117f0565b820191906000526020600020905b8154815290600101906020018083116117d357829003601f168201915b50505050509080600501549080600601805461180b90613a81565b80601f016020809104026020016040519081016040528092919081815260200182805461183790613a81565b80156118845780601f1061185957610100808354040283529160200191611884565b820191906000526020600020905b81548152906001019060200180831161186757829003601f168201915b5050505050908060070154908060080160009054906101000a900460ff16905089565b7f46e0d1fa2be0423550e96859e7c25c6f3178358b189469f16373069e7f092a0a600e60008373ffffffffffffffffffffffffffffffffffffffff1673ffffffffffffffffffffffffffffffffffffffff1681526020019081526020016000208190555050565b7fa49807205ce4d355092ef5a8a18f56e8913cf4a201fbe287825b095693c2177581565b60076020528060005260406000206000915090508060000154908060010154908060020160009054906101000a900473ffffffffffffffffffffffffffffffffffffffff169080600301549080600401805461198d90613a81565b80601f01602080910402602001604051908101604052809291908181526020018280546119b990613a81565b8015611a065780601f106119db57610100808354040283529160200191611a06565b820191906000526020600020905b8154815290600101906020018083116119e957829003601f168201915b505050505090806005015490806006018054611a2190613a81565b80601f0160208091040260200160405190810160405280929190818152602001828054611a4d90613a81565b8015611a9a5780601f10611a6f57610100808354040283529160200191611a9a565b820191906000526020600020905b815481529060010190602001808311611a7d57829003601f168201915b5050505050908060070160009054906101000a900460ff16905088565b7fe61decff6e4a5c6b5a3d3cbd28f882e595173563b49353ce5f31dba2de7f05ee81565b7fa49807205ce4d355092ef5a8a18f56e8913cf4a201fbe287825b095693c2177580600e60003373ffffffffffffffffffffffffffffffffffffffff1673ffffffffffffffffffffffffffffffffffffffff1681526020019081526020016000205414611b7d576040517f08c379a0000000000000000000000000000000000000000000000000000000008152600401611b7490613805565b60405180910390fd5b611b85612cff565b50565b60096020528160005260406000208181548110611ba457600080fd5b90600052602060002001600091509150505481565b6060600c60008373ffffffffffffffffffffffffffffffffffffffff1673ffffffffffffffffffffffffffffffffffffffff168152602001908152602001600020805480602002602001604051908101604052809291908181526020018280548015611c4457602002820191906000526020600020905b815481526020019060010190808311611c30575b50505050509050919050565b600b6020528160005260406000208181548110611c6c57600080fd5b90600052602060002001600091509150505481565b611c89612d61565b611c91612c5b565b600060086000838152602001908152602001600020905060046005811115611cbc57611cbb6133fd565b5b8160050160009054906101000a900460ff166005811115611ce057611cdf6133fd565b5b14611d20576040517f08c379a0000000000000000000000000000000000000000000000000000000008152600401611d1790613f50565b60405180910390fd5b8060040154341015611d67576040517f08c379a0000000000000000000000000000000000000000000000000000000008152600401611d5e90613fbc565b60405180910390fd5b338160030160006101000a81548173ffffffffffffffffffffffffffffffffffffffff021916908373ffffffffffffffffffffffffffffffffffffffff16021790555060058160050160006101000a81548160ff02191690836005811115611dd257611dd16133fd565b5b02179055508060020160009054906101000a900473ffffffffffffffffffffffffffffffffffffffff1673ffffffffffffffffffffffffffffffffffffffff166108fc349081150290604051600060405180830381858888f19350505050158015611e41573d6000803e3d6000fd5b507fb8daedd8d8dd0484ed87158d972b26f7c77587ae180a436fd120692cf409d5c18233604051611e73929190613edb565b60405180910390a150611e84612da7565b50565b7f2a5f906c256a5d799494fcd066e1f6c077689de1cdb65052a1624de4bace99bf80600e60003373ffffffffffffffffffffffffffffffffffffffff1673ffffffffffffffffffffffffffffffffffffffff1681526020019081526020016000205414611f29576040517f08c379a0000000000000000000000000000000000000000000000000000000008152600401611f2090613805565b60405180910390fd5b611f31612c5b565b60036005811115611f4557611f446133fd565b5b6007600086815260200190815260200160002060070160009054906101000a900460ff166005811115611f7b57611f7a6133fd565b5b14611fbb576040517f08c379a0000000000000000000000000000000000000000000000000000000008152600401611fb29061404e565b60405180910390fd5b8260076000868152602001908152602001600020600301541015612014576040517f08c379a000000000000000000000000000000000000000000000000000000000815260040161200b906140ba565b60405180910390fd5b60008311612057576040517f08c379a000000000000000000000000000000000000000000000000000000000815260040161204e90613897565b60405180910390fd5b6000821161209a576040517f08c379a000000000000000000000000000000000000000000000000000000000815260040161209190613929565b60405180910390fd5b60005b8381101561225257600560008154809291906120b890613a0a565b9190505550600060055490506000600860008381526020019081526020016000209050818160000181905550868160010181905550338160020160006101000a81548173ffffffffffffffffffffffffffffffffffffffff021916908373ffffffffffffffffffffffffffffffffffffffff16021790555084816004018190555060048160050160006101000a81548160ff02191690836005811115612161576121606133fd565b5b0217905550600a6000888152602001908152602001600020829080600181540180825580915050600190039060005260206000200160009091909190915055600d60003373ffffffffffffffffffffffffffffffffffffffff1673ffffffffffffffffffffffffffffffffffffffff1681526020019081526020016000208290806001815401808255809150506001900390600052602060002001600090919091909150557f09d8d0427eee16da63ed3bdac07fab84ec34ee2daec6f697a705a2d57b430db58288338860405161223b94939291906140da565b60405180910390a15050808060010191505061209d565b5082600760008681526020019081526020016000206003016000828254612279919061411f565b9250508190555060006007600086815260200190815260200160002060030154036122de5760046007600086815260200190815260200160002060070160006101000a81548160ff021916908360058111156122d8576122d76133fd565b5b02179055505b50505050565b7fe61decff6e4a5c6b5a3d3cbd28f882e595173563b49353ce5f31dba2de7f05ee80600e60003373ffffffffffffffffffffffffffffffffffffffff1673ffffffffffffffffffffffffffffffffffffffff1681526020019081526020016000205414612386576040517f08c379a000000000000000000000000000000000000000000000000000000000815260040161237d90613805565b60405180910390fd5b61238e612c5b565b600060058111156123a2576123a16133fd565b5b6006600086815260200190815260200160002060080160009054906101000a900460ff1660058111156123d8576123d76133fd565b5b14612418576040517f08c379a000000000000000000000000000000000000000000000000000000000815260040161240f906141c5565b60405180910390fd5b8260066000868152602001908152602001600020600301541015612471576040517f08c379a000000000000000000000000000000000000000000000000000000000815260040161246890614257565b60405180910390fd5b600083116124b4576040517f08c379a00000000000000000000000000000000000000000000000000000000081526004016124ab90613897565b60405180910390fd5b600460008154809291906124c790613a0a565b9190505550600060045490506000600760008381526020019081526020016000209050818160000181905550858160010181905550338160020160006101000a81548173ffffffffffffffffffffffffffffffffffffffff021916908373ffffffffffffffffffffffffffffffffffffffff160217905550848160030181905550838160040190816125599190613c5e565b5042816005018190555060018160070160006101000a81548160ff0219169083600581111561258b5761258a6133fd565b5b0217905550846006600088815260200190815260200160002060030160008282546125b6919061411f565b92505081905550600060066000888152602001908152602001600020600301540361261b5760016006600088815260200190815260200160002060080160006101000a81548160ff02191690836005811115612615576126146133fd565b5b02179055505b60096000878152602001908152602001600020829080600181540180825580915050600190039060005260206000200160009091909190915055600c60003373ffffffffffffffffffffffffffffffffffffffff1673ffffffffffffffffffffffffffffffffffffffff1681526020019081526020016000208290806001815401808255809150506001900390600052602060002001600090919091909150557f141b3079c274098220312e440f51636ed70a96e38f681a444b588be27a4b96e382873388886040516126f2959493929190614277565b60405180910390a1505050505050565b600a602052816000526040600020818154811061271e57600080fd5b90600052602060002001600091509150505481565b7f46e0d1fa2be0423550e96859e7c25c6f3178358b189469f16373069e7f092a0a600e60008373ffffffffffffffffffffffffffffffffffffffff1673ffffffffffffffffffffffffffffffffffffffff1681526020019081526020016000208190555050565b60606000600e60008473ffffffffffffffffffffffffffffffffffffffff1673ffffffffffffffffffffffffffffffffffffffff1681526020019081526020016000205490507f7c6181838a71a779e445600d4c6ecbe16bacf2b3c5bda69c29fada66d1b645d18103612845576040518060400160405280600681526020017f4641524d45520000000000000000000000000000000000000000000000000000815250915050612a78565b7ffbd454f36a7e1a388bd6fc3ab10d434aa4578f811acbbcf33afb1c697486313c81036128aa576040518060400160405280600b81526020017f4449535452494255544f52000000000000000000000000000000000000000000815250915050612a78565b7f7c6181838a71a779e445600d4c6ecbe16bacf2b3c5bda69c29fada66d1b645d1810361290f576040518060400160405280600681526020017f4641524d45520000000000000000000000000000000000000000000000000000815250915050612a78565b7fe61decff6e4a5c6b5a3d3cbd28f882e595173563b49353ce5f31dba2de7f05ee8103612974576040518060400160405280600981526020017f50524f434553534f520000000000000000000000000000000000000000000000815250915050612a78565b7f66108bb9ee7f804cb1c563794e51989792a366e4b648e4b2b9189d9587e1880d81036129d9576040518060400160405280601181526020017f5155414c49545920494e53504543544f52000000000000000000000000000000815250915050612a78565b7fa49807205ce4d355092ef5a8a18f56e8913cf4a201fbe287825b095693c217758103612a3e576040518060400160405280600581526020017f41444d494e000000000000000000000000000000000000000000000000000000815250915050612a78565b6040518060400160405280600881526020017f435553544f4d45520000000000000000000000000000000000000000000000008152509150505b919050565b7f7c6181838a71a779e445600d4c6ecbe16bacf2b3c5bda69c29fada66d1b645d1600e60008373ffffffffffffffffffffffffffffffffffffffff1673ffffffffffffffffffffffffffffffffffffffff1681526020019081526020016000208190555050565b600c6020528160005260406000208181548110612b0057600080fd5b90600052602060002001600091509150505481565b7f46e0d1fa2be0423550e96859e7c25c6f3178358b189469f16373069e7f092a0a600e60008373ffffffffffffffffffffffffffffffffffffffff1673ffffffffffffffffffffffffffffffffffffffff1681526020019081526020016000208190555050565b7ffbd454f36a7e1a388bd6fc3ab10d434aa4578f811acbbcf33afb1c697486313c81565b7f7c6181838a71a779e445600d4c6ecbe16bacf2b3c5bda69c29fada66d1b645d181565b6060600d60008373ffffffffffffffffffffffffffffffffffffffff1673ffffffffffffffffffffffffffffffffffffffff168152602001908152602001600020805480602002602001604051908101604052809291908181526020018280548015612c4f57602002820191906000526020600020905b815481526020019060010190808311612c3b575b50505050509050919050565b612c63611462565b15612c9a576040517fd93c066500000000000000000000000000000000000000000000000000000000815260040160405180910390fd5b565b612ca4612db1565b6000600160006101000a81548160ff0219169083151502179055507f5db9ee0a495bf2e6ff9c91a7834c1ba4fdd244a5e8aa4e537bd38aeae4b073aa612ce8612df1565b604051612cf591906142d1565b60405180910390a1565b612d07612c5b565b60018060006101000a81548160ff0219169083151502179055507f62e78cea01bee320cd4e420270b5ea74000d11b0c9f74754ebdbfc544b05a258612d4a612df1565b604051612d5791906142d1565b60405180910390a1565b600260005403612d9d576040517f3ee5aeb500000000000000000000000000000000000000000000000000000000815260040160405180910390fd5b6002600081905550565b6001600081905550565b612db9611462565b612def576040517f8dfc202b00000000000000000000000000000000000000000000000000000000815260040160405180910390fd5b565b600033905090565b6000604051905090565b600080fd5b600080fd5b6000819050919050565b612e2081612e0d565b8114612e2b57600080fd5b50565b600081359050612e3d81612e17565b92915050565b600060208284031215612e5957612e58612e03565b5b6000612e6784828501612e2e565b91505092915050565b600081519050919050565b600082825260208201905092915050565b6000819050602082019050919050565b612ea581612e0d565b82525050565b6000612eb78383612e9c565b60208301905092915050565b6000602082019050919050565b6000612edb82612e70565b612ee58185612e7b565b9350612ef083612e8c565b8060005b83811015612f21578151612f088882612eab565b9750612f1383612ec3565b925050600181019050612ef4565b5085935050505092915050565b60006020820190508181036000830152612f488184612ed0565b905092915050565b600073ffffffffffffffffffffffffffffffffffffffff82169050919050565b6000612f7b82612f50565b9050919050565b612f8b81612f70565b8114612f9657600080fd5b50565b600081359050612fa881612f82565b92915050565b600060208284031215612fc457612fc3612e03565b5b6000612fd284828501612f99565b91505092915050565b600080fd5b600080fd5b6000601f19601f8301169050919050565b7f4e487b7100000000000000000000000000000000000000000000000000000000600052604160045260246000fd5b61302e82612fe5565b810181811067ffffffffffffffff8211171561304d5761304c612ff6565b5b80604052505050565b6000613060612df9565b905061306c8282613025565b919050565b600067ffffffffffffffff82111561308c5761308b612ff6565b5b61309582612fe5565b9050602081019050919050565b82818337600083830152505050565b60006130c46130bf84613071565b613056565b9050828152602081018484840111156130e0576130df612fe0565b5b6130eb8482856130a2565b509392505050565b600082601f83011261310857613107612fdb565b5b81356131188482602086016130b1565b91505092915050565b60008060008060008060c0878903121561313e5761313d612e03565b5b600087013567ffffffffffffffff81111561315c5761315b612e08565b5b61316889828a016130f3565b965050602061317989828a01612e2e565b955050604087013567ffffffffffffffff81111561319a57613199612e08565b5b6131a689828a016130f3565b94505060606131b789828a01612e2e565b935050608087013567ffffffffffffffff8111156131d8576131d7612e08565b5b6131e489828a016130f3565b92505060a06131f589828a01612e2e565b9150509295509295509295565b61320b81612e0d565b82525050565b61321a81612f70565b82525050565b600081519050919050565b600082825260208201905092915050565b60005b8381101561325a57808201518184015260208101905061323f565b60008484015250505050565b600061327182613220565b61327b818561322b565b935061328b81856020860161323c565b61329481612fe5565b840191505092915050565b6000610180820190506132b5600083018f613202565b6132c2602083018e613202565b6132cf604083018d613202565b6132dc606083018c613211565b6132e9608083018b613211565b6132f660a083018a613211565b61330360c0830189613211565b81810360e08301526133158188613266565b905081810361010083015261332a8187613266565b905061333a610120830186613202565b613348610140830185613202565b81810361016083015261335b8184613266565b90509d9c50505050505050505050505050565b6000819050919050565b6133818161336e565b82525050565b600060208201905061339c6000830184613378565b92915050565b600080604083850312156133b9576133b8612e03565b5b60006133c785828601612f99565b92505060206133d885828601612e2e565b9150509250929050565b60006020820190506133f76000830184613202565b92915050565b7f4e487b7100000000000000000000000000000000000000000000000000000000600052602160045260246000fd5b6006811061343d5761343c6133fd565b5b50565b600081905061344e8261342c565b919050565b600061345e82613440565b9050919050565b61346e81613453565b82525050565b600060c0820190506134896000830189613202565b6134966020830188613202565b6134a36040830187613211565b6134b06060830186613211565b6134bd6080830185613202565b6134ca60a0830184613465565b979650505050505050565b600080604083850312156134ec576134eb612e03565b5b60006134fa85828601612e2e565b925050602083013567ffffffffffffffff81111561351b5761351a612e08565b5b613527858286016130f3565b9150509250929050565b60008115159050919050565b61354681613531565b82525050565b6000602082019050613561600083018461353d565b92915050565b60006101208201905061357d600083018c613202565b818103602083015261358f818b613266565b905061359e604083018a613211565b6135ab6060830189613202565b81810360808301526135bd8188613266565b90506135cc60a0830187613202565b81810360c08301526135de8186613266565b90506135ed60e0830185613202565b6135fb610100830184613465565b9a9950505050505050505050565b60006101008201905061361f600083018b613202565b61362c602083018a613202565b6136396040830189613211565b6136466060830188613202565b81810360808301526136588187613266565b905061366760a0830186613202565b81810360c08301526136798185613266565b905061368860e0830184613465565b9998505050505050505050565b600080604083850312156136ac576136ab612e03565b5b60006136ba85828601612e2e565b92505060206136cb85828601612e2e565b9150509250929050565b6000806000606084860312156136ee576136ed612e03565b5b60006136fc86828701612e2e565b935050602061370d86828701612e2e565b925050604061371e86828701612e2e565b9150509250925092565b60008060006060848603121561374157613740612e03565b5b600061374f86828701612e2e565b935050602061376086828701612e2e565b925050604084013567ffffffffffffffff81111561378157613780612e08565b5b61378d868287016130f3565b9150509250925092565b600060208201905081810360008301526137b18184613266565b905092915050565b7f756e617574686f72697a65642063616c6c657200000000000000000000000000600082015250565b60006137ef60138361322b565b91506137fa826137b9565b602082019050919050565b6000602082019050818103600083015261381e816137e2565b9050919050565b7f5175616e74697479206d7573742062652067726561746572207468616e207a6560008201527f726f000000000000000000000000000000000000000000000000000000000000602082015250565b600061388160228361322b565b915061388c82613825565b604082019050919050565b600060208201905081810360008301526138b081613874565b9050919050565b7f50726963652070657220756e6974206d7573742062652067726561746572207460008201527f68616e207a65726f000000000000000000000000000000000000000000000000602082015250565b600061391360288361322b565b915061391e826138b7565b604082019050919050565b6000602082019050818103600083015261394281613906565b9050919050565b7f4861727665737420646174652063616e6e6f7420626520696e2074686520667560008201527f7475726500000000000000000000000000000000000000000000000000000000602082015250565b60006139a560248361322b565b91506139b082613949565b604082019050919050565b600060208201905081810360008301526139d481613998565b9050919050565b7f4e487b7100000000000000000000000000000000000000000000000000000000600052601160045260246000fd5b6000613a1582612e0d565b91507fffffffffffffffffffffffffffffffffffffffffffffffffffffffffffffffff8203613a4757613a466139db565b5b600182019050919050565b7f4e487b7100000000000000000000000000000000000000000000000000000000600052602260045260246000fd5b60006002820490506001821680613a9957607f821691505b602082108103613aac57613aab613a52565b5b50919050565b60008190508160005260206000209050919050565b60006020601f8301049050919050565b600082821b905092915050565b600060088302613b147fffffffffffffffffffffffffffffffffffffffffffffffffffffffffffffffff82613ad7565b613b1e8683613ad7565b95508019841693508086168417925050509392505050565b6000819050919050565b6000613b5b613b56613b5184612e0d565b613b36565b612e0d565b9050919050565b6000819050919050565b613b7583613b40565b613b89613b8182613b62565b848454613ae4565b825550505050565b600090565b613b9e613b91565b613ba9818484613b6c565b505050565b5b81811015613bcd57613bc2600082613b96565b600181019050613baf565b5050565b601f821115613c1257613be381613ab2565b613bec84613ac7565b81016020851015613bfb578190505b613c0f613c0785613ac7565b830182613bae565b50505b505050565b600082821c905092915050565b6000613c3560001984600802613c17565b1980831691505092915050565b6000613c4e8383613c24565b9150826002028217905092915050565b613c6782613220565b67ffffffffffffffff811115613c8057613c7f612ff6565b5b613c8a8254613a81565b613c95828285613bd1565b600060209050601f831160018114613cc85760008415613cb6578287015190505b613cc08582613c42565b865550613d28565b601f198416613cd686613ab2565b60005b82811015613cfe57848901518255600182019150602085019450602081019050613cd9565b86831015613d1b5784890151613d17601f891682613c24565b8355505b6001600288020188555050505b505050505050565b600060c082019050613d456000830189613202565b8181036020830152613d578188613266565b9050613d666040830187613211565b613d736060830186613202565b8181036080830152613d858185613266565b9050613d9460a0830184613202565b979650505050505050565b7f4261746368206d75737420626520696e2050726f636573736564207374617465600082015250565b6000613dd560208361322b565b9150613de082613d9f565b602082019050919050565b60006020820190508181036000830152613e0481613dc8565b9050919050565b6000606082019050613e206000830186613202565b613e2d6020830185613211565b8181036040830152613e3f8184613266565b9050949350505050565b7f4261746368206d75737420626520696e205175616c697479436865636b65642060008201527f7374617465000000000000000000000000000000000000000000000000000000602082015250565b6000613ea560258361322b565b9150613eb082613e49565b604082019050919050565b60006020820190508181036000830152613ed481613e98565b9050919050565b6000604082019050613ef06000830185613202565b613efd6020830184613211565b9392505050565b7f556e6974206d75737420626520696e2052657461696c65642073746174650000600082015250565b6000613f3a601e8361322b565b9150613f4582613f04565b602082019050919050565b60006020820190508181036000830152613f6981613f2d565b9050919050565b7f496e73756666696369656e74207061796d656e74000000000000000000000000600082015250565b6000613fa660148361322b565b9150613fb182613f70565b602082019050919050565b60006020820190508181036000830152613fd581613f99565b9050919050565b7f4261746368206d75737420626520696e2044697374726962757465642073746160008201527f7465000000000000000000000000000000000000000000000000000000000000602082015250565b600061403860228361322b565b915061404382613fdc565b604082019050919050565b600060208201905081810360008301526140678161402b565b9050919050565b7f496e73756666696369656e74207175616e7469747920696e2062617463680000600082015250565b60006140a4601e8361322b565b91506140af8261406e565b602082019050919050565b600060208201905081810360008301526140d381614097565b9050919050565b60006080820190506140ef6000830187613202565b6140fc6020830186613202565b6141096040830185613211565b6141166060830184613202565b95945050505050565b600061412a82612e0d565b915061413583612e0d565b925082820390508181111561414d5761414c6139db565b5b92915050565b7f42756c6b20737570706c79206d75737420626520696e2052656769737465726560008201527f6420737461746500000000000000000000000000000000000000000000000000602082015250565b60006141af60278361322b565b91506141ba82614153565b604082019050919050565b600060208201905081810360008301526141de816141a2565b9050919050565b7f496e73756666696369656e74207175616e7469747920696e2062756c6b20737560008201527f70706c7900000000000000000000000000000000000000000000000000000000602082015250565b600061424160248361322b565b915061424c826141e5565b604082019050919050565b6000602082019050818103600083015261427081614234565b9050919050565b600060a08201905061428c6000830188613202565b6142996020830187613202565b6142a66040830186613211565b6142b36060830185613202565b81810360808301526142c58184613266565b90509695505050505050565b60006020820190506142e66000830184613211565b9291505056fea2646970667358221220807a6dabf44b63cada0423e967422d43120dc6cc6d0d23ee96fc89db7aa87b0964736f6c634300081b0033",
  "linkReferences": {},
  "deployedLinkReferences": {}
}