{
  "_format": "hh-sol-artifact-1",
  "contractName": "FarmSupplyChain",
  "sourceName": "contracts/FarmSupplyChain.sol",
  "abi": [
    {
      "inputs": [],
      "stateMutability": "nonpayable",
      "type": "constructor"
    },
    {
      "inputs": [],
      "name": "EnforcedPause",
      "type": "error"
    },
    {
      "inputs": [],
      "name": "ExpectedPause",
      "type": "error"
    },
    {
      "inputs": [],
      "name": "ReentrancyGuardReentrantCall",
      "type": "error"
    },
    {
      "anonymous": false,
      "inputs": [
        {
          "indexed": true,
          "internalType": "uint256",
          "name": "id",
          "type": "uint256"
        },
        {
          "indexed": true,
          "internalType": "address",
          "name": "distributor",
          "type": "address"
        }
      ],
      "name": "BatchDistributed",
      "type": "event"
    },
    {
      "anonymous": false,
      "inputs": [
        {
          "indexed": true,
          "internalType": "uint256",
          "name": "id",
          "type": "uint256"
        },
        {
          "indexed": true,
          "internalType": "uint256",
          "name": "bulkSupplyId",
          "type": "uint256"
        },
        {
          "indexed": true,
          "internalType": "address",
          "name": "processor",
          "type": "address"
        },
        {
          "indexed": false,
          "internalType": "uint256",
          "name": "quantity",
          "type": "uint256"
        }
      ],
      "name": "BatchProcessed",
      "type": "event"
    },
    {
      "anonymous": false,
      "inputs": [
        {
          "indexed": true,
          "internalType": "uint256",
          "name": "id",
          "type": "uint256"
        },
        {
          "indexed": true,
          "internalType": "address",
          "name": "inspector",
          "type": "address"
        },
        {
          "indexed": true,
          "internalType": "string",
          "name": "qualityGrade",
          "type": "string"
        }
      ],
      "name": "BatchQualityChecked",
      "type": "event"
    },
    {
      "anonymous": false,
      "inputs": [
        {
          "indexed": true,
          "internalType": "uint256",
          "name": "id",
          "type": "uint256"
        },
        {
          "indexed": false,
          "internalType": "string",
          "name": "name",
          "type": "string"
        },
        {
          "indexed": true,
          "internalType": "address",
          "name": "farmer",
          "type": "address"
        },
        {
          "indexed": false,
          "internalType": "uint256",
          "name": "quantity",
          "type": "uint256"
        },
        {
          "indexed": false,
          "internalType": "string",
          "name": "unit",
          "type": "string"
        },
        {
          "indexed": false,
          "internalType": "uint256",
          "name": "pricePerUnit",
          "type": "uint256"
        }
      ],
      "name": "BulkSupplyRegistered",
      "type": "event"
    },
    {
      "anonymous": false,
      "inputs": [
        {
          "indexed": false,
          "internalType": "address",
          "name": "account",
          "type": "address"
        }
      ],
      "name": "Paused",
      "type": "event"
    },
    {
      "anonymous": false,
      "inputs": [
        {
          "indexed": true,
          "internalType": "uint256",
          "name": "_supplyId",
          "type": "uint256"
        },
        {
          "indexed": true,
          "internalType": "address",
          "name": "processor",
          "type": "address"
        },
        {
          "indexed": false,
          "internalType": "string",
          "name": "_qualityGrade",
          "type": "string"
        }
      ],
      "name": "ReportSuplyQuality",
      "type": "event"
    },
    {
      "anonymous": false,
      "inputs": [
        {
          "indexed": true,
          "internalType": "uint256",
          "name": "id",
          "type": "uint256"
        },
        {
          "indexed": true,
          "internalType": "uint256",
          "name": "batchId",
          "type": "uint256"
        },
        {
          "indexed": true,
          "internalType": "address",
          "name": "retailer",
          "type": "address"
        },
        {
          "indexed": false,
          "internalType": "uint256",
          "name": "price",
          "type": "uint256"
        }
      ],
      "name": "UnitRetailed",
      "type": "event"
    },
    {
      "anonymous": false,
      "inputs": [
        {
          "indexed": true,
          "internalType": "uint256",
          "name": "id",
          "type": "uint256"
        },
        {
          "indexed": true,
          "internalType": "address",
          "name": "consumer",
          "type": "address"
        }
      ],
      "name": "UnitSold",
      "type": "event"
    },
    {
      "anonymous": false,
      "inputs": [
        {
          "indexed": false,
          "internalType": "address",
          "name": "account",
          "type": "address"
        }
      ],
      "name": "Unpaused",
      "type": "event"
    },
    {
      "inputs": [],
      "name": "ADMIN_ROLE",
      "outputs": [
        {
          "internalType": "bytes32",
          "name": "",
          "type": "bytes32"
        }
      ],
      "stateMutability": "view",
      "type": "function"
    },
    {
      "inputs": [],
      "name": "DISTRIBUTOR_ROLE",
      "outputs": [
        {
          "internalType": "bytes32",
          "name": "",
          "type": "bytes32"
        }
      ],
      "stateMutability": "view",
      "type": "function"
    },
    {
      "inputs": [],
      "name": "FARMER_ROLE",
      "outputs": [
        {
          "internalType": "bytes32",
          "name": "",
          "type": "bytes32"
        }
      ],
      "stateMutability": "view",
      "type": "function"
    },
    {
      "inputs": [],
      "name": "PROCESSOR_ROLE",
      "outputs": [
        {
          "internalType": "bytes32",
          "name": "",
          "type": "bytes32"
        }
      ],
      "stateMutability": "view",
      "type": "function"
    },
    {
      "inputs": [],
      "name": "QUALITY_INSPECTOR_ROLE",
      "outputs": [
        {
          "internalType": "bytes32",
          "name": "",
          "type": "bytes32"
        }
      ],
      "stateMutability": "view",
      "type": "function"
    },
    {
      "inputs": [],
      "name": "RETAILER_ROLE",
      "outputs": [
        {
          "internalType": "bytes32",
          "name": "",
          "type": "bytes32"
        }
      ],
      "stateMutability": "view",
      "type": "function"
    },
    {
      "inputs": [
        {
          "internalType": "uint256",
          "name": "",
          "type": "uint256"
        },
        {
          "internalType": "uint256",
          "name": "",
          "type": "uint256"
        }
      ],
      "name": "batchToUnits",
      "outputs": [
        {
          "internalType": "uint256",
          "name": "",
          "type": "uint256"
        }
      ],
      "stateMutability": "view",
      "type": "function"
    },
    {
      "inputs": [
        {
          "internalType": "uint256",
          "name": "",
          "type": "uint256"
        }
      ],
      "name": "bulkSupplies",
      "outputs": [
        {
          "internalType": "uint256",
          "name": "id",
          "type": "uint256"
        },
        {
          "internalType": "string",
          "name": "name",
          "type": "string"
        },
        {
          "internalType": "address",
          "name": "farmer",
          "type": "address"
        },
        {
          "internalType": "uint256",
          "name": "quantity",
          "type": "uint256"
        },
        {
          "internalType": "string",
          "name": "unit",
          "type": "string"
        },
        {
          "internalType": "uint256",
          "name": "pricePerUnit",
          "type": "uint256"
        },
        {
          "internalType": "string",
          "name": "originLocation",
          "type": "string"
        },
        {
          "internalType": "string",
          "name": "qualityGrade",
          "type": "string"
        },
        {
          "internalType": "enum IFarmSupplyChain.SupplyState",
          "name": "state",
          "type": "uint8"
        }
      ],
      "stateMutability": "view",
      "type": "function"
    },
    {
      "inputs": [
        {
          "internalType": "uint256",
          "name": "",
          "type": "uint256"
        },
        {
          "internalType": "uint256",
          "name": "",
          "type": "uint256"
        }
      ],
      "name": "bulkSupplyToBatches",
      "outputs": [
        {
          "internalType": "uint256",
          "name": "",
          "type": "uint256"
        }
      ],
      "stateMutability": "view",
      "type": "function"
    },
    {
      "inputs": [
        {
          "internalType": "address",
          "name": "_farmer",
          "type": "address"
        }
      ],
      "name": "createFarmer",
      "outputs": [],
      "stateMutability": "nonpayable",
      "type": "function"
    },
    {
      "inputs": [
        {
          "internalType": "address",
          "name": "_processor",
          "type": "address"
        }
      ],
      "name": "createProcessor",
      "outputs": [],
      "stateMutability": "nonpayable",
      "type": "function"
    },
    {
      "inputs": [
        {
          "internalType": "uint256",
          "name": "_batchId",
          "type": "uint256"
        },
        {
          "internalType": "uint256",
          "name": "_quantity",
          "type": "uint256"
        },
        {
          "internalType": "uint256",
          "name": "_pricePerUnit",
          "type": "uint256"
        }
      ],
      "name": "createRetailUnits",
      "outputs": [],
      "stateMutability": "nonpayable",
      "type": "function"
    },
    {
      "inputs": [
        {
          "internalType": "address",
          "name": "_retailer",
          "type": "address"
        }
      ],
      "name": "createRetailer",
      "outputs": [],
      "stateMutability": "nonpayable",
      "type": "function"
    },
    {
      "inputs": [
        {
          "internalType": "uint256",
          "name": "_batchId",
          "type": "uint256"
        }
      ],
      "name": "distributeBatch",
      "outputs": [],
      "stateMutability": "nonpayable",
      "type": "function"
    },
    {
      "inputs": [
        {
          "internalType": "address",
          "name": "",
          "type": "address"
        },
        {
          "internalType": "uint256",
          "name": "",
          "type": "uint256"
        }
      ],
      "name": "farmerSupplies",
      "outputs": [
        {
          "internalType": "uint256",
          "name": "",
          "type": "uint256"
        }
      ],
      "stateMutability": "view",
      "type": "function"
    },
    {
      "inputs": [
        {
          "internalType": "uint256",
          "name": "_batchId",
          "type": "uint256"
        }
      ],
      "name": "getBatchUnits",
      "outputs": [
        {
          "internalType": "uint256[]",
          "name": "",
          "type": "uint256[]"
        }
      ],
      "stateMutability": "view",
      "type": "function"
    },
    {
      "inputs": [
        {
          "internalType": "uint256",
          "name": "_bulkSupplyId",
          "type": "uint256"
        }
      ],
      "name": "getBulkSupplyBatches",
      "outputs": [
        {
          "internalType": "uint256[]",
          "name": "",
          "type": "uint256[]"
        }
      ],
      "stateMutability": "view",
      "type": "function"
    },
    {
      "inputs": [
        {
          "internalType": "address",
          "name": "_farmer",
          "type": "address"
        }
      ],
      "name": "getFarmerSupplies",
      "outputs": [
        {
          "internalType": "uint256[]",
          "name": "",
          "type": "uint256[]"
        }
      ],
      "stateMutability": "view",
      "type": "function"
    },
    {
      "inputs": [
        {
          "internalType": "address",
          "name": "_processor",
          "type": "address"
        }
      ],
      "name": "getProcessorBatches",
      "outputs": [
        {
          "internalType": "uint256[]",
          "name": "",
          "type": "uint256[]"
        }
      ],
      "stateMutability": "view",
      "type": "function"
    },
    {
      "inputs": [
        {
          "internalType": "address",
          "name": "_retailer",
          "type": "address"
        }
      ],
      "name": "getRetailerUnits",
      "outputs": [
        {
          "internalType": "uint256[]",
          "name": "",
          "type": "uint256[]"
        }
      ],
      "stateMutability": "view",
      "type": "function"
    },
    {
      "inputs": [
        {
          "internalType": "uint256",
          "name": "_unitId",
          "type": "uint256"
        }
      ],
      "name": "getUnitHistory",
      "outputs": [
        {
          "internalType": "uint256",
          "name": "unitId",
          "type": "uint256"
        },
        {
          "internalType": "uint256",
          "name": "batchId",
          "type": "uint256"
        },
        {
          "internalType": "uint256",
          "name": "bulkSupplyId",
          "type": "uint256"
        },
        {
          "internalType": "address",
          "name": "farmer",
          "type": "address"
        },
        {
          "internalType": "address",
          "name": "processor",
          "type": "address"
        },
        {
          "internalType": "address",
          "name": "retailer",
          "type": "address"
        },
        {
          "internalType": "address",
          "name": "consumer",
          "type": "address"
        },
        {
          "internalType": "string",
          "name": "productName",
          "type": "string"
        },
        {
          "internalType": "string",
          "name": "originLocation",
          "type": "string"
        },
        {
          "internalType": "uint256",
          "name": "processingDate",
          "type": "uint256"
        },
        {
          "internalType": "string",
          "name": "qualityGrade",
          "type": "string"
        }
      ],
      "stateMutability": "view",
      "type": "function"
    },
    {
      "inputs": [],
      "name": "pause",
      "outputs": [],
      "stateMutability": "nonpayable",
      "type": "function"
    },
    {
      "inputs": [],
      "name": "paused",
      "outputs": [
        {
          "internalType": "bool",
          "name": "",
          "type": "bool"
        }
      ],
      "stateMutability": "view",
      "type": "function"
    },
    {
      "inputs": [
        {
          "internalType": "uint256",
          "name": "_bulkSupplyId",
          "type": "uint256"
        },
        {
          "internalType": "uint256",
          "name": "_quantity",
          "type": "uint256"
        }
      ],
      "name": "processBatch",
      "outputs": [],
      "stateMutability": "nonpayable",
      "type": "function"
    },
    {
      "inputs": [
        {
          "internalType": "uint256",
          "name": "",
          "type": "uint256"
        }
      ],
      "name": "processedBatches",
      "outputs": [
        {
          "internalType": "uint256",
          "name": "id",
          "type": "uint256"
        },
        {
          "internalType": "uint256",
          "name": "bulkSupplyId",
          "type": "uint256"
        },
        {
          "internalType": "address",
          "name": "processor",
          "type": "address"
        },
        {
          "internalType": "uint256",
          "name": "quantity",
          "type": "uint256"
        },
        {
          "internalType": "uint256",
          "name": "processingDate",
          "type": "uint256"
        },
        {
          "internalType": "string",
          "name": "qualityGrade",
          "type": "string"
        },
        {
          "internalType": "enum IFarmSupplyChain.SupplyState",
          "name": "state",
          "type": "uint8"
        }
      ],
      "stateMutability": "view",
      "type": "function"
    },
    {
      "inputs": [
        {
          "internalType": "address",
          "name": "",
          "type": "address"
        },
        {
          "internalType": "uint256",
          "name": "",
          "type": "uint256"
        }
      ],
      "name": "processorBatches",
      "outputs": [
        {
          "internalType": "uint256",
          "name": "",
          "type": "uint256"
        }
      ],
      "stateMutability": "view",
      "type": "function"
    },
    {
      "inputs": [
        {
          "internalType": "string",
          "name": "_name",
          "type": "string"
        },
        {
          "internalType": "uint256",
          "name": "_quantity",
          "type": "uint256"
        },
        {
          "internalType": "string",
          "name": "_unit",
          "type": "string"
        },
        {
          "internalType": "uint256",
          "name": "_pricePerUnit",
          "type": "uint256"
        },
        {
          "internalType": "string",
          "name": "_originLocation",
          "type": "string"
        }
      ],
      "name": "registerBulkSupply",
      "outputs": [],
      "stateMutability": "nonpayable",
      "type": "function"
    },
    {
      "inputs": [
        {
          "internalType": "address",
          "name": "_farmer",
          "type": "address"
        }
      ],
      "name": "removeFarmer",
      "outputs": [],
      "stateMutability": "nonpayable",
      "type": "function"
    },
    {
      "inputs": [
        {
          "internalType": "address",
          "name": "_processor",
          "type": "address"
        }
      ],
      "name": "removeProcessor",
      "outputs": [],
      "stateMutability": "nonpayable",
      "type": "function"
    },
    {
      "inputs": [
        {
          "internalType": "address",
          "name": "_retailer",
          "type": "address"
        }
      ],
      "name": "removeRetailer",
      "outputs": [],
      "stateMutability": "nonpayable",
      "type": "function"
    },
    {
      "inputs": [
        {
          "internalType": "uint256",
          "name": "_batchId",
          "type": "uint256"
        },
        {
          "internalType": "string",
          "name": "_qualityGrade",
          "type": "string"
        }
      ],
      "name": "reportBatchQuality",
      "outputs": [],
      "stateMutability": "nonpayable",
      "type": "function"
    },
    {
      "inputs": [
        {
          "internalType": "uint256",
          "name": "_supplyId",
          "type": "uint256"
        },
        {
          "internalType": "string",
          "name": "_qualityGrade",
          "type": "string"
        }
      ],
      "name": "reportSupplyQuality",
      "outputs": [],
      "stateMutability": "nonpayable",
      "type": "function"
    },
    {
      "inputs": [
        {
          "internalType": "uint256",
          "name": "",
          "type": "uint256"
        }
      ],
      "name": "retailUnits",
      "outputs": [
        {
          "internalType": "uint256",
          "name": "id",
          "type": "uint256"
        },
        {
          "internalType": "uint256",
          "name": "batchId",
          "type": "uint256"
        },
        {
          "internalType": "address",
          "name": "retailer",
          "type": "address"
        },
        {
          "internalType": "address",
          "name": "consumer",
          "type": "address"
        },
        {
          "internalType": "uint256",
          "name": "price",
          "type": "uint256"
        },
        {
          "internalType": "enum IFarmSupplyChain.SupplyState",
          "name": "state",
          "type": "uint8"
        }
      ],
      "stateMutability": "view",
      "type": "function"
    },
    {
      "inputs": [
        {
          "internalType": "address",
          "name": "",
          "type": "address"
        },
        {
          "internalType": "uint256",
          "name": "",
          "type": "uint256"
        }
      ],
      "name": "retailerUnits",
      "outputs": [
        {
          "internalType": "uint256",
          "name": "",
          "type": "uint256"
        }
      ],
      "stateMutability": "view",
      "type": "function"
    },
    {
      "inputs": [
        {
          "internalType": "address",
          "name": "_account",
          "type": "address"
        }
      ],
      "name": "role",
      "outputs": [
        {
          "internalType": "string",
          "name": "",
          "type": "string"
        }
      ],
      "stateMutability": "view",
      "type": "function"
    },
    {
      "inputs": [
        {
          "internalType": "uint256",
          "name": "_unitId",
          "type": "uint256"
        }
      ],
      "name": "sellUnit",
      "outputs": [],
      "stateMutability": "payable",
      "type": "function"
    },
    {
      "inputs": [],
      "name": "unpause",
      "outputs": [],
      "stateMutability": "nonpayable",
      "type": "function"
    }
  ],
  "bytecode": "0x6080604052348015600f57600080fd5b5060016000819055506000600160006101000a81548160ff02191690831515021790555060766040518060400160405280600a81526020017f41444d494e5f524f4c450000000000000000000000000000000000000000000081525033607a60201b60201c565b607e565b5050565b614efc8061008d6000396000f3fe60806040526004361061021a5760003560e01c806375ecd7d311610123578063c3163488116100ab578063e6bf3fdc1161006f578063e6bf3fdc1461084d578063ec0030f514610876578063f0bd87cc1461089f578063f3943970146108ca578063fdbb7964146108f55761021a565b8063c316348814610744578063d2ef4f3b14610781578063d590f8c9146107aa578063e4572019146107e7578063e581c491146108105761021a565b806386ce7509116100f257806386ce7509146106485780639560419f1461068557806395f2e02f146106c2578063b742a751146106ff578063b7449d0d1461071b5761021a565b806375ecd7d31461059a5780637ee35ef3146105c35780638222bdb2146106065780638456cb59146106315761021a565b80633b510b1d116101a657806368a22ee01161017557806368a22ee01461049b5780636a131175146104d85780636a4e5cf71461050157806370099ec81461054657806375b238fc1461056f5761021a565b80633b510b1d146103ec5780633f4ba83a1461042e5780634e20c362146104455780635c975abb146104705761021a565b80631d7d1a2e116101ed5780631d7d1a2e1461030957806320331350146103325780632115e7bf1461035b57806325b3557f14610386578063345b2bec146103af5761021a565b80630866b86b1461021f578063112ab78a1461025c578063187f0df6146102855780631cbef6ba146102cc575b600080fd5b34801561022b57600080fd5b5061024660048036038101906102419190613ab3565b610932565b6040516102539190613b9e565b60405180910390f35b34801561026857600080fd5b50610283600480360381019061027e9190613c1e565b61099d565b005b34801561029157600080fd5b506102ac60048036038101906102a79190613ab3565b610a04565b6040516102c39b9a99989796959493929190613cf9565b60405180910390f35b3480156102d857600080fd5b506102f360048036038101906102ee9190613c1e565b610ce3565b6040516103009190613b9e565b60405180910390f35b34801561031557600080fd5b50610330600480360381019061032b9190613eee565b610d7a565b005b34801561033e57600080fd5b5061035960048036038101906103549190613c1e565b610f70565b005b34801561036757600080fd5b50610370610fd7565b60405161037d9190613f63565b60405180910390f35b34801561039257600080fd5b506103ad60048036038101906103a89190613eee565b610ffb565b005b3480156103bb57600080fd5b506103d660048036038101906103d19190613f7e565b6114a4565b6040516103e39190613fbe565b60405180910390f35b3480156103f857600080fd5b50610413600480360381019061040e9190613ab3565b6114d5565b60405161042596959493929190614050565b60405180910390f35b34801561043a57600080fd5b5061044361155e565b005b34801561045157600080fd5b5061045a61160b565b6040516104679190613f63565b60405180910390f35b34801561047c57600080fd5b5061048561162f565b60405161049291906140cc565b60405180910390f35b3480156104a757600080fd5b506104c260048036038101906104bd9190613ab3565b611646565b6040516104cf9190613b9e565b60405180910390f35b3480156104e457600080fd5b506104ff60048036038101906104fa9190613ab3565b6116b1565b005b34801561050d57600080fd5b5061052860048036038101906105239190613ab3565b61186c565b60405161053d999897969594939291906140e7565b60405180910390f35b34801561055257600080fd5b5061056d60048036038101906105689190613c1e565b611b07565b005b34801561057b57600080fd5b50610584611b6e565b6040516105919190613f63565b60405180910390f35b3480156105a657600080fd5b506105c160048036038101906105bc9190614190565b611b92565b005b3480156105cf57600080fd5b506105ea60048036038101906105e59190613ab3565b611ff2565b6040516105fd979695949392919061425f565b60405180910390f35b34801561061257600080fd5b5061061b6120e9565b6040516106289190613f63565b60405180910390f35b34801561063d57600080fd5b5061064661210d565b005b34801561065457600080fd5b5061066f600480360381019061066a91906142d5565b6121ba565b60405161067c9190613fbe565b60405180910390f35b34801561069157600080fd5b506106ac60048036038101906106a79190613c1e565b6121eb565b6040516106b99190613b9e565b60405180910390f35b3480156106ce57600080fd5b506106e960048036038101906106e49190613f7e565b612282565b6040516106f69190613fbe565b60405180910390f35b61071960048036038101906107149190613ab3565b6122b3565b005b34801561072757600080fd5b50610742600480360381019061073d9190614315565b6124c4565b005b34801561075057600080fd5b5061076b600480360381019061076691906142d5565b612b7f565b6040516107789190613fbe565b60405180910390f35b34801561078d57600080fd5b506107a860048036038101906107a39190613c1e565b612bb0565b005b3480156107b657600080fd5b506107d160048036038101906107cc9190613c1e565b612c17565b6040516107de9190614368565b60405180910390f35b3480156107f357600080fd5b5061080e60048036038101906108099190613c1e565b612efa565b005b34801561081c57600080fd5b5061083760048036038101906108329190613f7e565b612f61565b6040516108449190613fbe565b60405180910390f35b34801561085957600080fd5b50610874600480360381019061086f9190613c1e565b612f92565b005b34801561088257600080fd5b5061089d600480360381019061089891906142d5565b612ff9565b005b3480156108ab57600080fd5b506108b4613787565b6040516108c19190613f63565b60405180910390f35b3480156108d657600080fd5b506108df6137ab565b6040516108ec9190613f63565b60405180910390f35b34801561090157600080fd5b5061091c60048036038101906109179190613c1e565b6137cf565b6040516109299190613b9e565b60405180910390f35b6060600a600083815260200190815260200160002080548060200260200160405190810160405280929190818152602001828054801561099157602002820191906000526020600020905b81548152602001906001019080831161097d575b50505050509050919050565b7fe61decff6e4a5c6b5a3d3cbd28f882e595173563b49353ce5f31dba2de7f05ee600e60008373ffffffffffffffffffffffffffffffffffffffff1673ffffffffffffffffffffffffffffffffffffffff1681526020019081526020016000208190555050565b6000806000806000806000606080600060606000600860008e815260200190815260200160002090506000600760008360010154815260200190815260200160002090506000600660008360010154815260200190815260200160002090508260000154836001015483600101548360020160009054906101000a900473ffffffffffffffffffffffffffffffffffffffff168560020160009054906101000a900473ffffffffffffffffffffffffffffffffffffffff168760020160009054906101000a900473ffffffffffffffffffffffffffffffffffffffff168860030160009054906101000a900473ffffffffffffffffffffffffffffffffffffffff1687600101886006018a600401548b600501838054610b23906143b9565b80601f0160208091040260200160405190810160405280929190818152602001828054610b4f906143b9565b8015610b9c5780601f10610b7157610100808354040283529160200191610b9c565b820191906000526020600020905b815481529060010190602001808311610b7f57829003601f168201915b50505050509350828054610baf906143b9565b80601f0160208091040260200160405190810160405280929190818152602001828054610bdb906143b9565b8015610c285780601f10610bfd57610100808354040283529160200191610c28565b820191906000526020600020905b815481529060010190602001808311610c0b57829003601f168201915b50505050509250808054610c3b906143b9565b80601f0160208091040260200160405190810160405280929190818152602001828054610c67906143b9565b8015610cb45780601f10610c8957610100808354040283529160200191610cb4565b820191906000526020600020905b815481529060010190602001808311610c9757829003601f168201915b505050505090509d509d509d509d509d509d509d509d509d509d509d5050505091939597999b90929496989a50565b6060600b60008373ffffffffffffffffffffffffffffffffffffffff1673ffffffffffffffffffffffffffffffffffffffff168152602001908152602001600020805480602002602001604051908101604052809291908181526020018280548015610d6e57602002820191906000526020600020905b815481526020019060010190808311610d5a575b50505050509050919050565b7f66108bb9ee7f804cb1c563794e51989792a366e4b648e4b2b9189d9587e1880d80600e60003373ffffffffffffffffffffffffffffffffffffffff1673ffffffffffffffffffffffffffffffffffffffff1681526020019081526020016000205414610e1c576040517f08c379a0000000000000000000000000000000000000000000000000000000008152600401610e1390614436565b60405180910390fd5b610e24613866565b60016005811115610e3857610e37613fd9565b5b6007600085815260200190815260200160002060060160009054906101000a900460ff166005811115610e6e57610e6d613fd9565b5b14610eae576040517f08c379a0000000000000000000000000000000000000000000000000000000008152600401610ea5906144a2565b60405180910390fd5b81600760008581526020019081526020016000206005019081610ed1919061466e565b5060026007600085815260200190815260200160002060060160006101000a81548160ff02191690836005811115610f0c57610f0b613fd9565b5b021790555081604051610f1f919061477c565b60405180910390203373ffffffffffffffffffffffffffffffffffffffff16847f9d753b365824c361cec419758c5f2b8546da1f4e90a776d5c7c0ca0a5141d34d60405160405180910390a4505050565b7f2a5f906c256a5d799494fcd066e1f6c077689de1cdb65052a1624de4bace99bf600e60008373ffffffffffffffffffffffffffffffffffffffff1673ffffffffffffffffffffffffffffffffffffffff1681526020019081526020016000208190555050565b7f2a5f906c256a5d799494fcd066e1f6c077689de1cdb65052a1624de4bace99bf81565b7fe61decff6e4a5c6b5a3d3cbd28f882e595173563b49353ce5f31dba2de7f05ee80600e60003373ffffffffffffffffffffffffffffffffffffffff1673ffffffffffffffffffffffffffffffffffffffff168152602001908152602001600020541461109d576040517f08c379a000000000000000000000000000000000000000000000000000000000815260040161109490614436565b60405180910390fd5b6110a5613866565b60006006600085815260200190815260200160002060405180610120016040529081600082015481526020016001820180546110e0906143b9565b80601f016020809104026020016040519081016040528092919081815260200182805461110c906143b9565b80156111595780601f1061112e57610100808354040283529160200191611159565b820191906000526020600020905b81548152906001019060200180831161113c57829003601f168201915b505050505081526020016002820160009054906101000a900473ffffffffffffffffffffffffffffffffffffffff1673ffffffffffffffffffffffffffffffffffffffff1673ffffffffffffffffffffffffffffffffffffffff168152602001600382015481526020016004820180546111d2906143b9565b80601f01602080910402602001604051908101604052809291908181526020018280546111fe906143b9565b801561124b5780601f106112205761010080835404028352916020019161124b565b820191906000526020600020905b81548152906001019060200180831161122e57829003601f168201915b505050505081526020016005820154815260200160068201805461126e906143b9565b80601f016020809104026020016040519081016040528092919081815260200182805461129a906143b9565b80156112e75780601f106112bc576101008083540402835291602001916112e7565b820191906000526020600020905b8154815290600101906020018083116112ca57829003601f168201915b50505050508152602001600782018054611300906143b9565b80601f016020809104026020016040519081016040528092919081815260200182805461132c906143b9565b80156113795780601f1061134e57610100808354040283529160200191611379565b820191906000526020600020905b81548152906001019060200180831161135c57829003601f168201915b505050505081526020016008820160009054906101000a900460ff1660058111156113a7576113a6613fd9565b5b60058111156113b9576113b8613fd9565b5b815250509050600060058111156113d3576113d2613fd9565b5b81610100015160058111156113eb576113ea613fd9565b5b1461142b576040517f08c379a0000000000000000000000000000000000000000000000000000000008152600401611422906147df565b60405180910390fd5b8260066000868152602001908152602001600020600701908161144e919061466e565b503373ffffffffffffffffffffffffffffffffffffffff16847f5dcb18e08afb44f6a7c30f64fedf402df69f1649ca956b63cc1c065586f389af856040516114969190614368565b60405180910390a350505050565b600d60205281600052604060002081815481106114c057600080fd5b90600052602060002001600091509150505481565b60086020528060005260406000206000915090508060000154908060010154908060020160009054906101000a900473ffffffffffffffffffffffffffffffffffffffff16908060030160009054906101000a900473ffffffffffffffffffffffffffffffffffffffff16908060040154908060050160009054906101000a900460ff16905086565b7fa49807205ce4d355092ef5a8a18f56e8913cf4a201fbe287825b095693c2177580600e60003373ffffffffffffffffffffffffffffffffffffffff1673ffffffffffffffffffffffffffffffffffffffff1681526020019081526020016000205414611600576040517f08c379a00000000000000000000000000000000000000000000000000000000081526004016115f790614436565b60405180910390fd5b6116086138a7565b50565b7f66108bb9ee7f804cb1c563794e51989792a366e4b648e4b2b9189d9587e1880d81565b6000600160009054906101000a900460ff16905090565b6060600960008381526020019081526020016000208054806020026020016040519081016040528092919081815260200182805480156116a557602002820191906000526020600020905b815481526020019060010190808311611691575b50505050509050919050565b7ffbd454f36a7e1a388bd6fc3ab10d434aa4578f811acbbcf33afb1c697486313c80600e60003373ffffffffffffffffffffffffffffffffffffffff1673ffffffffffffffffffffffffffffffffffffffff1681526020019081526020016000205414611753576040517f08c379a000000000000000000000000000000000000000000000000000000000815260040161174a90614436565b60405180910390fd5b61175b613866565b6002600581111561176f5761176e613fd9565b5b6007600084815260200190815260200160002060060160009054906101000a900460ff1660058111156117a5576117a4613fd9565b5b146117e5576040517f08c379a00000000000000000000000000000000000000000000000000000000081526004016117dc90614871565b60405180910390fd5b60036007600084815260200190815260200160002060060160006101000a81548160ff0219169083600581111561181f5761181e613fd9565b5b02179055503373ffffffffffffffffffffffffffffffffffffffff16827f1819b9d7d626ec3af4939bae99a343ea238d24bd02ab7d976f339a8fd158f37260405160405180910390a35050565b6006602052806000526040600020600091509050806000015490806001018054611895906143b9565b80601f01602080910402602001604051908101604052809291908181526020018280546118c1906143b9565b801561190e5780601f106118e35761010080835404028352916020019161190e565b820191906000526020600020905b8154815290600101906020018083116118f157829003601f168201915b5050505050908060020160009054906101000a900473ffffffffffffffffffffffffffffffffffffffff169080600301549080600401805461194f906143b9565b80601f016020809104026020016040519081016040528092919081815260200182805461197b906143b9565b80156119c85780601f1061199d576101008083540402835291602001916119c8565b820191906000526020600020905b8154815290600101906020018083116119ab57829003601f168201915b5050505050908060050154908060060180546119e3906143b9565b80601f0160208091040260200160405190810160405280929190818152602001828054611a0f906143b9565b8015611a5c5780601f10611a3157610100808354040283529160200191611a5c565b820191906000526020600020905b815481529060010190602001808311611a3f57829003601f168201915b505050505090806007018054611a71906143b9565b80601f0160208091040260200160405190810160405280929190818152602001828054611a9d906143b9565b8015611aea5780601f10611abf57610100808354040283529160200191611aea565b820191906000526020600020905b815481529060010190602001808311611acd57829003601f168201915b5050505050908060080160009054906101000a900460ff16905089565b7f46e0d1fa2be0423550e96859e7c25c6f3178358b189469f16373069e7f092a0a600e60008373ffffffffffffffffffffffffffffffffffffffff1673ffffffffffffffffffffffffffffffffffffffff1681526020019081526020016000208190555050565b7fa49807205ce4d355092ef5a8a18f56e8913cf4a201fbe287825b095693c2177581565b7f7c6181838a71a779e445600d4c6ecbe16bacf2b3c5bda69c29fada66d1b645d180600e60003373ffffffffffffffffffffffffffffffffffffffff1673ffffffffffffffffffffffffffffffffffffffff1681526020019081526020016000205414611c34576040517f08c379a0000000000000000000000000000000000000000000000000000000008152600401611c2b90614436565b60405180910390fd5b611c3c613866565b60008511611c7f576040517f08c379a0000000000000000000000000000000000000000000000000000000008152600401611c7690614903565b60405180910390fd5b60008311611cc2576040517f08c379a0000000000000000000000000000000000000000000000000000000008152600401611cb990614995565b60405180910390fd5b60036000815480929190611cd5906149e4565b919050555060006003549050600060066000838152602001908152602001600020905081816000018190555087816001019081611d12919061466e565b50338160020160006101000a81548173ffffffffffffffffffffffffffffffffffffffff021916908373ffffffffffffffffffffffffffffffffffffffff16021790555086816003018190555085816004019081611d70919061466e565b5084816005018190555083816006019081611d8b919061466e565b506040518060400160405280600481526020017f4e756c6c00000000000000000000000000000000000000000000000000000000815250816007019081611dd2919061466e565b5060008160080160006101000a81548160ff02191690836005811115611dfb57611dfa613fd9565b5b021790555080600660008481526020019081526020016000206000820154816000015560018201816001019081611e329190614a42565b506002820160009054906101000a900473ffffffffffffffffffffffffffffffffffffffff168160020160006101000a81548173ffffffffffffffffffffffffffffffffffffffff021916908373ffffffffffffffffffffffffffffffffffffffff1602179055506003820154816003015560048201816004019081611eb89190614a42565b506005820154816005015560068201816006019081611ed79190614a42565b5060078201816007019081611eec9190614a42565b506008820160009054906101000a900460ff168160080160006101000a81548160ff02191690836005811115611f2557611f24613fd9565b5b0217905550905050600b60003373ffffffffffffffffffffffffffffffffffffffff1673ffffffffffffffffffffffffffffffffffffffff1681526020019081526020016000208290806001815401808255809150506001900390600052602060002001600090919091909150553373ffffffffffffffffffffffffffffffffffffffff16827f18eed3a83f740cd248edb7cb90d062bcba987e3a6296453dcb0e174c03ffe5a68a8a8a8a604051611fe09493929190614b2a565b60405180910390a35050505050505050565b60076020528060005260406000206000915090508060000154908060010154908060020160009054906101000a900473ffffffffffffffffffffffffffffffffffffffff1690806003015490806004015490806005018054612053906143b9565b80601f016020809104026020016040519081016040528092919081815260200182805461207f906143b9565b80156120cc5780601f106120a1576101008083540402835291602001916120cc565b820191906000526020600020905b8154815290600101906020018083116120af57829003601f168201915b5050505050908060060160009054906101000a900460ff16905087565b7fe61decff6e4a5c6b5a3d3cbd28f882e595173563b49353ce5f31dba2de7f05ee81565b7fa49807205ce4d355092ef5a8a18f56e8913cf4a201fbe287825b095693c2177580600e60003373ffffffffffffffffffffffffffffffffffffffff1673ffffffffffffffffffffffffffffffffffffffff16815260200190815260200160002054146121af576040517f08c379a00000000000000000000000000000000000000000000000000000000081526004016121a690614436565b60405180910390fd5b6121b761390a565b50565b600960205281600052604060002081815481106121d657600080fd5b90600052602060002001600091509150505481565b6060600c60008373ffffffffffffffffffffffffffffffffffffffff1673ffffffffffffffffffffffffffffffffffffffff16815260200190815260200160002080548060200260200160405190810160405280929190818152602001828054801561227657602002820191906000526020600020905b815481526020019060010190808311612262575b50505050509050919050565b600b602052816000526040600020818154811061229e57600080fd5b90600052602060002001600091509150505481565b6122bb61396c565b6122c3613866565b6000600860008381526020019081526020016000209050600460058111156122ee576122ed613fd9565b5b8160050160009054906101000a900460ff16600581111561231257612311613fd9565b5b14612352576040517f08c379a000000000000000000000000000000000000000000000000000000000815260040161234990614bc9565b60405180910390fd5b8060040154341015612399576040517f08c379a000000000000000000000000000000000000000000000000000000000815260040161239090614c35565b60405180910390fd5b338160030160006101000a81548173ffffffffffffffffffffffffffffffffffffffff021916908373ffffffffffffffffffffffffffffffffffffffff16021790555060058160050160006101000a81548160ff0219169083600581111561240457612403613fd9565b5b02179055508060020160009054906101000a900473ffffffffffffffffffffffffffffffffffffffff1673ffffffffffffffffffffffffffffffffffffffff166108fc349081150290604051600060405180830381858888f19350505050158015612473573d6000803e3d6000fd5b503373ffffffffffffffffffffffffffffffffffffffff16827fb8daedd8d8dd0484ed87158d972b26f7c77587ae180a436fd120692cf409d5c160405160405180910390a3506124c16139b2565b50565b7f2a5f906c256a5d799494fcd066e1f6c077689de1cdb65052a1624de4bace99bf80600e60003373ffffffffffffffffffffffffffffffffffffffff1673ffffffffffffffffffffffffffffffffffffffff1681526020019081526020016000205414612566576040517f08c379a000000000000000000000000000000000000000000000000000000000815260040161255d90614436565b60405180910390fd5b61256e613866565b60006007600060045481526020019081526020016000206040518060e001604052908160008201548152602001600182015481526020016002820160009054906101000a900473ffffffffffffffffffffffffffffffffffffffff1673ffffffffffffffffffffffffffffffffffffffff1673ffffffffffffffffffffffffffffffffffffffff168152602001600382015481526020016004820154815260200160058201805461261e906143b9565b80601f016020809104026020016040519081016040528092919081815260200182805461264a906143b9565b80156126975780601f1061266c57610100808354040283529160200191612697565b820191906000526020600020905b81548152906001019060200180831161267a57829003601f168201915b505050505081526020016006820160009054906101000a900460ff1660058111156126c5576126c4613fd9565b5b60058111156126d7576126d6613fd9565b5b815250509050600360058111156126f1576126f0613fd9565b5b8160c00151600581111561270857612707613fd9565b5b14612748576040517f08c379a000000000000000000000000000000000000000000000000000000000815260040161273f90614cc7565b60405180910390fd5b838160600151101561278f576040517f08c379a000000000000000000000000000000000000000000000000000000000815260040161278690614d33565b60405180910390fd5b600084116127d2576040517f08c379a00000000000000000000000000000000000000000000000000000000081526004016127c990614903565b60405180910390fd5b60008311612815576040517f08c379a000000000000000000000000000000000000000000000000000000000815260040161280c90614995565b60405180910390fd5b60005b84811015612aec5760056000815480929190612833906149e4565b9190505550600060055490506000600860008381526020019081526020016000206040518060c001604052908160008201548152602001600182015481526020016002820160009054906101000a900473ffffffffffffffffffffffffffffffffffffffff1673ffffffffffffffffffffffffffffffffffffffff1673ffffffffffffffffffffffffffffffffffffffff1681526020016003820160009054906101000a900473ffffffffffffffffffffffffffffffffffffffff1673ffffffffffffffffffffffffffffffffffffffff1673ffffffffffffffffffffffffffffffffffffffff168152602001600482015481526020016005820160009054906101000a900460ff16600581111561294e5761294d613fd9565b5b60058111156129605761295f613fd9565b5b815250509050818160000181815250508781602001818152505033816040019073ffffffffffffffffffffffffffffffffffffffff16908173ffffffffffffffffffffffffffffffffffffffff16815250508581608001818152505060048160a0019060058111156129d5576129d4613fd9565b5b908160058111156129e9576129e8613fd9565b5b81525050600a6000898152602001908152602001600020829080600181540180825580915050600190039060005260206000200160009091909190915055600d60003373ffffffffffffffffffffffffffffffffffffffff1673ffffffffffffffffffffffffffffffffffffffff1681526020019081526020016000208290806001815401808255809150506001900390600052602060002001600090919091909150553373ffffffffffffffffffffffffffffffffffffffff1688837f09d8d0427eee16da63ed3bdac07fab84ec34ee2daec6f697a705a2d57b430db589604051612ad59190613fbe565b60405180910390a450508080600101915050612818565b5083600760008781526020019081526020016000206003016000828254612b139190614d53565b925050819055506000600760008781526020019081526020016000206003015403612b785760046007600087815260200190815260200160002060060160006101000a81548160ff02191690836005811115612b7257612b71613fd9565b5b02179055505b5050505050565b600a6020528160005260406000208181548110612b9b57600080fd5b90600052602060002001600091509150505481565b7f46e0d1fa2be0423550e96859e7c25c6f3178358b189469f16373069e7f092a0a600e60008373ffffffffffffffffffffffffffffffffffffffff1673ffffffffffffffffffffffffffffffffffffffff1681526020019081526020016000208190555050565b60606000600e60008473ffffffffffffffffffffffffffffffffffffffff1673ffffffffffffffffffffffffffffffffffffffff1681526020019081526020016000205490507f7c6181838a71a779e445600d4c6ecbe16bacf2b3c5bda69c29fada66d1b645d18103612cc2576040518060400160405280600681526020017f4641524d45520000000000000000000000000000000000000000000000000000815250915050612ef5565b7ffbd454f36a7e1a388bd6fc3ab10d434aa4578f811acbbcf33afb1c697486313c8103612d27576040518060400160405280600b81526020017f4449535452494255544f52000000000000000000000000000000000000000000815250915050612ef5565b7f7c6181838a71a779e445600d4c6ecbe16bacf2b3c5bda69c29fada66d1b645d18103612d8c576040518060400160405280600681526020017f4641524d45520000000000000000000000000000000000000000000000000000815250915050612ef5565b7fe61decff6e4a5c6b5a3d3cbd28f882e595173563b49353ce5f31dba2de7f05ee8103612df1576040518060400160405280600981526020017f50524f434553534f520000000000000000000000000000000000000000000000815250915050612ef5565b7f66108bb9ee7f804cb1c563794e51989792a366e4b648e4b2b9189d9587e1880d8103612e56576040518060400160405280601181526020017f5155414c49545920494e53504543544f52000000000000000000000000000000815250915050612ef5565b7fa49807205ce4d355092ef5a8a18f56e8913cf4a201fbe287825b095693c217758103612ebb576040518060400160405280600581526020017f41444d494e000000000000000000000000000000000000000000000000000000815250915050612ef5565b6040518060400160405280600881526020017f435553544f4d45520000000000000000000000000000000000000000000000008152509150505b919050565b7f7c6181838a71a779e445600d4c6ecbe16bacf2b3c5bda69c29fada66d1b645d1600e60008373ffffffffffffffffffffffffffffffffffffffff1673ffffffffffffffffffffffffffffffffffffffff1681526020019081526020016000208190555050565b600c6020528160005260406000208181548110612f7d57600080fd5b90600052602060002001600091509150505481565b7f46e0d1fa2be0423550e96859e7c25c6f3178358b189469f16373069e7f092a0a600e60008373ffffffffffffffffffffffffffffffffffffffff1673ffffffffffffffffffffffffffffffffffffffff1681526020019081526020016000208190555050565b7fe61decff6e4a5c6b5a3d3cbd28f882e595173563b49353ce5f31dba2de7f05ee80600e60003373ffffffffffffffffffffffffffffffffffffffff1673ffffffffffffffffffffffffffffffffffffffff168152602001908152602001600020541461309b576040517f08c379a000000000000000000000000000000000000000000000000000000000815260040161309290614436565b60405180910390fd5b6130a3613866565b60006006600085815260200190815260200160002060405180610120016040529081600082015481526020016001820180546130de906143b9565b80601f016020809104026020016040519081016040528092919081815260200182805461310a906143b9565b80156131575780601f1061312c57610100808354040283529160200191613157565b820191906000526020600020905b81548152906001019060200180831161313a57829003601f168201915b505050505081526020016002820160009054906101000a900473ffffffffffffffffffffffffffffffffffffffff1673ffffffffffffffffffffffffffffffffffffffff1673ffffffffffffffffffffffffffffffffffffffff168152602001600382015481526020016004820180546131d0906143b9565b80601f01602080910402602001604051908101604052809291908181526020018280546131fc906143b9565b80156132495780601f1061321e57610100808354040283529160200191613249565b820191906000526020600020905b81548152906001019060200180831161322c57829003601f168201915b505050505081526020016005820154815260200160068201805461326c906143b9565b80601f0160208091040260200160405190810160405280929190818152602001828054613298906143b9565b80156132e55780601f106132ba576101008083540402835291602001916132e5565b820191906000526020600020905b8154815290600101906020018083116132c857829003601f168201915b505050505081526020016007820180546132fe906143b9565b80601f016020809104026020016040519081016040528092919081815260200182805461332a906143b9565b80156133775780601f1061334c57610100808354040283529160200191613377565b820191906000526020600020905b81548152906001019060200180831161335a57829003601f168201915b505050505081526020016008820160009054906101000a900460ff1660058111156133a5576133a4613fd9565b5b60058111156133b7576133b6613fd9565b5b815250509050600060058111156133d1576133d0613fd9565b5b81610100015160058111156133e9576133e8613fd9565b5b14613429576040517f08c379a000000000000000000000000000000000000000000000000000000000815260040161342090614df9565b60405180910390fd5b8281606001511015613470576040517f08c379a000000000000000000000000000000000000000000000000000000000815260040161346790614e8b565b60405180910390fd5b600083116134b3576040517f08c379a00000000000000000000000000000000000000000000000000000000081526004016134aa90614903565b60405180910390fd5b600460008154809291906134c6906149e4565b9190505550600060045490506134da613a04565b818160000181815250508581602001818152505033816040019073ffffffffffffffffffffffffffffffffffffffff16908173ffffffffffffffffffffffffffffffffffffffff1681525050848160600181815250504281608001818152505060018160c00190600581111561355357613552613fd9565b5b9081600581111561356757613566613fd9565b5b81525050848360600181815161357d9190614d53565b9150818152505060008360600151036135c357600183610100019060058111156135aa576135a9613fd9565b5b908160058111156135be576135bd613fd9565b5b815250505b60096000878152602001908152602001600020829080600181540180825580915050600190039060005260206000200160009091909190915055600c60003373ffffffffffffffffffffffffffffffffffffffff1673ffffffffffffffffffffffffffffffffffffffff1681526020019081526020016000208290806001815401808255809150506001900390600052602060002001600090919091909150558060076000848152602001908152602001600020600082015181600001556020820151816001015560408201518160020160006101000a81548173ffffffffffffffffffffffffffffffffffffffff021916908373ffffffffffffffffffffffffffffffffffffffff160217905550606082015181600301556080820151816004015560a08201518160050190816136fb919061466e565b5060c08201518160060160006101000a81548160ff0219169083600581111561372757613726613fd9565b5b02179055509050503373ffffffffffffffffffffffffffffffffffffffff1686837f92c981022a3bd4ed54ac117f382b68f33b33d9ed49bb71d7d33607fe7dc9f385886040516137779190613fbe565b60405180910390a4505050505050565b7ffbd454f36a7e1a388bd6fc3ab10d434aa4578f811acbbcf33afb1c697486313c81565b7f7c6181838a71a779e445600d4c6ecbe16bacf2b3c5bda69c29fada66d1b645d181565b6060600d60008373ffffffffffffffffffffffffffffffffffffffff1673ffffffffffffffffffffffffffffffffffffffff16815260200190815260200160002080548060200260200160405190810160405280929190818152602001828054801561385a57602002820191906000526020600020905b815481526020019060010190808311613846575b50505050509050919050565b61386e61162f565b156138a5576040517fd93c066500000000000000000000000000000000000000000000000000000000815260040160405180910390fd5b565b6138af6139bc565b6000600160006101000a81548160ff0219169083151502179055507f5db9ee0a495bf2e6ff9c91a7834c1ba4fdd244a5e8aa4e537bd38aeae4b073aa6138f36139fc565b6040516139009190614eab565b60405180910390a1565b613912613866565b60018060006101000a81548160ff0219169083151502179055507f62e78cea01bee320cd4e420270b5ea74000d11b0c9f74754ebdbfc544b05a2586139556139fc565b6040516139629190614eab565b60405180910390a1565b6002600054036139a8576040517f3ee5aeb500000000000000000000000000000000000000000000000000000000815260040160405180910390fd5b6002600081905550565b6001600081905550565b6139c461162f565b6139fa576040517f8dfc202b00000000000000000000000000000000000000000000000000000000815260040160405180910390fd5b565b600033905090565b6040518060e001604052806000815260200160008152602001600073ffffffffffffffffffffffffffffffffffffffff16815260200160008152602001600081526020016060815260200160006005811115613a6357613a62613fd9565b5b81525090565b6000604051905090565b600080fd5b600080fd5b6000819050919050565b613a9081613a7d565b8114613a9b57600080fd5b50565b600081359050613aad81613a87565b92915050565b600060208284031215613ac957613ac8613a73565b5b6000613ad784828501613a9e565b91505092915050565b600081519050919050565b600082825260208201905092915050565b6000819050602082019050919050565b613b1581613a7d565b82525050565b6000613b278383613b0c565b60208301905092915050565b6000602082019050919050565b6000613b4b82613ae0565b613b558185613aeb565b9350613b6083613afc565b8060005b83811015613b91578151613b788882613b1b565b9750613b8383613b33565b925050600181019050613b64565b5085935050505092915050565b60006020820190508181036000830152613bb88184613b40565b905092915050565b600073ffffffffffffffffffffffffffffffffffffffff82169050919050565b6000613beb82613bc0565b9050919050565b613bfb81613be0565b8114613c0657600080fd5b50565b600081359050613c1881613bf2565b92915050565b600060208284031215613c3457613c33613a73565b5b6000613c4284828501613c09565b91505092915050565b613c5481613a7d565b82525050565b613c6381613be0565b82525050565b600081519050919050565b600082825260208201905092915050565b60005b83811015613ca3578082015181840152602081019050613c88565b60008484015250505050565b6000601f19601f8301169050919050565b6000613ccb82613c69565b613cd58185613c74565b9350613ce5818560208601613c85565b613cee81613caf565b840191505092915050565b600061016082019050613d0f600083018e613c4b565b613d1c602083018d613c4b565b613d29604083018c613c4b565b613d36606083018b613c5a565b613d43608083018a613c5a565b613d5060a0830189613c5a565b613d5d60c0830188613c5a565b81810360e0830152613d6f8187613cc0565b9050818103610100830152613d848186613cc0565b9050613d94610120830185613c4b565b818103610140830152613da78184613cc0565b90509c9b505050505050505050505050565b600080fd5b600080fd5b7f4e487b7100000000000000000000000000000000000000000000000000000000600052604160045260246000fd5b613dfb82613caf565b810181811067ffffffffffffffff82111715613e1a57613e19613dc3565b5b80604052505050565b6000613e2d613a69565b9050613e398282613df2565b919050565b600067ffffffffffffffff821115613e5957613e58613dc3565b5b613e6282613caf565b9050602081019050919050565b82818337600083830152505050565b6000613e91613e8c84613e3e565b613e23565b905082815260208101848484011115613ead57613eac613dbe565b5b613eb8848285613e6f565b509392505050565b600082601f830112613ed557613ed4613db9565b5b8135613ee5848260208601613e7e565b91505092915050565b60008060408385031215613f0557613f04613a73565b5b6000613f1385828601613a9e565b925050602083013567ffffffffffffffff811115613f3457613f33613a78565b5b613f4085828601613ec0565b9150509250929050565b6000819050919050565b613f5d81613f4a565b82525050565b6000602082019050613f786000830184613f54565b92915050565b60008060408385031215613f9557613f94613a73565b5b6000613fa385828601613c09565b9250506020613fb485828601613a9e565b9150509250929050565b6000602082019050613fd36000830184613c4b565b92915050565b7f4e487b7100000000000000000000000000000000000000000000000000000000600052602160045260246000fd5b6006811061401957614018613fd9565b5b50565b600081905061402a82614008565b919050565b600061403a8261401c565b9050919050565b61404a8161402f565b82525050565b600060c0820190506140656000830189613c4b565b6140726020830188613c4b565b61407f6040830187613c5a565b61408c6060830186613c5a565b6140996080830185613c4b565b6140a660a0830184614041565b979650505050505050565b60008115159050919050565b6140c6816140b1565b82525050565b60006020820190506140e160008301846140bd565b92915050565b6000610120820190506140fd600083018c613c4b565b818103602083015261410f818b613cc0565b905061411e604083018a613c5a565b61412b6060830189613c4b565b818103608083015261413d8188613cc0565b905061414c60a0830187613c4b565b81810360c083015261415e8186613cc0565b905081810360e08301526141728185613cc0565b9050614182610100830184614041565b9a9950505050505050505050565b600080600080600060a086880312156141ac576141ab613a73565b5b600086013567ffffffffffffffff8111156141ca576141c9613a78565b5b6141d688828901613ec0565b95505060206141e788828901613a9e565b945050604086013567ffffffffffffffff81111561420857614207613a78565b5b61421488828901613ec0565b935050606061422588828901613a9e565b925050608086013567ffffffffffffffff81111561424657614245613a78565b5b61425288828901613ec0565b9150509295509295909350565b600060e082019050614274600083018a613c4b565b6142816020830189613c4b565b61428e6040830188613c5a565b61429b6060830187613c4b565b6142a86080830186613c4b565b81810360a08301526142ba8185613cc0565b90506142c960c0830184614041565b98975050505050505050565b600080604083850312156142ec576142eb613a73565b5b60006142fa85828601613a9e565b925050602061430b85828601613a9e565b9150509250929050565b60008060006060848603121561432e5761432d613a73565b5b600061433c86828701613a9e565b935050602061434d86828701613a9e565b925050604061435e86828701613a9e565b9150509250925092565b600060208201905081810360008301526143828184613cc0565b905092915050565b7f4e487b7100000000000000000000000000000000000000000000000000000000600052602260045260246000fd5b600060028204905060018216806143d157607f821691505b6020821081036143e4576143e361438a565b5b50919050565b7f756e617574686f72697a65642063616c6c657200000000000000000000000000600082015250565b6000614420601383613c74565b915061442b826143ea565b602082019050919050565b6000602082019050818103600083015261444f81614413565b9050919050565b7f4261746368206d75737420626520696e2050726f636573736564207374617465600082015250565b600061448c602083613c74565b915061449782614456565b602082019050919050565b600060208201905081810360008301526144bb8161447f565b9050919050565b60008190508160005260206000209050919050565b60006020601f8301049050919050565b600082821b905092915050565b6000600883026145247fffffffffffffffffffffffffffffffffffffffffffffffffffffffffffffffff826144e7565b61452e86836144e7565b95508019841693508086168417925050509392505050565b6000819050919050565b600061456b61456661456184613a7d565b614546565b613a7d565b9050919050565b6000819050919050565b61458583614550565b61459961459182614572565b8484546144f4565b825550505050565b600090565b6145ae6145a1565b6145b981848461457c565b505050565b5b818110156145dd576145d26000826145a6565b6001810190506145bf565b5050565b601f821115614622576145f3816144c2565b6145fc846144d7565b8101602085101561460b578190505b61461f614617856144d7565b8301826145be565b50505b505050565b600082821c905092915050565b600061464560001984600802614627565b1980831691505092915050565b600061465e8383614634565b9150826002028217905092915050565b61467782613c69565b67ffffffffffffffff8111156146905761468f613dc3565b5b61469a82546143b9565b6146a58282856145e1565b600060209050601f8311600181146146d857600084156146c6578287015190505b6146d08582614652565b865550614738565b601f1984166146e6866144c2565b60005b8281101561470e578489015182556001820191506020850194506020810190506146e9565b8683101561472b5784890151614727601f891682614634565b8355505b6001600288020188555050505b505050505050565b600081905092915050565b600061475682613c69565b6147608185614740565b9350614770818560208601613c85565b80840191505092915050565b6000614788828461474b565b915081905092915050565b7f537570706c696573206d75737420626520726567697374657265640000000000600082015250565b60006147c9601b83613c74565b91506147d482614793565b602082019050919050565b600060208201905081810360008301526147f8816147bc565b9050919050565b7f4261746368206d75737420626520696e205175616c697479436865636b65642060008201527f7374617465000000000000000000000000000000000000000000000000000000602082015250565b600061485b602583613c74565b9150614866826147ff565b604082019050919050565b6000602082019050818103600083015261488a8161484e565b9050919050565b7f5175616e74697479206d7573742062652067726561746572207468616e207a6560008201527f726f000000000000000000000000000000000000000000000000000000000000602082015250565b60006148ed602283613c74565b91506148f882614891565b604082019050919050565b6000602082019050818103600083015261491c816148e0565b9050919050565b7f50726963652070657220756e6974206d7573742062652067726561746572207460008201527f68616e207a65726f000000000000000000000000000000000000000000000000602082015250565b600061497f602883613c74565b915061498a82614923565b604082019050919050565b600060208201905081810360008301526149ae81614972565b9050919050565b7f4e487b7100000000000000000000000000000000000000000000000000000000600052601160045260246000fd5b60006149ef82613a7d565b91507fffffffffffffffffffffffffffffffffffffffffffffffffffffffffffffffff8203614a2157614a206149b5565b5b600182019050919050565b600081549050614a3b816143b9565b9050919050565b818103614a50575050614b28565b614a5982614a2c565b67ffffffffffffffff811115614a7257614a71613dc3565b5b614a7c82546143b9565b614a878282856145e1565b6000601f831160018114614ab65760008415614aa4578287015490505b614aae8582614652565b865550614b21565b601f198416614ac4876144c2565b9650614acf866144c2565b60005b82811015614af757848901548255600182019150600185019450602081019050614ad2565b86831015614b145784890154614b10601f891682614634565b8355505b6001600288020188555050505b5050505050505b565b60006080820190508181036000830152614b448187613cc0565b9050614b536020830186613c4b565b8181036040830152614b658185613cc0565b9050614b746060830184613c4b565b95945050505050565b7f556e6974206d75737420626520696e2052657461696c65642073746174650000600082015250565b6000614bb3601e83613c74565b9150614bbe82614b7d565b602082019050919050565b60006020820190508181036000830152614be281614ba6565b9050919050565b7f496e73756666696369656e74207061796d656e74000000000000000000000000600082015250565b6000614c1f601483613c74565b9150614c2a82614be9565b602082019050919050565b60006020820190508181036000830152614c4e81614c12565b9050919050565b7f4261746368206d75737420626520696e2044697374726962757465642073746160008201527f7465000000000000000000000000000000000000000000000000000000000000602082015250565b6000614cb1602283613c74565b9150614cbc82614c55565b604082019050919050565b60006020820190508181036000830152614ce081614ca4565b9050919050565b7f496e73756666696369656e74207175616e7469747920696e2062617463680000600082015250565b6000614d1d601e83613c74565b9150614d2882614ce7565b602082019050919050565b60006020820190508181036000830152614d4c81614d10565b9050919050565b6000614d5e82613a7d565b9150614d6983613a7d565b9250828203905081811115614d8157614d806149b5565b5b92915050565b7f42756c6b20737570706c79206d75737420626520696e2052656769737465726560008201527f6420737461746500000000000000000000000000000000000000000000000000602082015250565b6000614de3602783613c74565b9150614dee82614d87565b604082019050919050565b60006020820190508181036000830152614e1281614dd6565b9050919050565b7f496e73756666696369656e74207175616e7469747920696e2062756c6b20737560008201527f70706c7900000000000000000000000000000000000000000000000000000000602082015250565b6000614e75602483613c74565b9150614e8082614e19565b604082019050919050565b60006020820190508181036000830152614ea481614e68565b9050919050565b6000602082019050614ec06000830184613c5a565b9291505056fea2646970667358221220739df0292f6af9ad61147398244308e583d4a046004a9396ef19994f8f88534564736f6c634300081b0033",
  "linkReferences": {},
  "deployedLinkReferences": {}
}