{
  "_format": "hh-sol-artifact-1",
  "contractName": "FarmSupplyChain",
  "sourceName": "contracts/FarmSupplyChain.sol",
  "abi": [
    {
      "inputs": [],
      "stateMutability": "nonpayable",
      "type": "constructor"
    },
    {
      "inputs": [],
      "name": "EnforcedPause",
      "type": "error"
    },
    {
      "inputs": [],
      "name": "ExpectedPause",
      "type": "error"
    },
    {
      "inputs": [],
      "name": "ReentrancyGuardReentrantCall",
      "type": "error"
    },
    {
      "anonymous": false,
      "inputs": [
        {
          "indexed": false,
          "internalType": "uint256",
          "name": "id",
          "type": "uint256"
        },
        {
          "indexed": false,
          "internalType": "address",
          "name": "distributor",
          "type": "address"
        }
      ],
      "name": "BatchDistributed",
      "type": "event"
    },
    {
      "anonymous": false,
      "inputs": [
        {
          "indexed": false,
          "internalType": "uint256",
          "name": "id",
          "type": "uint256"
        },
        {
          "indexed": false,
          "internalType": "uint256",
          "name": "bulkSupplyId",
          "type": "uint256"
        },
        {
          "indexed": false,
          "internalType": "address",
          "name": "processor",
          "type": "address"
        },
        {
          "indexed": false,
          "internalType": "uint256",
          "name": "quantity",
          "type": "uint256"
        },
        {
          "indexed": false,
          "internalType": "string",
          "name": "batchNumber",
          "type": "string"
        }
      ],
      "name": "BatchProcessed",
      "type": "event"
    },
    {
      "anonymous": false,
      "inputs": [
        {
          "indexed": false,
          "internalType": "uint256",
          "name": "id",
          "type": "uint256"
        },
        {
          "indexed": false,
          "internalType": "address",
          "name": "inspector",
          "type": "address"
        },
        {
          "indexed": false,
          "internalType": "string",
          "name": "qualityGrade",
          "type": "string"
        }
      ],
      "name": "BatchQualityChecked",
      "type": "event"
    },
    {
      "anonymous": false,
      "inputs": [
        {
          "indexed": false,
          "internalType": "uint256",
          "name": "id",
          "type": "uint256"
        },
        {
          "indexed": false,
          "internalType": "string",
          "name": "name",
          "type": "string"
        },
        {
          "indexed": false,
          "internalType": "address",
          "name": "farmer",
          "type": "address"
        },
        {
          "indexed": false,
          "internalType": "uint256",
          "name": "quantity",
          "type": "uint256"
        },
        {
          "indexed": false,
          "internalType": "string",
          "name": "unit",
          "type": "string"
        },
        {
          "indexed": false,
          "internalType": "uint256",
          "name": "pricePerUnit",
          "type": "uint256"
        }
      ],
      "name": "BulkSupplyRegistered",
      "type": "event"
    },
    {
      "anonymous": false,
      "inputs": [
        {
          "indexed": false,
          "internalType": "address",
          "name": "account",
          "type": "address"
        }
      ],
      "name": "Paused",
      "type": "event"
    },
    {
      "anonymous": false,
      "inputs": [
        {
          "indexed": false,
          "internalType": "uint256",
          "name": "id",
          "type": "uint256"
        },
        {
          "indexed": false,
          "internalType": "uint256",
          "name": "batchId",
          "type": "uint256"
        },
        {
          "indexed": false,
          "internalType": "address",
          "name": "retailer",
          "type": "address"
        },
        {
          "indexed": false,
          "internalType": "uint256",
          "name": "price",
          "type": "uint256"
        }
      ],
      "name": "UnitRetailed",
      "type": "event"
    },
    {
      "anonymous": false,
      "inputs": [
        {
          "indexed": false,
          "internalType": "uint256",
          "name": "id",
          "type": "uint256"
        },
        {
          "indexed": false,
          "internalType": "address",
          "name": "consumer",
          "type": "address"
        }
      ],
      "name": "UnitSold",
      "type": "event"
    },
    {
      "anonymous": false,
      "inputs": [
        {
          "indexed": false,
          "internalType": "address",
          "name": "account",
          "type": "address"
        }
      ],
      "name": "Unpaused",
      "type": "event"
    },
    {
      "inputs": [],
      "name": "ADMIN_ROLE",
      "outputs": [
        {
          "internalType": "bytes32",
          "name": "",
          "type": "bytes32"
        }
      ],
      "stateMutability": "view",
      "type": "function"
    },
    {
      "inputs": [],
      "name": "DISTRIBUTOR_ROLE",
      "outputs": [
        {
          "internalType": "bytes32",
          "name": "",
          "type": "bytes32"
        }
      ],
      "stateMutability": "view",
      "type": "function"
    },
    {
      "inputs": [],
      "name": "FARMER_ROLE",
      "outputs": [
        {
          "internalType": "bytes32",
          "name": "",
          "type": "bytes32"
        }
      ],
      "stateMutability": "view",
      "type": "function"
    },
    {
      "inputs": [],
      "name": "PROCESSOR_ROLE",
      "outputs": [
        {
          "internalType": "bytes32",
          "name": "",
          "type": "bytes32"
        }
      ],
      "stateMutability": "view",
      "type": "function"
    },
    {
      "inputs": [],
      "name": "QUALITY_INSPECTOR_ROLE",
      "outputs": [
        {
          "internalType": "bytes32",
          "name": "",
          "type": "bytes32"
        }
      ],
      "stateMutability": "view",
      "type": "function"
    },
    {
      "inputs": [],
      "name": "RETAILER_ROLE",
      "outputs": [
        {
          "internalType": "bytes32",
          "name": "",
          "type": "bytes32"
        }
      ],
      "stateMutability": "view",
      "type": "function"
    },
    {
      "inputs": [
        {
          "internalType": "uint256",
          "name": "",
          "type": "uint256"
        },
        {
          "internalType": "uint256",
          "name": "",
          "type": "uint256"
        }
      ],
      "name": "batchToUnits",
      "outputs": [
        {
          "internalType": "uint256",
          "name": "",
          "type": "uint256"
        }
      ],
      "stateMutability": "view",
      "type": "function"
    },
    {
      "inputs": [
        {
          "internalType": "uint256",
          "name": "",
          "type": "uint256"
        }
      ],
      "name": "bulkSupplies",
      "outputs": [
        {
          "internalType": "uint256",
          "name": "id",
          "type": "uint256"
        },
        {
          "internalType": "string",
          "name": "name",
          "type": "string"
        },
        {
          "internalType": "address",
          "name": "farmer",
          "type": "address"
        },
        {
          "internalType": "uint256",
          "name": "quantity",
          "type": "uint256"
        },
        {
          "internalType": "string",
          "name": "unit",
          "type": "string"
        },
        {
          "internalType": "uint256",
          "name": "pricePerUnit",
          "type": "uint256"
        },
        {
          "internalType": "string",
          "name": "originLocation",
          "type": "string"
        },
        {
          "internalType": "uint256",
          "name": "harvestDate",
          "type": "uint256"
        },
        {
          "internalType": "enum IFarmSupplyChain.SupplyState",
          "name": "state",
          "type": "uint8"
        }
      ],
      "stateMutability": "view",
      "type": "function"
    },
    {
      "inputs": [
        {
          "internalType": "uint256",
          "name": "",
          "type": "uint256"
        },
        {
          "internalType": "uint256",
          "name": "",
          "type": "uint256"
        }
      ],
      "name": "bulkSupplyToBatches",
      "outputs": [
        {
          "internalType": "uint256",
          "name": "",
          "type": "uint256"
        }
      ],
      "stateMutability": "view",
      "type": "function"
    },
    {
      "inputs": [
        {
          "internalType": "uint256",
          "name": "_batchId",
          "type": "uint256"
        },
        {
          "internalType": "string",
          "name": "_qualityGrade",
          "type": "string"
        }
      ],
      "name": "checkBatchQuality",
      "outputs": [],
      "stateMutability": "nonpayable",
      "type": "function"
    },
    {
      "inputs": [
        {
          "internalType": "uint256",
          "name": "_batchId",
          "type": "uint256"
        },
        {
          "internalType": "uint256",
          "name": "_quantity",
          "type": "uint256"
        },
        {
          "internalType": "uint256",
          "name": "_pricePerUnit",
          "type": "uint256"
        }
      ],
      "name": "createRetailUnits",
      "outputs": [],
      "stateMutability": "nonpayable",
      "type": "function"
    },
    {
      "inputs": [
        {
          "internalType": "uint256",
          "name": "_batchId",
          "type": "uint256"
        }
      ],
      "name": "distributeBatch",
      "outputs": [],
      "stateMutability": "nonpayable",
      "type": "function"
    },
    {
      "inputs": [
        {
          "internalType": "address",
          "name": "",
          "type": "address"
        },
        {
          "internalType": "uint256",
          "name": "",
          "type": "uint256"
        }
      ],
      "name": "farmerSupplies",
      "outputs": [
        {
          "internalType": "uint256",
          "name": "",
          "type": "uint256"
        }
      ],
      "stateMutability": "view",
      "type": "function"
    },
    {
      "inputs": [
        {
          "internalType": "uint256",
          "name": "_batchId",
          "type": "uint256"
        }
      ],
      "name": "getBatchUnits",
      "outputs": [
        {
          "internalType": "uint256[]",
          "name": "",
          "type": "uint256[]"
        }
      ],
      "stateMutability": "view",
      "type": "function"
    },
    {
      "inputs": [
        {
          "internalType": "uint256",
          "name": "_bulkSupplyId",
          "type": "uint256"
        }
      ],
      "name": "getBulkSupplyBatches",
      "outputs": [
        {
          "internalType": "uint256[]",
          "name": "",
          "type": "uint256[]"
        }
      ],
      "stateMutability": "view",
      "type": "function"
    },
    {
      "inputs": [
        {
          "internalType": "address",
          "name": "_farmer",
          "type": "address"
        }
      ],
      "name": "getFarmerSupplies",
      "outputs": [
        {
          "internalType": "uint256[]",
          "name": "",
          "type": "uint256[]"
        }
      ],
      "stateMutability": "view",
      "type": "function"
    },
    {
      "inputs": [
        {
          "internalType": "address",
          "name": "_processor",
          "type": "address"
        }
      ],
      "name": "getProcessorBatches",
      "outputs": [
        {
          "internalType": "uint256[]",
          "name": "",
          "type": "uint256[]"
        }
      ],
      "stateMutability": "view",
      "type": "function"
    },
    {
      "inputs": [
        {
          "internalType": "address",
          "name": "_retailer",
          "type": "address"
        }
      ],
      "name": "getRetailerUnits",
      "outputs": [
        {
          "internalType": "uint256[]",
          "name": "",
          "type": "uint256[]"
        }
      ],
      "stateMutability": "view",
      "type": "function"
    },
    {
      "inputs": [
        {
          "internalType": "uint256",
          "name": "_unitId",
          "type": "uint256"
        }
      ],
      "name": "getUnitHistory",
      "outputs": [
        {
          "internalType": "uint256",
          "name": "unitId",
          "type": "uint256"
        },
        {
          "internalType": "uint256",
          "name": "batchId",
          "type": "uint256"
        },
        {
          "internalType": "uint256",
          "name": "bulkSupplyId",
          "type": "uint256"
        },
        {
          "internalType": "address",
          "name": "farmer",
          "type": "address"
        },
        {
          "internalType": "address",
          "name": "processor",
          "type": "address"
        },
        {
          "internalType": "address",
          "name": "retailer",
          "type": "address"
        },
        {
          "internalType": "address",
          "name": "consumer",
          "type": "address"
        },
        {
          "internalType": "string",
          "name": "productName",
          "type": "string"
        },
        {
          "internalType": "string",
          "name": "originLocation",
          "type": "string"
        },
        {
          "internalType": "uint256",
          "name": "harvestDate",
          "type": "uint256"
        },
        {
          "internalType": "uint256",
          "name": "processingDate",
          "type": "uint256"
        },
        {
          "internalType": "string",
          "name": "qualityGrade",
          "type": "string"
        }
      ],
      "stateMutability": "view",
      "type": "function"
    },
    {
      "inputs": [],
      "name": "pause",
      "outputs": [],
      "stateMutability": "nonpayable",
      "type": "function"
    },
    {
      "inputs": [],
      "name": "paused",
      "outputs": [
        {
          "internalType": "bool",
          "name": "",
          "type": "bool"
        }
      ],
      "stateMutability": "view",
      "type": "function"
    },
    {
      "inputs": [
        {
          "internalType": "uint256",
          "name": "_bulkSupplyId",
          "type": "uint256"
        },
        {
          "internalType": "uint256",
          "name": "_quantity",
          "type": "uint256"
        },
        {
          "internalType": "string",
          "name": "_batchNumber",
          "type": "string"
        }
      ],
      "name": "processBatch",
      "outputs": [],
      "stateMutability": "nonpayable",
      "type": "function"
    },
    {
      "inputs": [
        {
          "internalType": "uint256",
          "name": "",
          "type": "uint256"
        }
      ],
      "name": "processedBatches",
      "outputs": [
        {
          "internalType": "uint256",
          "name": "id",
          "type": "uint256"
        },
        {
          "internalType": "uint256",
          "name": "bulkSupplyId",
          "type": "uint256"
        },
        {
          "internalType": "address",
          "name": "processor",
          "type": "address"
        },
        {
          "internalType": "uint256",
          "name": "quantity",
          "type": "uint256"
        },
        {
          "internalType": "string",
          "name": "batchNumber",
          "type": "string"
        },
        {
          "internalType": "uint256",
          "name": "processingDate",
          "type": "uint256"
        },
        {
          "internalType": "string",
          "name": "qualityGrade",
          "type": "string"
        },
        {
          "internalType": "enum IFarmSupplyChain.SupplyState",
          "name": "state",
          "type": "uint8"
        }
      ],
      "stateMutability": "view",
      "type": "function"
    },
    {
      "inputs": [
        {
          "internalType": "address",
          "name": "",
          "type": "address"
        },
        {
          "internalType": "uint256",
          "name": "",
          "type": "uint256"
        }
      ],
      "name": "processorBatches",
      "outputs": [
        {
          "internalType": "uint256",
          "name": "",
          "type": "uint256"
        }
      ],
      "stateMutability": "view",
      "type": "function"
    },
    {
      "inputs": [
        {
          "internalType": "string",
          "name": "_name",
          "type": "string"
        },
        {
          "internalType": "uint256",
          "name": "_quantity",
          "type": "uint256"
        },
        {
          "internalType": "string",
          "name": "_unit",
          "type": "string"
        },
        {
          "internalType": "uint256",
          "name": "_pricePerUnit",
          "type": "uint256"
        },
        {
          "internalType": "string",
          "name": "_originLocation",
          "type": "string"
        },
        {
          "internalType": "uint256",
          "name": "_harvestDate",
          "type": "uint256"
        }
      ],
      "name": "registerBulkSupply",
      "outputs": [],
      "stateMutability": "nonpayable",
      "type": "function"
    },
    {
      "inputs": [
        {
          "internalType": "uint256",
          "name": "",
          "type": "uint256"
        }
      ],
      "name": "retailUnits",
      "outputs": [
        {
          "internalType": "uint256",
          "name": "id",
          "type": "uint256"
        },
        {
          "internalType": "uint256",
          "name": "batchId",
          "type": "uint256"
        },
        {
          "internalType": "address",
          "name": "retailer",
          "type": "address"
        },
        {
          "internalType": "address",
          "name": "consumer",
          "type": "address"
        },
        {
          "internalType": "uint256",
          "name": "price",
          "type": "uint256"
        },
        {
          "internalType": "enum IFarmSupplyChain.SupplyState",
          "name": "state",
          "type": "uint8"
        }
      ],
      "stateMutability": "view",
      "type": "function"
    },
    {
      "inputs": [
        {
          "internalType": "address",
          "name": "",
          "type": "address"
        },
        {
          "internalType": "uint256",
          "name": "",
          "type": "uint256"
        }
      ],
      "name": "retailerUnits",
      "outputs": [
        {
          "internalType": "uint256",
          "name": "",
          "type": "uint256"
        }
      ],
      "stateMutability": "view",
      "type": "function"
    },
    {
      "inputs": [
        {
          "internalType": "uint256",
          "name": "_unitId",
          "type": "uint256"
        }
      ],
      "name": "sellUnit",
      "outputs": [],
      "stateMutability": "payable",
      "type": "function"
    },
    {
      "inputs": [],
      "name": "unpause",
      "outputs": [],
      "stateMutability": "nonpayable",
      "type": "function"
    }
  ],
  "bytecode": "0x6080604052348015600f57600080fd5b5060016000819055506000600160006101000a81548160ff02191690831515021790555060766040518060400160405280600a81526020017f41444d494e5f524f4c450000000000000000000000000000000000000000000081525033607a60201b60201c565b607e565b5050565b613c338061008d6000396000f3fe6080604052600436106101c25760003560e01c806375b238fc116100f7578063b742a75111610095578063e581c49111610064578063e581c491146106b0578063f0bd87cc146106ed578063f394397014610718578063fdbb796414610743576101c2565b8063b742a75114610605578063b7449d0d14610621578063c140ac4b1461064a578063c316348814610673576101c2565b80638456cb59116100d15780638456cb591461053757806386ce75091461054e5780639560419f1461058b57806395f2e02f146105c8576101c2565b806375b238fc1461049d5780637ee35ef3146104c85780638222bdb21461050c576101c2565b80633f4ba83a116101645780635c975abb1161013e5780635c975abb146103c757806368a22ee0146103f25780636a1311751461042f5780636a4e5cf714610458576101c2565b80633f4ba83a1461035c5780634e20c36214610373578063551919451461039e576101c2565b80631cbef6ba116101a05780631cbef6ba146102755780632115e7bf146102b2578063345b2bec146102dd5780633b510b1d1461031a576101c2565b80630866b86b146101c757806314278d0614610204578063187f0df61461022d575b600080fd5b3480156101d357600080fd5b506101ee60048036038101906101e99190612776565b610780565b6040516101fb9190612861565b60405180910390f35b34801561021057600080fd5b5061022b600480360381019061022691906129c9565b6107eb565b005b34801561023957600080fd5b50610254600480360381019061024f9190612776565b610b10565b60405161026c9c9b9a99989796959493929190612b79565b60405180910390f35b34801561028157600080fd5b5061029c60048036038101906102979190612c74565b610df7565b6040516102a99190612861565b60405180910390f35b3480156102be57600080fd5b506102c7610e8e565b6040516102d49190612cba565b60405180910390f35b3480156102e957600080fd5b5061030460048036038101906102ff9190612cd5565b610eb2565b6040516103119190612d15565b60405180910390f35b34801561032657600080fd5b50610341600480360381019061033c9190612776565b610ee3565b60405161035396959493929190612da7565b60405180910390f35b34801561036857600080fd5b50610371610f6c565b005b34801561037f57600080fd5b50610388611019565b6040516103959190612cba565b60405180910390f35b3480156103aa57600080fd5b506103c560048036038101906103c09190612e08565b61103d565b005b3480156103d357600080fd5b506103dc611214565b6040516103e99190612e7f565b60405180910390f35b3480156103fe57600080fd5b5061041960048036038101906104149190612776565b61122b565b6040516104269190612861565b60405180910390f35b34801561043b57600080fd5b5061045660048036038101906104519190612776565b611296565b005b34801561046457600080fd5b5061047f600480360381019061047a9190612776565b611446565b60405161049499989796959493929190612e9a565b60405180910390f35b3480156104a957600080fd5b506104b2611659565b6040516104bf9190612cba565b60405180910390f35b3480156104d457600080fd5b506104ef60048036038101906104ea9190612776565b61167d565b604051610503989796959493929190612f3c565b60405180910390f35b34801561051857600080fd5b50610521611802565b60405161052e9190612cba565b60405180910390f35b34801561054357600080fd5b5061054c611826565b005b34801561055a57600080fd5b5061057560048036038101906105709190612fc8565b6118d3565b6040516105829190612d15565b60405180910390f35b34801561059757600080fd5b506105b260048036038101906105ad9190612c74565b611904565b6040516105bf9190612861565b60405180910390f35b3480156105d457600080fd5b506105ef60048036038101906105ea9190612cd5565b61199b565b6040516105fc9190612d15565b60405180910390f35b61061f600480360381019061061a9190612776565b6119cc565b005b34801561062d57600080fd5b5061064860048036038101906106439190613008565b611bd2565b005b34801561065657600080fd5b50610671600480360381019061066c919061305b565b61202f565b005b34801561067f57600080fd5b5061069a60048036038101906106959190612fc8565b61244d565b6040516106a79190612d15565b60405180910390f35b3480156106bc57600080fd5b506106d760048036038101906106d29190612cd5565b61247e565b6040516106e49190612d15565b60405180910390f35b3480156106f957600080fd5b506107026124af565b60405161070f9190612cba565b60405180910390f35b34801561072457600080fd5b5061072d6124d3565b60405161073a9190612cba565b60405180910390f35b34801561074f57600080fd5b5061076a60048036038101906107659190612c74565b6124f7565b6040516107779190612861565b60405180910390f35b6060600a60008381526020019081526020016000208054806020026020016040519081016040528092919081815260200182805480156107df57602002820191906000526020600020905b8154815260200190600101908083116107cb575b50505050509050919050565b7f7c6181838a71a779e445600d4c6ecbe16bacf2b3c5bda69c29fada66d1b645d180600e60003373ffffffffffffffffffffffffffffffffffffffff1673ffffffffffffffffffffffffffffffffffffffff168152602001908152602001600020541461088d576040517f08c379a000000000000000000000000000000000000000000000000000000000815260040161088490613116565b60405180910390fd5b61089561258e565b600086116108d8576040517f08c379a00000000000000000000000000000000000000000000000000000000081526004016108cf906131a8565b60405180910390fd5b6000841161091b576040517f08c379a00000000000000000000000000000000000000000000000000000000081526004016109129061323a565b60405180910390fd5b4282111561095e576040517f08c379a0000000000000000000000000000000000000000000000000000000008152600401610955906132cc565b60405180910390fd5b600360008154809291906109719061331b565b9190505550600060035490506000600660008381526020019081526020016000209050818160000181905550888160010190816109ae919061356f565b50338160020160006101000a81548173ffffffffffffffffffffffffffffffffffffffff021916908373ffffffffffffffffffffffffffffffffffffffff16021790555087816003018190555086816004019081610a0c919061356f565b5085816005018190555084816006019081610a27919061356f565b5083816007018190555060008160080160006101000a81548160ff02191690836005811115610a5957610a58612d30565b5b0217905550600b60003373ffffffffffffffffffffffffffffffffffffffff1673ffffffffffffffffffffffffffffffffffffffff1681526020019081526020016000208290806001815401808255809150506001900390600052602060002001600090919091909150557f18eed3a83f740cd248edb7cb90d062bcba987e3a6296453dcb0e174c03ffe5a6828a338b8b8b604051610afd96959493929190613641565b60405180910390a1505050505050505050565b600080600080600080600060608060008060606000600860008f815260200190815260200160002090506000600760008360010154815260200190815260200160002090506000600660008360010154815260200190815260200160002090508260000154836001015483600101548360020160009054906101000a900473ffffffffffffffffffffffffffffffffffffffff168560020160009054906101000a900473ffffffffffffffffffffffffffffffffffffffff168760020160009054906101000a900473ffffffffffffffffffffffffffffffffffffffff168860030160009054906101000a900473ffffffffffffffffffffffffffffffffffffffff16876001018860060189600701548b600501548c600601848054610c3590613392565b80601f0160208091040260200160405190810160405280929190818152602001828054610c6190613392565b8015610cae5780601f10610c8357610100808354040283529160200191610cae565b820191906000526020600020905b815481529060010190602001808311610c9157829003601f168201915b50505050509450838054610cc190613392565b80601f0160208091040260200160405190810160405280929190818152602001828054610ced90613392565b8015610d3a5780601f10610d0f57610100808354040283529160200191610d3a565b820191906000526020600020905b815481529060010190602001808311610d1d57829003601f168201915b50505050509350808054610d4d90613392565b80601f0160208091040260200160405190810160405280929190818152602001828054610d7990613392565b8015610dc65780601f10610d9b57610100808354040283529160200191610dc6565b820191906000526020600020905b815481529060010190602001808311610da957829003601f168201915b505050505090509e509e509e509e509e509e509e509e509e509e509e509e5050505091939597999b5091939597999b565b6060600b60008373ffffffffffffffffffffffffffffffffffffffff1673ffffffffffffffffffffffffffffffffffffffff168152602001908152602001600020805480602002602001604051908101604052809291908181526020018280548015610e8257602002820191906000526020600020905b815481526020019060010190808311610e6e575b50505050509050919050565b7f2a5f906c256a5d799494fcd066e1f6c077689de1cdb65052a1624de4bace99bf81565b600d6020528160005260406000208181548110610ece57600080fd5b90600052602060002001600091509150505481565b60086020528060005260406000206000915090508060000154908060010154908060020160009054906101000a900473ffffffffffffffffffffffffffffffffffffffff16908060030160009054906101000a900473ffffffffffffffffffffffffffffffffffffffff16908060040154908060050160009054906101000a900460ff16905086565b7fa49807205ce4d355092ef5a8a18f56e8913cf4a201fbe287825b095693c2177580600e60003373ffffffffffffffffffffffffffffffffffffffff1673ffffffffffffffffffffffffffffffffffffffff168152602001908152602001600020541461100e576040517f08c379a000000000000000000000000000000000000000000000000000000000815260040161100590613116565b60405180910390fd5b6110166125cf565b50565b7f66108bb9ee7f804cb1c563794e51989792a366e4b648e4b2b9189d9587e1880d81565b7f66108bb9ee7f804cb1c563794e51989792a366e4b648e4b2b9189d9587e1880d80600e60003373ffffffffffffffffffffffffffffffffffffffff1673ffffffffffffffffffffffffffffffffffffffff16815260200190815260200160002054146110df576040517f08c379a00000000000000000000000000000000000000000000000000000000081526004016110d690613116565b60405180910390fd5b6110e761258e565b600160058111156110fb576110fa612d30565b5b6007600085815260200190815260200160002060070160009054906101000a900460ff16600581111561113157611130612d30565b5b14611171576040517f08c379a0000000000000000000000000000000000000000000000000000000008152600401611168906136fc565b60405180910390fd5b81600760008581526020019081526020016000206006019081611194919061356f565b5060026007600085815260200190815260200160002060070160006101000a81548160ff021916908360058111156111cf576111ce612d30565b5b02179055507f9d753b365824c361cec419758c5f2b8546da1f4e90a776d5c7c0ca0a5141d34d8333846040516112079392919061371c565b60405180910390a1505050565b6000600160009054906101000a900460ff16905090565b60606009600083815260200190815260200160002080548060200260200160405190810160405280929190818152602001828054801561128a57602002820191906000526020600020905b815481526020019060010190808311611276575b50505050509050919050565b7ffbd454f36a7e1a388bd6fc3ab10d434aa4578f811acbbcf33afb1c697486313c80600e60003373ffffffffffffffffffffffffffffffffffffffff1673ffffffffffffffffffffffffffffffffffffffff1681526020019081526020016000205414611338576040517f08c379a000000000000000000000000000000000000000000000000000000000815260040161132f90613116565b60405180910390fd5b61134061258e565b6002600581111561135457611353612d30565b5b6007600084815260200190815260200160002060070160009054906101000a900460ff16600581111561138a57611389612d30565b5b146113ca576040517f08c379a00000000000000000000000000000000000000000000000000000000081526004016113c1906137cc565b60405180910390fd5b60036007600084815260200190815260200160002060070160006101000a81548160ff0219169083600581111561140457611403612d30565b5b02179055507f1819b9d7d626ec3af4939bae99a343ea238d24bd02ab7d976f339a8fd158f372823360405161143a9291906137ec565b60405180910390a15050565b600660205280600052604060002060009150905080600001549080600101805461146f90613392565b80601f016020809104026020016040519081016040528092919081815260200182805461149b90613392565b80156114e85780601f106114bd576101008083540402835291602001916114e8565b820191906000526020600020905b8154815290600101906020018083116114cb57829003601f168201915b5050505050908060020160009054906101000a900473ffffffffffffffffffffffffffffffffffffffff169080600301549080600401805461152990613392565b80601f016020809104026020016040519081016040528092919081815260200182805461155590613392565b80156115a25780601f10611577576101008083540402835291602001916115a2565b820191906000526020600020905b81548152906001019060200180831161158557829003601f168201915b5050505050908060050154908060060180546115bd90613392565b80601f01602080910402602001604051908101604052809291908181526020018280546115e990613392565b80156116365780601f1061160b57610100808354040283529160200191611636565b820191906000526020600020905b81548152906001019060200180831161161957829003601f168201915b5050505050908060070154908060080160009054906101000a900460ff16905089565b7fa49807205ce4d355092ef5a8a18f56e8913cf4a201fbe287825b095693c2177581565b60076020528060005260406000206000915090508060000154908060010154908060020160009054906101000a900473ffffffffffffffffffffffffffffffffffffffff16908060030154908060040180546116d890613392565b80601f016020809104026020016040519081016040528092919081815260200182805461170490613392565b80156117515780601f1061172657610100808354040283529160200191611751565b820191906000526020600020905b81548152906001019060200180831161173457829003601f168201915b50505050509080600501549080600601805461176c90613392565b80601f016020809104026020016040519081016040528092919081815260200182805461179890613392565b80156117e55780601f106117ba576101008083540402835291602001916117e5565b820191906000526020600020905b8154815290600101906020018083116117c857829003601f168201915b5050505050908060070160009054906101000a900460ff16905088565b7fe61decff6e4a5c6b5a3d3cbd28f882e595173563b49353ce5f31dba2de7f05ee81565b7fa49807205ce4d355092ef5a8a18f56e8913cf4a201fbe287825b095693c2177580600e60003373ffffffffffffffffffffffffffffffffffffffff1673ffffffffffffffffffffffffffffffffffffffff16815260200190815260200160002054146118c8576040517f08c379a00000000000000000000000000000000000000000000000000000000081526004016118bf90613116565b60405180910390fd5b6118d0612632565b50565b600960205281600052604060002081815481106118ef57600080fd5b90600052602060002001600091509150505481565b6060600c60008373ffffffffffffffffffffffffffffffffffffffff1673ffffffffffffffffffffffffffffffffffffffff16815260200190815260200160002080548060200260200160405190810160405280929190818152602001828054801561198f57602002820191906000526020600020905b81548152602001906001019080831161197b575b50505050509050919050565b600b60205281600052604060002081815481106119b757600080fd5b90600052602060002001600091509150505481565b6119d4612694565b6119dc61258e565b600060086000838152602001908152602001600020905060046005811115611a0757611a06612d30565b5b8160050160009054906101000a900460ff166005811115611a2b57611a2a612d30565b5b14611a6b576040517f08c379a0000000000000000000000000000000000000000000000000000000008152600401611a6290613861565b60405180910390fd5b8060040154341015611ab2576040517f08c379a0000000000000000000000000000000000000000000000000000000008152600401611aa9906138cd565b60405180910390fd5b338160030160006101000a81548173ffffffffffffffffffffffffffffffffffffffff021916908373ffffffffffffffffffffffffffffffffffffffff16021790555060058160050160006101000a81548160ff02191690836005811115611b1d57611b1c612d30565b5b02179055508060020160009054906101000a900473ffffffffffffffffffffffffffffffffffffffff1673ffffffffffffffffffffffffffffffffffffffff166108fc349081150290604051600060405180830381858888f19350505050158015611b8c573d6000803e3d6000fd5b507fb8daedd8d8dd0484ed87158d972b26f7c77587ae180a436fd120692cf409d5c18233604051611bbe9291906137ec565b60405180910390a150611bcf6126da565b50565b7f2a5f906c256a5d799494fcd066e1f6c077689de1cdb65052a1624de4bace99bf80600e60003373ffffffffffffffffffffffffffffffffffffffff1673ffffffffffffffffffffffffffffffffffffffff1681526020019081526020016000205414611c74576040517f08c379a0000000000000000000000000000000000000000000000000000000008152600401611c6b90613116565b60405180910390fd5b611c7c61258e565b60036005811115611c9057611c8f612d30565b5b6007600086815260200190815260200160002060070160009054906101000a900460ff166005811115611cc657611cc5612d30565b5b14611d06576040517f08c379a0000000000000000000000000000000000000000000000000000000008152600401611cfd9061395f565b60405180910390fd5b8260076000868152602001908152602001600020600301541015611d5f576040517f08c379a0000000000000000000000000000000000000000000000000000000008152600401611d56906139cb565b60405180910390fd5b60008311611da2576040517f08c379a0000000000000000000000000000000000000000000000000000000008152600401611d99906131a8565b60405180910390fd5b60008211611de5576040517f08c379a0000000000000000000000000000000000000000000000000000000008152600401611ddc9061323a565b60405180910390fd5b60005b83811015611f9d5760056000815480929190611e039061331b565b9190505550600060055490506000600860008381526020019081526020016000209050818160000181905550868160010181905550338160020160006101000a81548173ffffffffffffffffffffffffffffffffffffffff021916908373ffffffffffffffffffffffffffffffffffffffff16021790555084816004018190555060048160050160006101000a81548160ff02191690836005811115611eac57611eab612d30565b5b0217905550600a6000888152602001908152602001600020829080600181540180825580915050600190039060005260206000200160009091909190915055600d60003373ffffffffffffffffffffffffffffffffffffffff1673ffffffffffffffffffffffffffffffffffffffff1681526020019081526020016000208290806001815401808255809150506001900390600052602060002001600090919091909150557f09d8d0427eee16da63ed3bdac07fab84ec34ee2daec6f697a705a2d57b430db582883388604051611f8694939291906139eb565b60405180910390a150508080600101915050611de8565b5082600760008681526020019081526020016000206003016000828254611fc49190613a30565b9250508190555060006007600086815260200190815260200160002060030154036120295760046007600086815260200190815260200160002060070160006101000a81548160ff0219169083600581111561202357612022612d30565b5b02179055505b50505050565b7fe61decff6e4a5c6b5a3d3cbd28f882e595173563b49353ce5f31dba2de7f05ee80600e60003373ffffffffffffffffffffffffffffffffffffffff1673ffffffffffffffffffffffffffffffffffffffff16815260200190815260200160002054146120d1576040517f08c379a00000000000000000000000000000000000000000000000000000000081526004016120c890613116565b60405180910390fd5b6120d961258e565b600060058111156120ed576120ec612d30565b5b6006600086815260200190815260200160002060080160009054906101000a900460ff16600581111561212357612122612d30565b5b14612163576040517f08c379a000000000000000000000000000000000000000000000000000000000815260040161215a90613ad6565b60405180910390fd5b82600660008681526020019081526020016000206003015410156121bc576040517f08c379a00000000000000000000000000000000000000000000000000000000081526004016121b390613b68565b60405180910390fd5b600083116121ff576040517f08c379a00000000000000000000000000000000000000000000000000000000081526004016121f6906131a8565b60405180910390fd5b600460008154809291906122129061331b565b9190505550600060045490506000600760008381526020019081526020016000209050818160000181905550858160010181905550338160020160006101000a81548173ffffffffffffffffffffffffffffffffffffffff021916908373ffffffffffffffffffffffffffffffffffffffff160217905550848160030181905550838160040190816122a4919061356f565b5042816005018190555060018160070160006101000a81548160ff021916908360058111156122d6576122d5612d30565b5b0217905550846006600088815260200190815260200160002060030160008282546123019190613a30565b9250508190555060006006600088815260200190815260200160002060030154036123665760016006600088815260200190815260200160002060080160006101000a81548160ff021916908360058111156123605761235f612d30565b5b02179055505b60096000878152602001908152602001600020829080600181540180825580915050600190039060005260206000200160009091909190915055600c60003373ffffffffffffffffffffffffffffffffffffffff1673ffffffffffffffffffffffffffffffffffffffff1681526020019081526020016000208290806001815401808255809150506001900390600052602060002001600090919091909150557f141b3079c274098220312e440f51636ed70a96e38f681a444b588be27a4b96e3828733888860405161243d959493929190613b88565b60405180910390a1505050505050565b600a602052816000526040600020818154811061246957600080fd5b90600052602060002001600091509150505481565b600c602052816000526040600020818154811061249a57600080fd5b90600052602060002001600091509150505481565b7ffbd454f36a7e1a388bd6fc3ab10d434aa4578f811acbbcf33afb1c697486313c81565b7f7c6181838a71a779e445600d4c6ecbe16bacf2b3c5bda69c29fada66d1b645d181565b6060600d60008373ffffffffffffffffffffffffffffffffffffffff1673ffffffffffffffffffffffffffffffffffffffff16815260200190815260200160002080548060200260200160405190810160405280929190818152602001828054801561258257602002820191906000526020600020905b81548152602001906001019080831161256e575b50505050509050919050565b612596611214565b156125cd576040517fd93c066500000000000000000000000000000000000000000000000000000000815260040160405180910390fd5b565b6125d76126e4565b6000600160006101000a81548160ff0219169083151502179055507f5db9ee0a495bf2e6ff9c91a7834c1ba4fdd244a5e8aa4e537bd38aeae4b073aa61261b612724565b6040516126289190613be2565b60405180910390a1565b61263a61258e565b60018060006101000a81548160ff0219169083151502179055507f62e78cea01bee320cd4e420270b5ea74000d11b0c9f74754ebdbfc544b05a25861267d612724565b60405161268a9190613be2565b60405180910390a1565b6002600054036126d0576040517f3ee5aeb500000000000000000000000000000000000000000000000000000000815260040160405180910390fd5b6002600081905550565b6001600081905550565b6126ec611214565b612722576040517f8dfc202b00000000000000000000000000000000000000000000000000000000815260040160405180910390fd5b565b600033905090565b6000604051905090565b600080fd5b600080fd5b6000819050919050565b61275381612740565b811461275e57600080fd5b50565b6000813590506127708161274a565b92915050565b60006020828403121561278c5761278b612736565b5b600061279a84828501612761565b91505092915050565b600081519050919050565b600082825260208201905092915050565b6000819050602082019050919050565b6127d881612740565b82525050565b60006127ea83836127cf565b60208301905092915050565b6000602082019050919050565b600061280e826127a3565b61281881856127ae565b9350612823836127bf565b8060005b8381101561285457815161283b88826127de565b9750612846836127f6565b925050600181019050612827565b5085935050505092915050565b6000602082019050818103600083015261287b8184612803565b905092915050565b600080fd5b600080fd5b6000601f19601f8301169050919050565b7f4e487b7100000000000000000000000000000000000000000000000000000000600052604160045260246000fd5b6128d68261288d565b810181811067ffffffffffffffff821117156128f5576128f461289e565b5b80604052505050565b600061290861272c565b905061291482826128cd565b919050565b600067ffffffffffffffff8211156129345761293361289e565b5b61293d8261288d565b9050602081019050919050565b82818337600083830152505050565b600061296c61296784612919565b6128fe565b90508281526020810184848401111561298857612987612888565b5b61299384828561294a565b509392505050565b600082601f8301126129b0576129af612883565b5b81356129c0848260208601612959565b91505092915050565b60008060008060008060c087890312156129e6576129e5612736565b5b600087013567ffffffffffffffff811115612a0457612a0361273b565b5b612a1089828a0161299b565b9650506020612a2189828a01612761565b955050604087013567ffffffffffffffff811115612a4257612a4161273b565b5b612a4e89828a0161299b565b9450506060612a5f89828a01612761565b935050608087013567ffffffffffffffff811115612a8057612a7f61273b565b5b612a8c89828a0161299b565b92505060a0612a9d89828a01612761565b9150509295509295509295565b612ab381612740565b82525050565b600073ffffffffffffffffffffffffffffffffffffffff82169050919050565b6000612ae482612ab9565b9050919050565b612af481612ad9565b82525050565b600081519050919050565b600082825260208201905092915050565b60005b83811015612b34578082015181840152602081019050612b19565b60008484015250505050565b6000612b4b82612afa565b612b558185612b05565b9350612b65818560208601612b16565b612b6e8161288d565b840191505092915050565b600061018082019050612b8f600083018f612aaa565b612b9c602083018e612aaa565b612ba9604083018d612aaa565b612bb6606083018c612aeb565b612bc3608083018b612aeb565b612bd060a083018a612aeb565b612bdd60c0830189612aeb565b81810360e0830152612bef8188612b40565b9050818103610100830152612c048187612b40565b9050612c14610120830186612aaa565b612c22610140830185612aaa565b818103610160830152612c358184612b40565b90509d9c50505050505050505050505050565b612c5181612ad9565b8114612c5c57600080fd5b50565b600081359050612c6e81612c48565b92915050565b600060208284031215612c8a57612c89612736565b5b6000612c9884828501612c5f565b91505092915050565b6000819050919050565b612cb481612ca1565b82525050565b6000602082019050612ccf6000830184612cab565b92915050565b60008060408385031215612cec57612ceb612736565b5b6000612cfa85828601612c5f565b9250506020612d0b85828601612761565b9150509250929050565b6000602082019050612d2a6000830184612aaa565b92915050565b7f4e487b7100000000000000000000000000000000000000000000000000000000600052602160045260246000fd5b60068110612d7057612d6f612d30565b5b50565b6000819050612d8182612d5f565b919050565b6000612d9182612d73565b9050919050565b612da181612d86565b82525050565b600060c082019050612dbc6000830189612aaa565b612dc96020830188612aaa565b612dd66040830187612aeb565b612de36060830186612aeb565b612df06080830185612aaa565b612dfd60a0830184612d98565b979650505050505050565b60008060408385031215612e1f57612e1e612736565b5b6000612e2d85828601612761565b925050602083013567ffffffffffffffff811115612e4e57612e4d61273b565b5b612e5a8582860161299b565b9150509250929050565b60008115159050919050565b612e7981612e64565b82525050565b6000602082019050612e946000830184612e70565b92915050565b600061012082019050612eb0600083018c612aaa565b8181036020830152612ec2818b612b40565b9050612ed1604083018a612aeb565b612ede6060830189612aaa565b8181036080830152612ef08188612b40565b9050612eff60a0830187612aaa565b81810360c0830152612f118186612b40565b9050612f2060e0830185612aaa565b612f2e610100830184612d98565b9a9950505050505050505050565b600061010082019050612f52600083018b612aaa565b612f5f602083018a612aaa565b612f6c6040830189612aeb565b612f796060830188612aaa565b8181036080830152612f8b8187612b40565b9050612f9a60a0830186612aaa565b81810360c0830152612fac8185612b40565b9050612fbb60e0830184612d98565b9998505050505050505050565b60008060408385031215612fdf57612fde612736565b5b6000612fed85828601612761565b9250506020612ffe85828601612761565b9150509250929050565b60008060006060848603121561302157613020612736565b5b600061302f86828701612761565b935050602061304086828701612761565b925050604061305186828701612761565b9150509250925092565b60008060006060848603121561307457613073612736565b5b600061308286828701612761565b935050602061309386828701612761565b925050604084013567ffffffffffffffff8111156130b4576130b361273b565b5b6130c08682870161299b565b9150509250925092565b7f756e617574686f72697a65642063616c6c657200000000000000000000000000600082015250565b6000613100601383612b05565b915061310b826130ca565b602082019050919050565b6000602082019050818103600083015261312f816130f3565b9050919050565b7f5175616e74697479206d7573742062652067726561746572207468616e207a6560008201527f726f000000000000000000000000000000000000000000000000000000000000602082015250565b6000613192602283612b05565b915061319d82613136565b604082019050919050565b600060208201905081810360008301526131c181613185565b9050919050565b7f50726963652070657220756e6974206d7573742062652067726561746572207460008201527f68616e207a65726f000000000000000000000000000000000000000000000000602082015250565b6000613224602883612b05565b915061322f826131c8565b604082019050919050565b6000602082019050818103600083015261325381613217565b9050919050565b7f4861727665737420646174652063616e6e6f7420626520696e2074686520667560008201527f7475726500000000000000000000000000000000000000000000000000000000602082015250565b60006132b6602483612b05565b91506132c18261325a565b604082019050919050565b600060208201905081810360008301526132e5816132a9565b9050919050565b7f4e487b7100000000000000000000000000000000000000000000000000000000600052601160045260246000fd5b600061332682612740565b91507fffffffffffffffffffffffffffffffffffffffffffffffffffffffffffffffff8203613358576133576132ec565b5b600182019050919050565b7f4e487b7100000000000000000000000000000000000000000000000000000000600052602260045260246000fd5b600060028204905060018216806133aa57607f821691505b6020821081036133bd576133bc613363565b5b50919050565b60008190508160005260206000209050919050565b60006020601f8301049050919050565b600082821b905092915050565b6000600883026134257fffffffffffffffffffffffffffffffffffffffffffffffffffffffffffffffff826133e8565b61342f86836133e8565b95508019841693508086168417925050509392505050565b6000819050919050565b600061346c61346761346284612740565b613447565b612740565b9050919050565b6000819050919050565b61348683613451565b61349a61349282613473565b8484546133f5565b825550505050565b600090565b6134af6134a2565b6134ba81848461347d565b505050565b5b818110156134de576134d36000826134a7565b6001810190506134c0565b5050565b601f821115613523576134f4816133c3565b6134fd846133d8565b8101602085101561350c578190505b613520613518856133d8565b8301826134bf565b50505b505050565b600082821c905092915050565b600061354660001984600802613528565b1980831691505092915050565b600061355f8383613535565b9150826002028217905092915050565b61357882612afa565b67ffffffffffffffff8111156135915761359061289e565b5b61359b8254613392565b6135a68282856134e2565b600060209050601f8311600181146135d957600084156135c7578287015190505b6135d18582613553565b865550613639565b601f1984166135e7866133c3565b60005b8281101561360f578489015182556001820191506020850194506020810190506135ea565b8683101561362c5784890151613628601f891682613535565b8355505b6001600288020188555050505b505050505050565b600060c0820190506136566000830189612aaa565b81810360208301526136688188612b40565b90506136776040830187612aeb565b6136846060830186612aaa565b81810360808301526136968185612b40565b90506136a560a0830184612aaa565b979650505050505050565b7f4261746368206d75737420626520696e2050726f636573736564207374617465600082015250565b60006136e6602083612b05565b91506136f1826136b0565b602082019050919050565b60006020820190508181036000830152613715816136d9565b9050919050565b60006060820190506137316000830186612aaa565b61373e6020830185612aeb565b81810360408301526137508184612b40565b9050949350505050565b7f4261746368206d75737420626520696e205175616c697479436865636b65642060008201527f7374617465000000000000000000000000000000000000000000000000000000602082015250565b60006137b6602583612b05565b91506137c18261375a565b604082019050919050565b600060208201905081810360008301526137e5816137a9565b9050919050565b60006040820190506138016000830185612aaa565b61380e6020830184612aeb565b9392505050565b7f556e6974206d75737420626520696e2052657461696c65642073746174650000600082015250565b600061384b601e83612b05565b915061385682613815565b602082019050919050565b6000602082019050818103600083015261387a8161383e565b9050919050565b7f496e73756666696369656e74207061796d656e74000000000000000000000000600082015250565b60006138b7601483612b05565b91506138c282613881565b602082019050919050565b600060208201905081810360008301526138e6816138aa565b9050919050565b7f4261746368206d75737420626520696e2044697374726962757465642073746160008201527f7465000000000000000000000000000000000000000000000000000000000000602082015250565b6000613949602283612b05565b9150613954826138ed565b604082019050919050565b600060208201905081810360008301526139788161393c565b9050919050565b7f496e73756666696369656e74207175616e7469747920696e2062617463680000600082015250565b60006139b5601e83612b05565b91506139c08261397f565b602082019050919050565b600060208201905081810360008301526139e4816139a8565b9050919050565b6000608082019050613a006000830187612aaa565b613a0d6020830186612aaa565b613a1a6040830185612aeb565b613a276060830184612aaa565b95945050505050565b6000613a3b82612740565b9150613a4683612740565b9250828203905081811115613a5e57613a5d6132ec565b5b92915050565b7f42756c6b20737570706c79206d75737420626520696e2052656769737465726560008201527f6420737461746500000000000000000000000000000000000000000000000000602082015250565b6000613ac0602783612b05565b9150613acb82613a64565b604082019050919050565b60006020820190508181036000830152613aef81613ab3565b9050919050565b7f496e73756666696369656e74207175616e7469747920696e2062756c6b20737560008201527f70706c7900000000000000000000000000000000000000000000000000000000602082015250565b6000613b52602483612b05565b9150613b5d82613af6565b604082019050919050565b60006020820190508181036000830152613b8181613b45565b9050919050565b600060a082019050613b9d6000830188612aaa565b613baa6020830187612aaa565b613bb76040830186612aeb565b613bc46060830185612aaa565b8181036080830152613bd68184612b40565b90509695505050505050565b6000602082019050613bf76000830184612aeb565b9291505056fea2646970667358221220fd345816564b6ef5d0a6d2c47b6ac97b2050df5760cd0aa43a151bd93879ba2a64736f6c634300081b0033",
  "linkReferences": {},
  "deployedLinkReferences": {}
}